:020000040800F2
:10000000F81300205D010008AD0800089107000802
:10001000970700088D0500082D1500080000000056
:100020000000000000000000000000008D0F00082C
:10003000ED05000800000000EB0A00086110000850
:100040009105000893050008C71300080000000090
:1000500000000000970500089511000861120008D3
:10006000890F00080000000095070008E90A000851
:10007000311500080000000051110008711100083E
:1000800091110008DD04000800000000950500083B
:100090008B0F0008000000000000000000000000BE
:1000A0000000000000000000000000008B050008B8
:1000B0003506000885060008F10600082507000837
:1000C00000F002F800F03AF80AA090E8000C824430
:1000D0008344AAF10107DA4501D100F02FF8AFF20D
:1000E000090EBAE80F0013F0010F18BFFB1A43F016
:1000F00001031847A41A0000C41A0000103A24BFD4
:1001000078C878C1FAD8520724BF30C830C144BF7C
:1001100004680C60704700000023002400250026BE
:10012000103A28BF78C1FBD8520728BF30C148BF5A
:100130000B6070471FB51FBD10B510BD00F031F842
:100140001146FFF7F7FF01F0F5F900F04FF803B49F
:10015000FFF7F2FF03BC00F057F8000009488047A2
:1001600009480047FEE7FEE7FEE7FEE7FEE7FEE799
:10017000FEE7FEE7FEE7FEE704480549054A064BB1
:1001800070470000F9100008C1000008F80D0020B9
:10019000F8130020F80F0020F80F00207047704778
:1001A0007047754600F02CF8AE4605006946534688
:1001B00020F00700854618B020B5FFF7DDFFBDE849
:1001C00020404FF000064FF000074FF000084FF0BE
:1001D000000B21F00701AC46ACE8C009ACE8C0094F
:1001E000ACE8C009ACE8C0098D46704710B50446BC
:1001F000AFF300802046BDE81040FFF7A8BF000025
:1002000000487047980D002001491820ABBEFEE75A
:1002100026000200704700000146054A106811B12F
:1002200040F0010001E020F00100014A1060704739
:100230000080084010B50446154800F08FF90020F2
:1002400013494860084600F069F9124800F08FF938
:10025000002010490860486088600846C46000209B
:10026000086148614FF4006008834FF410604883D0
:100270000020C86108624FF4405048620020886244
:10028000084600F029F80121062000F017F810BDFB
:10029000500D00206C0D00200146044A126A0A40ED
:1002A0000AB9002000E001207047000000800840EB
:1002B0000148806970470000008008400A46054BED
:1002C000196A12B141EA800101E021EA8001014B83
:1002D000196270470080084010B5144B1A68144B1F
:1002E0001A40D0E90034234484682344C46803EBF3
:1002F000041344692344C4692344446A234490F8A2
:10030000284003EB44631A44084B596821F4003138
:10031000038C01EB4341054B1A605960038B034C7E
:100320002361438BA3600369A36210BD0080084072
:100330000300FFF10146044A106820F4F87000EB56
:1003400001101060704700000080084003480068FA
:1003500040F002000149086070470000008008403A
:100360000146054A506811B140F0010001E020F05B
:100370000100014A506070470080084010B50446F3
:10038000154800F0EBF8002013494860084600F0DB
:10039000C5F8124800F0EBF80020104908604860EA
:1003A00088600846C4600020086148614FF400601E
:1003B00008834FF4106048830020C86108624FF43E
:1003C0004050486200208862084600F01DF8012174
:1003D000062000F00BF810BD500D00206C0D002021
:1003E0000148C06970470000008008400A46054B7C
:1003F000596A12B141EA800101E021EA8001014B12
:100400005962704700800840114A5168114A1140F2
:10041000D0E900231A4483681A44C36802EB03122C
:1004200043691A44C3691A44038C02EB8342436A4A
:100430001A4490F8283002EB43621144044A516098
:10044000028B034B5A61428BDA600269DA627047B1
:10045000008008400300FBF10146044A506820F484
:10046000F87000EB011050607047000000800840F9
:100470000348406840F002000149486070470000AE
:1004800000800840002009490860486088600861D1
:1004900008468069002008628862C8604861084692
:1004A000C06900204862C8627047000000800840B0
:1004B00000B5034600F008F8184008B9002200E033
:1004C0000122104600BD00000348006A0249496A43
:1004D00000EB0140704700000080084010B502208A
:1004E000FFF7DAFE09488069C0F30B00084908608D
:1004F0000648C069C0F30B0006490860064800685A
:10050000182002490862486210BD000000800840BF
:10051000D0000020D4000020AC00002010B50479E9
:10052000836803EB0473C468234404692344446967
:100530001919048B036803EB44531944044A054B0F
:100540001A43054B1B6893430B44034C236010BDB7
:1005500000001EF00000E101008008400021016061
:1005600041608160C160016141618161704700212A
:10057000016041608160C16001614161018341832B
:10058000C1610162416281627047704700BFFEE74E
:10059000704770477047704710B500220F4B1A60C4
:1005A0000F4B1A60D21E0F4B1A60002012E0002180
:1005B00007E0662300EB40220B4C2244521C5354AC
:1005C000491CB1F5007FF4DB012200EB4023064C0F
:1005D000E254401C0228EADB10BD000004000020A9
:1005E0000000002008000020E80000207047000004
:1005F0000748006840F080700549086005480068B9
:1006000040F0010003490860002048607047000086
:10061000FCED00E0001000E001B54FF4FA51009845
:100620004843009002E00098401E00900098002887
:10063000F9D108BD10B510480068401C0E4908608B
:100640000E4800F031FA0E4908601C2000F030F925
:10065000FFF77CFEFFF70CFF09480068A0F6FA7070
:1006600028B1042802D0052802D102E001E000E010
:1006700000BF00BF10BD0000B000002000800B4094
:10068000C800002010B5144800681449086004E050
:1006900012480068401E1149086010480068002890
:1006A000F6D1FFF753FEFFF7E3FE0D4800F0FCF92B
:1006B0000C4908604FF480410B4800F007FA1D20F8
:1006C00000F0F6F81F2000F0F3F808480068401C1E
:1006D0000649086010BD0000CC000020E0000020AA
:1006E00000800B40C800002000000B40B400002038
:1006F00010B509480068401C07490860074800F029
:10070000D3F9074908601E2000F0D2F8FFF71EFE5B
:10071000FFF7AEFE10BD0000B800002000800C40C6
:10072000C800002010B5144800681449086004E0AF
:1007300012480068401E11490860104800680028EF
:10074000F6D1FFF795FEFFF701FE0D4800F0ACF97A
:100750000C4908604FF480410B4800F0B7F90B4892
:100760000068401C094908601D2000F0A1F81F2006
:1007700000F09EF810BD0000CC000020E00000203A
:1007800000800B40C800002000000B40BC0000208F
:1007900000BFFEE7704700BFFEE7000010B5002075
:1007A0003D49C870012008710020487101208871FE
:1007B0000020C8714FF4006008800020887002207B
:1007C0000872012088724872344800F089F80020CD
:1007D0003149C870012008710020487101208871DA
:1007E0000020C8714FF480500880002088700220DB
:1007F00008720120887203204872294800F070F8BE
:1008000000202549C870012008710020487101208E
:1008100088710020C8714FF4005008800020887053
:100820000220087201208872032048721C4800F0E0
:1008300057F800201849C870087148718871C8714C
:100840000820088001208870164800F049F83C20F4
:1008500011490880002088708872134800F040F821
:1008600000200D49C870087148718871C871022054
:10087000087203204872012088724FF4604008809B
:1008800001208870002008720120887203204872BD
:10089000024800F025F810BD340D002000000B4088
:1008A00000800B4000800C4000000C4070470000AE
:1008B00000F01F0201219140024A430942F823102F
:1008C0007047000080E100E000F01F02012191402C
:1008D0004209920002F1E022C2F8001170470000C4
:1008E0002DE9FE4F4768D0F808C0D0F80C80D0F84A
:1008F0001090D0F814A0CDF808A0D0F818A0CDF82A
:1009000004A0D0F81CA0CDF800A0002201230325EC
:100910004FF001160C885FE004F0010ABAF1000FF5
:1009200055D027EA030A91F802B00BFA02FB4AEA13
:100930000B0791F808A04FEA420B0AFA0BFA2CEACF
:10094000050B4AEA0B0C28EA030A91F80AB00BFAE5
:1009500002FB4AEA0B0829EA060A91F803B002F101
:10096000100E0BFA0EFB4AEA0B0A91F804B00BFAD0
:1009700002FB4AEA0B09DDF808A02AEA060A91F808
:1009800005B00BFA0EFB4AEA0B0A91F806B00BFA17
:1009900002FB4AEA0B0ACDF808A091F809A04FEA39
:1009A000420B0AFA0BFADDF804B02BEA050B4AEA0F
:1009B0000B0ACDF804A0DDF800A02AEA030A91F89A
:1009C00007B00BFA02FB4AEA0B0ACDF800A05B0065
:1009D000AD007600521C6408002C9DD1DFF8C4A045
:1009E000504502D14FF01F0A01E04FF0000A27EAFC
:1009F0000A0AC0F804A0DFF8ACA0504502D14FF0BD
:100A00001F0A01E04FF0000A2CEA0A0AC0F808A009
:100A1000DFF890A0504502D14FF01F0A01E04FF0DF
:100A2000000A28EA0A0AC0F80CA0DFF878A05045AE
:100A300002D14FF01F0A01E04FF0000A29EA0A0A2A
:100A4000C0F810A0DFF85CA0504502D14FF01F0B9A
:100A500001E04FF0000BDDF808A02AEA0B0AC0F80D
:100A600014A0DFF840A0504502D14FF01F0B01E069
:100A70004FF0000BDDF804A02AEA0B0AC0F818A01A
:100A8000DFF820A0504502D14FF01F0B01E04FF0DE
:100A9000000BDDF800A02AEA0B0AC0F81CA0BDE894
:100AA000FE8F000000000B40014608687047000000
:100AB0000268054B984201D11F2300E000230B433D
:100AC0009A4302607047000000000B400268054B2B
:100AD000984201D11F2300E000239A430A43026099
:100AE0007047000000000B407047704701490860E4
:100AF000704700008800404210B502460C4BD86891
:100B000020F003001043D860586820F4706040EA79
:100B100001205860074B1B6843B10123054C241D7D
:100B200023600023034C883CC4F88C3010BD0000C7
:100B3000000002408800404238B50020009000BF0D
:100B4000212000F075F905460098401C009000989F
:100B5000B0F5C06F01D2002DF2D0212000F068F96D
:100B600008B1012400E00024204638BD0149086096
:100B700070470000880140420146034AD06820F4D3
:100B800040700843D06070470000024000B500F09C
:100B9000D1F90121C80600F0BDF90648C06B40F448
:100BA00081000449C8630846C06B00F48100C86333
:100BB00000BD000000800D402DE9FC4F0146DFF82C
:100BC00064B2DBF80CB00BF0020BBBF1000F01D0EC
:100BD000954B00E0954BDFF84CB2DBF80CB00BF016
:100BE000010BBBF1000F00D05B081C46DFF834B2EC
:100BF000DBF80CB00BF0040BBBF1000F0DD0DFF8ED
:100C000024B2DBF804B0CBF3032B0BF1010BCDF8CE
:100C100000B0DDF800B004FB0BF4DFF808B2DBF83D
:100C20000CB0CBF3012BBBF1000F06D0BBF1010FD1
:100C300008D0BBF1020F28D122E0DFF8F0B1C1F8F3
:100C400000B027E0DFF8DCB1DBF80CB04FF0080EA5
:100C50000EEA1B1BBBF1000F01D1A0460DE0DFF82F
:100C6000C4B1DBF80CB0CBF3021B0BF1010B4FF05E
:100C7000010E0EFA0BFEB4FBFEF8C1F8008009E08D
:100C80004FF4004BC1F800B004E049F6404BC1F806
:100C900000B000BF00BFDFF88CB1DBF810B00BF084
:100CA000020BBBF1000F01D05F4D00E05F4DDFF89C
:100CB00074B1DBF810B00BF0010BBBF1000F00D0EA
:100CC0006D082F46DFF85CB1DBF810B00BF0040BB9
:100CD000BBF1000F0DD0DFF84CB1DBF804B0CBF363
:100CE000031B0BF1010BCDF800B0DDF800B007FBE2
:100CF0000BF7B946DFF82CB1DBF810B00BF0100B96
:100D0000BBF1000F01D04FEA5909C1F80490DFF898
:100D100014B1DBF818B04FEA1B1000F0080BBBF160
:100D2000000F02D1DFF804C10BE000F0070B0BF15C
:100D3000010B4FF0010E0EFA0BF0DFF8F0B0BBFB29
:100D4000F0FCC1F80CC0DFF8DCB0DBF8180000F0F4
:100D5000080BBBF1000F04D1DFF8CCB0CDF804B024
:100D60000DE000F0070B0BF1010B4FF0010E0EFA36
:100D70000BF0DFF8B4B0BBFBF0FBCDF804B0DDF84E
:100D800004B0C1F810B0DFF89CB0DBF814B00BF081
:100D9000030BBBF1000F06D0BBF1010F05D0BBF177
:100DA000020F06D103E01E4605E02E4603E026466C
:100DB00001E03E4600BF00BFDFF868B0DBF814B0CA
:100DC000CBF3011BBBF1000F06D0BBF1010F06D026
:100DD000BBF1020F08D105E04FF4004206E049F6EE
:100DE000404203E0324601E0624600BF00BFDFF848
:100DF00034B0DBF814B04FEA1B2000F0080BBBF155
:100E0000000F01D1924609E000F0070B0BF1010B36
:100E10004FF0010E0EFA0BF0B2FBF0FAC1F808A089
:100E2000BDE8FC8F000002400024F40000127A00AC
:100E300010B5014601F0E003202B02D1074B1A68E0
:100E400001E0074BDA6B01F01F040123A3401340BC
:100E50000BB1012000E0002010BD000000000240A6
:100E600000800D400D49896821F003010B4A916013
:100E7000012802D002280ED106E00849896841F015
:100E80000101064A916007E00449896841F00301C5
:100E9000024A916000E000BF00BF704700000240BE
:100EA00038B50020009000BF2220FFF7C1FF0546A3
:100EB0000098401C00900098B0F5C06F01D2002D42
:100EC000F2D02220FFF7B4FF08B1012400E0002493
:100ED000204638BD0149086070470000D807B0437C
:100EE00038B50020009000BF1720FFF7A1FF05468E
:100EF0000098401C00900098B0F5C06F01D2002D02
:100F0000F2D01720FFF794FF08B1012400E000247D
:100F1000204638BD29B1064AD2690243044BDA6142
:100F200004E0034AD2698243014BDA617047000052
:100F30000000024000B50120FFF7CCFFFFF7D0FF13
:100F40000020FFF719FE0E48C06800200C49C86059
:100F50000846406800204860084680680020886095
:100F60000846006900200861084640690020486181
:100F700008468069002088610248C86100BD000001
:100F800000000240100000087047704770470000E2
:100F900010B51F48006800EB40201E49085CA8B34C
:100FA0002EE01B48006800EB40201A4A1044401C09
:100FB000194A1268815C194800F002FA1648006864
:100FC000B0F5007F05DA14480068401C124908603B
:100FD00016E000200E49096801EB41210D4A5054EA
:100FE0000B480068022805DA09480068401C0849D7
:100FF000086002E0002006490860002006490860F9
:101000000648806900F080000028CAD110BD0000A9
:1010100004000020E80000200C0000200000034035
:1010200010B5FFF7B3FD0120FFF71CFF00BFFFF76E
:1010300037FF0128FBD104210220FFF75DFD0120CD
:10104000FFF754FDFFF778FD012801D000BFFEE750
:101050000120FFF78BFD4FF48070FFF78DFD10BD71
:101060007047000030B5204CE46804F00204022C04
:1010700001D11E4800E01E481B4CE46804F0010446
:1010800004B140080146184CE46804F00404042C40
:1010900005D1154C6468C4F30324631C5943124CF6
:1010A000E468C4F3012424B1012C06D0022C13D12E
:1010B0000DE00F4C0F4D2C6013E00B4CE468C4F3B3
:1010C0000314641CB1FBF4F20A4C226009E04FF4F3
:1010D0000044084D2C6004E049F64044054D2C6066
:1010E00000BF00BF30BD0000000002400024F4003B
:1010F00000127A00E400002000B50D480D49C861D7
:101100000846C0680020C860084640680020486063
:101110000846806800208860084600690020086151
:101120000846406900204861FFF79CFF00BD0000B1
:10113000100000080000024010B50246936D546D87
:101140001C4004EA01030BB9002000E0012010BD9F
:1011500010B502210548FFF7EFFF012805D103482C
:10116000406D20F002000149486510BD00000740B5
:101170000548406D00F0800020B104480068401C24
:10118000024908607047000000800740A800002066
:101190007047000010B510212D4800F0A3F8012879
:1011A0004CD110212A4800F08DF8294800F004F9AC
:1011B00028490880012028490860254800F0FCF8EB
:1011C00024490880224800F0F7F822490880204886
:1011D00000F0F2F81F4908801D4800F0EDF81D49A5
:1011E00008801B4800F0E8F81A490880184800F009
:1011F000E3F818490880164800F0DEF81549088021
:10120000134800F0D9F813490880114800F0D4F8C9
:10121000104908800E4800F0CFF80E4908800C48AD
:1012200000F0CAF80B490880094800F0C5F80949E0
:101230000880074800F0C0F8064908800448446860
:1012400006480068844202D000200149486010BD71
:1012500000000340C40000208C000020DC000020BF
:1012600010B51021064800F03DF8012806D11021E4
:10127000034800F027F801200249086010BD000073
:10128000008003409000002002460B4B986A0B4BF5
:101290009A4205D140F0807020F0FF00084308E03A
:1012A000074B9A4205D140F0007020F47F4040EA9D
:1012B0000120014B9862704700000240000003408B
:1012C00000800340426C0A434264704721B1026BC4
:1012D00042F00102026304E0026B4FF6FE731A4013
:1012E000026370470246136C0B400BB1012000E013
:1012F000002070471AB1836B0B43836302E0836B5A
:101300008B438363704700002DE9F04F87B004469C
:101310000D4601A8FFF750FC019F2448866A244827
:10132000844206D106F0070101208840B7FBF0F7A0
:1013300008E02048844205D1C6F3022101208840FC
:10134000B7FBF0F728688008B7FBF0F94FEA991867
:1013500009F03F0AB8000AEB8811B0FBF1FB2868DE
:10136000ABEB0000C0012968B0FBF1F006900698D5
:10137000022803D9002007B0BDE8F08FC4F824800C
:10138000C4F828A0E66AA888E988084329890843A0
:10139000698908430643E662266B4FF680708643F0
:1013A000A889064326630120E5E70000000002400B
:1013B00000000340008003400146086880B2704787
:1013C000CAB202607047704710B500201C49C8704F
:1013D000087148718871C871022008720320487230
:1013E0000120887200208870402008801548FFF78F
:1013F00077FA012012498870202008801148FFF7F1
:101400006FFA80200E490880012088700020087241
:1014100001208872022048720A48FFF761FA4FF4EF
:1014200000400749088001208870002008720120D0
:101430008872022048720348FFF752FA10BD00007C
:10144000340D002000000B4010B501214020FFF7B3
:1014500061FD00211048FFF717FF4FF4E1300F49FD
:101460000860602088800020C880088110204881A2
:101470004FF4407088810848FFF746FF0620FFF7C9
:1014800023FA012210210448FFF734FF012102480A
:10149000FFF71CFF10BD000000000340400D0020BE
:1014A00010B5FFF791FFFFF7CFFF72201C490880AE
:1014B00080211C48FFF70AFB194801881A48FFF7EA
:1014C0007FFF17480088401C81B21748FFF778FF5C
:1014D00013480088801C81B21348FFF771FF104841
:1014E00001881148FFF76CFF0D480088401C81B24D
:1014F0000D48FFF765FF0A480088801C81B20A4842
:10150000FFF75EFF064801880748FFF759FF0448C8
:101510000088401C81B20448FFF752FF002010BD34
:101520009400002000000B400000034000BFFEE7D5
:10153000704700004FF4C870FFF76EF8FFF770FDBA
:1015400001214805FFF7E6FC01218805FFF7E2FCD1
:101550000121C805FFF7DEFC01210806FFF7DAFCD0
:1015600001214806FFF7D6FC01214807FFF7D2FC0E
:1015700001218807FFF7CEFC01214804FFF7CAFCD0
:10158000FFF70CF9FEF77EFF0220FEF753FE032063
:10159000FEF7F4FE0120FEF73FFE0120FEF7E0FE1D
:1015A0001D20FFF791F91F20FFF78EF9FFF720F8B4
:1015B000FEF7F2FFFFF774FFDEE2FFF7E9FCFE48FB
:1015C000806900F0080040B98021FC48FFF770FAFC
:1015D0004FF40041F948FFF76BFAF9480068F94900
:1015E000098888425DD00020F7490860F749086003
:1015F00000BF0420FEF75CFF0028FAD0FEF758FE7B
:10160000F149086000BF4FF48020FEF751FF002829
:10161000F9D0FEF7E5FEED4908604FF48041E74858
:10162000FFF746FAE6480088E64908808021E3484B
:10163000FFF74CFA4FF40041E048FFF747FA492121
:10164000DD48FFF7BDFE3221DB48FFF7B9FEDC487D
:10165000008881B2D848FFF7B3FEDB480068C0F3CA
:101660000F21D548FFF7ACFED748008881B2D24899
:10167000FFF7A6FED5480068C0F30F21CE48FFF75C
:101680009FFED248008881B2CB48FFF799FE002127
:10169000C948FFF795FE1D20FFF716F91F20FFF739
:1016A00013F9CB480068CB490988884250D0002004
:1016B000C5490860C5490860FEF7FAFDC2490860DF
:1016C000FEF78EFEC14908604FF48041BB48FFF72A
:1016D000EFF9BF480088BF4908808021B748FFF76D
:1016E000F5F94FF40041B548FFF7F0F94921B24848
:1016F000FFF766FE3421B048FFF762FEB448008869
:1017000081B2AD48FFF75CFEAF480068C0F30F211F
:10171000A948FFF755FEAC48008881B2A648FFF7FC
:101720004FFEAA480068C0F30F21A348FFF748FE08
:10173000A648008881B2A048FFF742FE00219E48DB
:10174000FFF73EFE1D20FFF7BFF81F20FFF7BCF894
:101750009948806900F0100038B99748FFF72CFECF
:101760009D49088001209D4908609C480068012827
:101770007ED100209949086080219048FFF7A6F9A2
:10178000954801888C48FFF71BFE93480088352850
:101790006FD00CDC322813D004DC2B286AD02D2823
:1017A00069D191E1332844D03428F9D181E0382837
:1017B0007CD039287BD074287AD07528F0D150E1BC
:1017C0000220FEF749FE0120FEF7CAFDFEF750FE9B
:1017D00000BF4FF48020FEF76BFE0028F9D0FEF723
:1017E000FFFD7949086000217348FFF7E9FD0021FA
:1017F0007148FFF7E5FD00216F48FFF7E1FD7248F2
:101800000068010E6C48FFF7DBFD6F480068010CB3
:101810006948FFF7D5FD6C480068C0F30F216648A2
:10182000FFF7CEFD6848008881B26348FFF7C8FD26
:10183000A1E10320FEF77EFD0120FEF7EDFCFEF79F
:1018400085FD00BF0420FEF733FE0028FAD0FEF726
:101850002FFD5D49086000215748FFF7B1FD0021C9
:101860005548FFF7ADFD00215348FFF7A9FD03E000
:1018700082E157E0FDE055E153480068010E4E4813
:10188000FFF79EFD50480068010C4B48FFF798FD9C
:101890004D480068C0F30F214748FFF791FD4A48C3
:1018A000008881B24448FFF78BFD64E172E0A8E054
:1018B000ADE00420FEF7D0FD0120FEF751FDFEF75C
:1018C000D7FD00BF4FF48020FEF7F2FD0028F9D0CD
:1018D000FEF786FD3C49086000213748FFF770FDA0
:1018E00000213548FFF76CFD00213348FFF768FD04
:1018F00035480068010E3048FFF762FD3248006845
:10190000010C2D48FFF75CFD2F480068C0F30F2144
:101910002948FFF755FD2C48008881B22648FFF77B
:101920004FFD28E10520FEF705FD0120FEF774FCC0
:10193000FEF70CFD00BF0420FEF7BAFD0028FAD028
:10194000FEF7B6FC2049086000211B48FFF738FD70
:1019500000211948FFF734FD00211748FFF730FD3B
:1019600019480068010E1448FFF72AFD1648006860
:10197000010C1148FFF724FD13480068C0F30F2144
:101980000D48FFF71DFD1048008881B20A48FFF797
:1019900017FDF0E04FF400410848FFF797F80021E9
:1019A0000548FFF70DFD00210348FFF709FD002161
:1019B0000148FFF705FD13E00000034000000B4065
:1019C000B400002096000020A0000020A400002009
:1019D000BC00002098000020C40000208C000020E3
:1019E00000216648FFF7ECFC00216448FFF7E8FCA3
:1019F00000216248FFF7E4FC00216048FFF7E0FCAB
:101A0000B9E04FF400415E48FFF752F8B3E0FEF74B
:101A10004FFC5C49086000215848FFF7D1FC0021C9
:101A20005648FFF7CDFC00215448FFF7C9FC554844
:101A30000068010E5148FFF7C3FC52480068010CD2
:101A40004E48FFF7BDFC4F480068C0F30F214B48DC
:101A5000FFF7B6FC4B48008881B24848FFF7B0FC5E
:101A600089E001204849096801EB4121474A505467
:101A700081E047480068401C4549086044213F48D0
:101A8000FFF79EFC2B213D48FFF79AFC00213B48C5
:101A9000FFF796FC3E480068010E3848FFF790FCBF
:101AA0003B480068010C3548FFF78AFC384800685D
:101AB000C0F30F213148FFF783FC3548008881B21D
:101AC0002E48FFF77DFC56E03148006820B13048D1
:101AD0000068401E2E49086044212848FFF770FC2A
:101AE0002D212648FFF76CFC00212448FFF768FCF5
:101AF00027480068010E2148FFF762FC244800686F
:101B0000010C1E48FFF75CFC21480068C0F30F2160
:101B10001A48FFF755FC1E48008881B21748FFF7A6
:101B20004FFC28E072201B49088000211348FFF772
:101B300047FC00211148FFF743FC00210F48FFF745
:101B40003FFC10480068010E0C48FFF739FC0D48B7
:101B50000068010C0948FFF733FC0A480068C0F32D
:101B60000F210648FFF72CFC0648008881B2034885
:101B7000FFF726FC00BF00BF1FE500000000034088
:101B800000000B40A000002004000020E80000201E
:101B9000CC00002094000020B81B000800000020AA
:101BA000E8000000FC000008A01C0008E80000207D
:101BB00010130000180100080000000000000000E1
:101BC000FDFFFFFF0000000000000000000000001B
:101BD0000A000000000000002000000000000000DB
:101BE000000020406666663FCDCCCC3D0000000082
:101BF00000000000000000000000000000000000E5
:101C000000000000000000000000000000000000D4
:101C100000000000000000000000000000000000C4
:101C200000000000000000000000000000000000B4
:101C300000000000000000000000000000000000A4
:101C40000000000000000000000000000000000094
:101C50000000000000000000000000000000000084
:101C60000000000000000000000000000000000074
:101C70000000000000000000000000000000000064
:101C80000000000000000000000000000000000054
:101C900000000000000000000000000000127A00B8
:040000050800015D91
:00000001FF
