:020000040800F2
:10000000D84F00205D010008C50500084B05000819
:1000100051050008BD0400081D0F00080000000085
:10002000000000000000000000000000650B000858
:10003000C904000800000000E7070008670B00087B
:10004000C1040008C3040008170E000800000000E7
:1000500000000000C7040008950C0008BD0C000853
:10006000610B0008000000004F050008E5070008CC
:10007000210F000800000000510C0008710C00085E
:10008000910C00080D04000800000000C5040008E1
:10009000630B0008000000000000000000000000EA
:1000A000000000000000000000000000BB04000889
:1000B000E90400084505000847050008490500084F
:1000C00000F002F800F03AF80AA090E8000C824430
:1000D0008344AAF10107DA4501D100F02FF8AFF20D
:1000E000090EBAE80F0013F0010F18BFFB1A43F016
:1000F00001031847C40E0000E40E0000103A24BFAC
:1001000078C878C1FAD8520724BF30C830C144BF7C
:1001100004680C60704700000023002400250026BE
:10012000103A28BF78C1FBD8520728BF30C148BF5A
:100130000B6070471FB51FBD10B510BD00F031F842
:100140001146FFF7F7FF00F0ECFE00F04FF803B4A4
:10015000FFF7F2FF03BC00F057F8000009488047A2
:1001600009480047FEE7FEE7FEE7FEE7FEE7FEE799
:10017000FEE7FEE7FEE7FEE704480549054A064BB1
:1001800070470000F90B0008C1000008D8490020A2
:10019000D84F0020D84B0020D84B00207047704724
:1001A0007047754600F02CF8AE4605006946534688
:1001B00020F00700854618B020B5FFF7DDFFBDE849
:1001C00020404FF000064FF000074FF000084FF0BE
:1001D000000B21F00701AC46ACE8C009ACE8C0094F
:1001E000ACE8C009ACE8C0098D46704710B50446BC
:1001F000AFF300802046BDE81040FFF7A8BF000025
:10020000004870477849002001491820ABBEFEE73E
:1002100026000200704700000146054A106811B12F
:1002200040F0010001E020F00100014A1060704739
:100230000080084010B5044600F0D2F8144800F0E1
:1002400025F9134800F002F9124800F028F90020BF
:1002500010490860486088600846C4600020086152
:1002600048614FF4807008834FF410604883002089
:10027000C86108624FF4405048620F208862084607
:1002800000F07CF80121062000F012F810BD0000FB
:10029000304900204C4900200146044A126A0A40B5
:1002A0000AB9002000E001207047000000800840EB
:1002B0000A46054B196A12B141EA800101E021EAC0
:1002C0008001014B196270470080084003480068B4
:1002D00040F00200014908607047000000800840BB
:1002E0000146054A506811B140F0010001E020F0DC
:1002F0000100014A506070470080084010B5044674
:1003000000F06EF8144800F0C1F8134800F09EF8B1
:10031000124800F0C4F80020104908604860886066
:100320000846C4600020086148614FF400600883FB
:100330004FF4106048830020C86108624FF44050B9
:1003400048620F208862084600F018F80121062054
:1003500000F006F810BD0000304900204C49002094
:100360000A46054B596A12B141EA800101E021EACF
:100370008001014B5962704700800840114A516862
:10038000114A1140D0E900231A4483681A44C36813
:1003900002EB031243691A44C3691A44038C02EB4B
:1003A0008342436A1A4490F8283002EB43621144B6
:1003B000044A5160028B034B5A61428BDA60026936
:1003C000DA627047008008400300FBF10348406890
:1003D00040F002000149486070470000008008407A
:1003E0000020094908604860886008610846806903
:1003F000002008628862C86048610846C069002021
:100400004862C862704700000080084010B50220B2
:10041000FFF742FF09488069C0F30B0008490860F4
:100420000648C069C0F30B0006490860064800682A
:10043000182002490862486210BD00000080084090
:100440009C000020A00000209400002010B504793A
:10045000836803EB0473C468234404692344446938
:100460001919048B036803EB44531944044A054BE0
:100470001A43054B1B6893430B44034C236010BD88
:1004800000001EF00000E101008008400021016032
:1004900041608160C16001614161816170470021FB
:1004A000016041608160C1600161416101834183FC
:1004B000C1610162416281627047704700BFFEE71F
:1004C0007047704770477047704701B54FF47A51D5
:1004D00000984843009002E00098401E0090009869
:1004E0000028F9D108BD000010B512480068401C72
:1004F00010490860104800F055F9104908601C20A8
:10050000012181400E4A430942F8231000BFFFF742
:10051000DDFEFFF75BFF09480068A0F6FA7028B11E
:10052000042802D0052802D102E001E000E000BF6B
:1005300000BF10BD9800002000800C40A4000020E7
:1005400080E100E070477047704700BFFEE77047EA
:1005500000BFFEE710B500201649C87001200871E1
:1005600000204871012088710020C8710120088096
:1005700000208870022008720120887248720E489C
:1005800000F02CF800200B49C87008714871887180
:10059000C8710820088001208870084800F01EF803
:1005A0000C2004490880002088708872044800F0FC
:1005B00015F810BD1449002000800A4000800C404E
:1005C00000000C40704700F01F02012191404209D9
:1005D000920002F1E022C2F8001170472DE9FE4FAF
:1005E0004768D0F808C0D0F80C80D0F81090D0F848
:1005F00014A0CDF808A0D0F818A0CDF804A0D0F829
:100600001CA0CDF800A00022012303254FF0011605
:100610000C885FE004F0010ABAF1000F55D027EA18
:10062000030A91F802B00BFA02FB4AEA0B0791F8B1
:1006300008A04FEA420B0AFA0BFA2CEA050B4AEA29
:100640000B0C28EA030A91F80AB00BFA02FB4AEAFB
:100650000B0829EA060A91F803B002F1100E0BFA12
:100660000EFB4AEA0B0A91F804B00BFA02FB4AEAC5
:100670000B09DDF808A02AEA060A91F805B00BFA82
:100680000EFB4AEA0B0A91F806B00BFA02FB4AEAA3
:100690000B0ACDF808A091F809A04FEA420B0AFA1C
:1006A0000BFADDF804B02BEA050B4AEA0B0ACDF889
:1006B00004A0DDF800A02AEA030A91F807B00BFABB
:1006C00002FB4AEA0B0ACDF800A05B00AD00760001
:1006D000521C6408002C9DD1DFF8C4A0504502D103
:1006E0004FF01F0A01E04FF0000A27EA0A0AC0F89B
:1006F00004A0DFF8ACA0504502D14FF01F0A01E082
:100700004FF0000A2CEA0A0AC0F808A0DFF890A00F
:10071000504502D14FF01F0A01E04FF0000A28EACD
:100720000A0AC0F80CA0DFF878A0504502D14FF0BB
:100730001F0A01E04FF0000A29EA0A0AC0F810A0D7
:10074000DFF85CA0504502D14FF01F0B01E04FF0E5
:10075000000BDDF808A02AEA0B0AC0F814A0DFF8A5
:1007600040A0504502D14FF01F0B01E04FF0000BAD
:10077000DDF804A02AEA0B0AC0F818A0DFF820A0D0
:10078000504502D14FF01F0B01E04FF0000BDDF898
:1007900000A02AEA0B0AC0F81CA0BDE8FE8F0000EA
:1007A00000000B4001460868704700000268054BD6
:1007B000984201D11F2300E000230B439A430260BB
:1007C0007047000000000B400268054B984201D1C1
:1007D0001F2300E000239A430A4302607047000091
:1007E00000000B407047704710B502460C4BD868AC
:1007F00020F003001043D860586820F4706040EA8D
:1008000001205860074B1B6843B10123054C241D90
:1008100023600023034C883CC4F88C3010BD0000DA
:1008200000000240880040422DE9FC4F0146DFF8FD
:1008300064B2DBF80CB00BF0020BBBF1000F01D07F
:10084000954B00E0944BDFF84CB2DBF80CB00BF0AA
:10085000010BBBF1000F00D05B081C46DFF834B27F
:10086000DBF80CB00BF0040BBBF1000F0DD0DFF880
:1008700024B2DBF804B0CBF3032B0BF1010BCDF862
:1008800000B0DDF800B004FB0BF4DFF808B2DBF8D1
:100890000CB0CBF3012BBBF1000F06D0BBF1010F65
:1008A00008D0BBF1020F28D122E0DFF8ECB1C1F88B
:1008B00000B027E0DFF8DCB1DBF80CB04FF0080E39
:1008C0000EEA1B1BBBF1000F01D1A0460DE0DFF8C3
:1008D000C4B1DBF80CB0CBF3021B0BF1010B4FF0F2
:1008E000010E0EFA0BFEB4FBFEF8C1F8008009E021
:1008F0004FF4004BC1F800B004E049F6404BC1F89A
:1009000000B000BF00BFDFF88CB1DBF810B00BF017
:10091000020BBBF1000F01D05F4D00E05E4DDFF830
:1009200074B1DBF810B00BF0010BBBF1000F00D07D
:100930006D082F46DFF85CB1DBF810B00BF0040B4C
:10094000BBF1000F0DD0DFF84CB1DBF804B0CBF3F6
:10095000031B0BF1010BCDF800B0DDF800B007FB75
:100960000BF7B946DFF82CB1DBF810B00BF0100B29
:10097000BBF1000F01D04FEA5909C1F80490DFF82C
:1009800014B1DBF818B04FEA1B1000F0080BBBF1F4
:10099000000F02D1DFF800C10BE000F0070B0BF1F4
:1009A000010B4FF0010E0EFA0BF0DFF8ECB0BBFBC1
:1009B000F0FCC1F80CC0DFF8DCB0DBF8180000F088
:1009C000080BBBF1000F04D1DFF8CCB0CDF804B0B8
:1009D0000DE000F0070B0BF1010B4FF0010E0EFACA
:1009E0000BF0DFF8B4B0BBFBF0FBCDF804B0DDF8E2
:1009F00004B0C1F810B0DFF89CB0DBF814B00BF015
:100A0000030BBBF1000F06D0BBF1010F05D0BBF10A
:100A1000020F06D103E01E4605E02E4603E02646FF
:100A200001E03E4600BF00BFDFF868B0DBF814B05D
:100A3000CBF3011BBBF1000F06D0BBF1010F06D0B9
:100A4000BBF1020F08D105E04FF4004206E049F681
:100A5000404203E0324601E0624600BF00BFDFF8DB
:100A600034B0DBF814B04FEA1B2000F0080BBBF1E8
:100A7000000F01D1924609E000F0070B0BF1010BCA
:100A80004FF0010E0EFA0BF0B2FBF0FAC1F808A01D
:100A9000BDE8FC8F0000024000127A0010B501464C
:100AA00001F0E003202B02D1074B1A6801E0074B4D
:100AB000DA6B01F01F040123A34013400BB10120A6
:100AC00000E0002010BD00000000024000800D404A
:100AD0000D49896821F003010B4A9160012802D079
:100AE00002280ED106E00849896841F00101064A52
:100AF000916007E00449896841F00301024A91606E
:100B000000E000BF00BF70470000024038B5002081
:100B1000009000BF2220FFF7C1FF05460098401C4F
:100B200000900098B0F5C06F01D2002DF2D02220C5
:100B3000FFF7B4FF08B1012400E00024204638BDCF
:100B400029B1064AD2690243044BDA6104E0034A40
:100B5000D2698243014BDA61704700000000024015
:100B6000704770477047704730B5204CE46804F018
:100B70000204022C01D11E4800E01D481B4CE46811
:100B800004F0010404B140080146184CE46804F084
:100B90000404042C05D1154C6468C4F30324631CBD
:100BA0005943124CE468C4F3012424B1012C06D04B
:100BB000022C13D10DE00E4C0E4D2C6013E00B4CAB
:100BC000E468C4F30314641CB1FBF4F2094C226022
:100BD00009E04FF40044074D2C6004E049F640441E
:100BE000044D2C6000BF00BF30BD0000000002407B
:100BF00000127A00A800002000B50D480D49C86118
:100C00000846C0680020C860084640680020486068
:100C10000846806800208860084600690020086156
:100C20000846406900204861FFF79EFF00BD0000B4
:100C3000100000080000024010B50246936D546D8C
:100C40001C4004EA01030BB9002000E0012010BDA4
:100C500010B502210548FFF7EFFF012805D1034831
:100C6000406D20F002000149486510BD00000740BA
:100C70000548406D00F0800020B104480068401C29
:100C80000249086070470000008007409000002083
:100C90007047000010B52021064800F059F80128DF
:100CA00006D12021034800F03BF8012002490860EA
:100CB00010BD0000000003408400002010B510218A
:100CC000064800F045F8012806D11021034800F03D
:100CD00027F801200249086010BD00000080034091
:100CE0008800002002460B4B986A0B4B9A4205D1B4
:100CF00040F0807020F0FF00084308E0074B9A4264
:100D000005D140F0007020F47F4040EA0120014B03
:100D100098627047000002400000034000800340DA
:100D2000426C0A434264704721B1026B42F00102F7
:100D3000026304E0026B4FF6FE731A4002637047D1
:100D4000024693690B400BB1012000E00020704780
:100D50000246136C0B400BB1012000E000207047ED
:100D60002DE9F04F87B004460D4601A8FFF75CFD62
:100D7000019F2448866A2448844206D106F0070170
:100D800001208840B7FBF0F708E02048844205D1F5
:100D9000C6F3022101208840B7FBF0F728688008DD
:100DA000B7FBF0F94FEA991809F03F0AB8000AEBCF
:100DB0008811B0FBF1FB2868ABEB0000C00129688B
:100DC000B0FBF1F006900698022803D9002007B086
:100DD000BDE8F08FC4F82480C4F828A0E66AA8888B
:100DE000E988084329890843698908430643E6627C
:100DF000266B4FF680708643A88906432663012040
:100E0000E5E70000000002400000034000800340CE
:100E1000CAB202607047704710B500201449C8700C
:100E2000087148718871C8710220087203204872E5
:100E30000120887200208870402008800D48FFF74C
:100E4000CDFB01200A498870202008800948FFF75F
:100E5000C5FB8020064908800120887000200872A8
:100E600001208872022048720248FFF7B7FB10BDCC
:100E70001449002000000B4010B5044680210948A9
:100E8000FFF7A2FC21460848FFF7C2FF00BF802100
:100E90000548FFF755FF0128F9D180210148FFF7E8
:100EA00085FC10BD00000B400000034010B5002180
:100EB0000120FFF799FC01214020FFF741FE0021AE
:100EC0000B48FFF70FFF42F6E0600A490860602018
:100ED00088800020C880088148814FF44070888154
:100EE0000348FFF73DFF01210148FFF71DFF10BD3B
:100EF0000000034020490020FFF78EFFFFF7D6FFD8
:100F000009E000BF80210448FFF71AFF0128F9D14A
:100F10006620FFF7B1FFF4E70000034000BFFEE7E3
:100F20007047C820FFF7D1FA0120FFF7D1FD00BFBD
:100F3000FFF7ECFD0128FBD101214005FFF700FE82
:100F400001218805FFF7FCFD0121C805FFF7F8FD29
:100F500001210806FFF7F4FD01214806FFF7F0FD27
:100F600001214807FFF7ECFD01218807FFF7E8FDA5
:100F700001214804FFF7E4FD0121C803FFF7E0FD6C
:100F8000FFF7E8FA0220FFF755F90320FFF7B6F95B
:100F90000120FFF741F90120FFF7A2F91C20FFF71C
:100FA00012FB1D20FFF70FFB1E20FFF70CFB1F207D
:100FB000FFF709FBFFF7A0FFD80F00080000002093
:100FC000AC000000FC00000884100008AC00002009
:100FD0002C4F000018010008000000001F00000056
:100FE000FDFFFFFF00000000000000000A000000FD
:100FF0000000000020000000000000000000204071
:101000006666663FCDCCCC3D0000000000000000CD
:1010100000000000000000000000000000000000D0
:1010200000000000000000000000000000000000C0
:1010300000000000000000000000000000000000B0
:1010400000000000000000000000000000000000A0
:101050000000000000000000000000000000000090
:101060000000000000000000000000000000000080
:101070000000000000000000000000000000000070
:0410800000127A00E0
:040000050800015D91
:00000001FF
