:020000042000DA
:10000000A84C00205D010020190D0020FF0B0020EE
:10001000050C002041060020091A00200000000005
:100020000000000000000000000000005D1500203E
:100030009F07002000000000D70F0020711600204D
:10004000450600204706002023190020000000007C
:10005000000000009D070020A5170020C117002008
:100060005915002000000000030C0020D50F0020CF
:100070000D1A0020000000006117002081170020E9
:10008000A1170020FD040020000000004906002008
:100090005B150020000000000000000000000000D0
:1000A00000000000000000000000000071050020BA
:1000B000E5070020DD080020D5090020CD0A00203A
:1000C00000F002F800F03AF80AA090E8000C824430
:1000D0008344AAF10107DA4501D100F02FF8AFF20D
:1000E000090EBAE80F0013F0010F18BFFB1A43F016
:1000F00001031847941D0000B41D0000103A24BFEE
:1001000078C878C1FAD8520724BF30C830C144BF7C
:1001100004680C60704700000023002400250026BE
:10012000103A28BF78C1FBD8520728BF30C148BF5A
:100130000B6070471FB51FBD10B510BD00F08AF8E9
:100140001146FFF7F7FF01F08FFC00F0A8F803B4A9
:10015000FFF7F2FF03BC00F0AFF80000094880474A
:1001600009480047FEE7FEE7FEE7FEE7FEE7FEE799
:10017000FEE7FEE7FEE7FEE704480549054A064BB1
:100180007047000009170020C1000020A846002089
:10019000A84C0020A8480020A848002010B5203A0C
:1001A000C0F00B80B1E81850203AA0E81850B1E830
:1001B0001850A0E81850BFF4F5AF5FEA027C24BFE6
:1001C000B1E81850A0E8185044BF18C918C0BDE8DD
:1001D00010405FEA827C24BF51F8043B40F8043BA6
:1001E00008BF7047D20728BF31F8023B48BF11F85B
:1001F000012B28BF20F8023B48BF00F8012B7047B5
:100200004FF0000200B5134694469646203922BFAF
:10021000A0E80C50A0E80C50B1F12001BFF4F7AFFA
:10022000090728BFA0E80C5048BF0CC05DF804EBDC
:10023000890028BF40F8042B08BF704748BF20F84A
:10024000022B11F0804F18BF00F8012B7047704748
:1002500070477047754600F02BF8AE4605006946BA
:10026000534620F00700854618B020B5FFF784FFFD
:10027000BDE820404FF000064FF000074FF00008A7
:100280004FF0000B21F00701AC46ACE8C009ACE828
:10029000C009ACE8C009ACE8C0098D46704710B58C
:1002A0000446AFF300802046BDE81040FFF74FBF83
:1002B000004870474846002001491820ABBEFEE7C1
:1002C00026000200704700000146054A106811B17F
:1002D00040F0010001E020F00100014A1060704789
:1002E0000080084010B50446134800F029F90020AA
:1002F00011494860084600F003F9104800F029F958
:1003000000200E490860486088600846C4600020EC
:10031000086148614FF4006008834FF4106048831F
:100320000020C86108624FF4405048620020886293
:10033000084600F00BF810BD004600201C460020C7
:1003400001488069704700000080084010B5144BD8
:100350001A68144B1A40D0E90034234484682344BB
:10036000C46803EB041344692344C4692344446A06
:10037000234490F8284003EB44631A44084B59681F
:1003800021F40031038C01EB4341054B1A605960A5
:10039000038B034C2361438BA3600369A36210BDED
:1003A000008008400300FFF10348006840F00200AD
:1003B0000149086070470000008008400146054A76
:1003C000506811B140F0010001E020F00100014A45
:1003D000506070470080084010B50446134800F094
:1003E000AFF8002011494860084600F089F810482D
:1003F00000F0AFF800200E490860486088600846A9
:10040000C4600020086148614FF4006008834FF425
:10041000106048830020C86108624FF44050486271
:1004200000208862084600F00BF810BD004600204E
:100430001C4600200148C069704700000080084049
:10044000114A5168114A1140D0E900231A448368C7
:100450001A44C36802EB031243691A44C3691A447D
:10046000038C02EB8342436A1A4490F8283002EB73
:1004700043621144044A5160028B034B5A61428B20
:10048000DA600269DA627047008008400300FBF11D
:100490000348406840F0020001494860704700008E
:1004A00000800840002009490860486088600861B1
:1004B00008468069002008628862C8604861084672
:1004C000C06900204862C862704700000080084090
:1004D00000B5034600F008F8184008B9002200E013
:1004E0000122104600BD00000348006A0249496A23
:1004F00000EB01407047000000800840704700009A
:1005000010B50479836803EB0473C4682344046959
:10051000234444691919048B036803EB44531944B9
:10052000044A054B1A43054B1B6893430B44034C89
:10053000236010BD00001EF00000E10100800840B3
:100540000021016041608160C160016141618161A0
:1005500070470021016041608160C16001614161BB
:1005600001834183C1610162416281627047000081
:1005700010B5022000F01CF8012804D107480068DB
:10058000401C06490860042000F012F80448006D81
:1005900040F006000249086510BD00002040002020
:1005A00000800D4001490860704700009007B0438B
:1005B0000146044A126D0A400AB1012000E0002001
:1005C0007047000000800D4029B1064A126D0243B9
:1005D000044B1A6504E0034A126D8243014B1A650D
:1005E0007047000000800D4001490860704700001E
:1005F000FC07B0430149C8647047000000800D400B
:10060000014908647047000000800D40014988647A
:100610007047000000800D4000BF024800680028BD
:10062000FBD17047180AB043044AD26B22F00C0188
:1006300000F00C021143014AD163704700800D4065
:1006400000BFFEE7704770477047000010B50446D2
:100650006E2C24D008DC612C29D0622C1BD0662C97
:1006600044D06D2C0DD11EE0732C55D0742C04D0C9
:10067000762C0CD07A2C78D104E081213C4800F013
:10068000CDFF72E010213B4800F0C8FF6DE0012073
:100690003949086069E002203749086065E00320B5
:1006A0003549086061E00420334908605DE0CC20F2
:1006B0003249087055204870052088700120C870A4
:1006C00080222F492F48FFF769FD81212D4800F036
:1006D000A5FF80212A48FFF793FD2948274909688B
:1006E000016029480068264948603EE08022274989
:1006F0002748FFF753FD8121254800F08FFF802117
:100700002248FFF77DFD21481C49096801601E4809
:1007100000681E49486028E0CC2018490870552020
:10072000487001208870C87008468078401E194AB9
:1007300002EBC01180221848FFF730FD81211648D6
:1007400000F06CFF0D488078401E124901EBC0108C
:100750000A49096801600C48016808488078401E11
:100760000C4A02EBC010416000BF00BF10BD00008A
:1007700094400020184100203440002030400020E8
:10078000D844002058450020204000205841002037
:10079000D84100205842002058440020704770473C
:1007A0000748006840F08070054908600548006807
:1007B00040F00100034908600020486070470000D5
:1007C000FCED00E0001000E001B54FF4FA51009894
:1007D0004843009002E00098401E009000980028D6
:1007E000F9D108BD70B5002400253548806E401C45
:1007F000334988661C2000F091FA0121314800F04D
:10080000C5FB30B14FF480542D488068401C2C4902
:10081000886002212B4800F0B9FB30B144F4005449
:100820002748C068401C2649C8600421254800F0BC
:10083000ADFB30B14FF4104521480069401C204900
:10084000086108211F4800F0A1FB30B145F40055B4
:100850001B484069401C1A4948614CB145B144F4F9
:10086000804445F4804516488069401C14498861DD
:100870001548408815490968084314490860144818
:100880000068012800D070BD12480480124805801D
:100890001048008838B1FFF787FD0C48006840F029
:1008A00004000A4908600C48008838B1FFF7F0FDE1
:1008B0000648006840F008000449086000BFE2E70D
:1008C0005841002000800B40D84500200040002007
:1008D00034400020384000203A40002070B5002409
:1008E00000253548C06E401C3349C8661D2000F005
:1008F00015FA0121314800F049FB30B14FF4805422
:100900002D48C069401C2C49C86102212B4800F0C9
:100910003DFB30B144F400542748006A401C26498E
:1009200008620421254800F031FB30B14FF4104536
:100930002148406A401C2049486208211F4800F0B5
:1009400025FB30B145F400551B48806A401C1A490C
:1009500088624CB145B144F4804445F48045164862
:10096000C06A401C1449C862154880881549096846
:1009700008431449086014480068022800D070BD7C
:1009800012480480124805801048008838B1FFF7EB
:100990000BFD0C48006840F004000A4908600C4850
:1009A000008838B1FFF774FD0648006840F0080081
:1009B0000449086000BFE2E75841002000800B4076
:1009C000D84500200040002034400020384000205E
:1009D0003A40002070B5002400253548006F401CC7
:1009E000334908671E2000F099F90121314800F0D1
:1009F000CDFA30B14FF480542D48006B401C2C4987
:100A0000086302212B4800F0C1FA30B144F40054CD
:100A10002748406B401C264948630421254800F0C4
:100A2000B5FA30B14FF410452148806B401C204985
:100A3000886308211F4800F0A9FA30B145F4005539
:100A40001B48C06B401C1A49C8634CB145B144F403
:100A5000804445F480451648006C401C14490864E5
:100A60001548C088154909680843144908601448A6
:100A70000068032800D070BD124804801248058029
:100A80001048008838B1FFF78FFC0C48006840F030
:100A900004000A4908600C48008838B1FFF7F8FCE8
:100AA0000648006840F008000449086000BFE2E71B
:100AB0005841002000800B40D84500200040002015
:100AC00034400020384000203A40002070B5002417
:100AD00000253548406F401C334948671F2000F00F
:100AE0001DF90121314800F051FA30B14FF4805422
:100AF0002D48406C401C2C49486402212B4800F0D2
:100B000045FA30B144F400542748806C401C264913
:100B100088640421254800F039FA30B14FF41045BB
:100B20002148C06C401C2049C86408211F4800F0BF
:100B30002DFA30B145F400551B48006D401C1A4990
:100B400008654CB145B144F4804445F480451648ED
:100B5000406D401C1449486515484088154909688E
:100B600008431449086014480068042800D070BD88
:100B700012480480124805801048008838B1FFF7F9
:100B800013FC0C48006840F004000A4908600C4857
:100B9000008838B1FFF77CFC0648006840F0080088
:100BA0000449086000BFE2E75841002000800B4084
:100BB000D84500200040002034400020384000206C
:100BC0003A40002010B50446012C06D0022C08D073
:100BD000032C0AD0042C10D10BE01C2000F0AAF842
:100BE0000BE01D2000F0A6F807E01E2000F0A2F8A0
:100BF00003E01F2000F09EF800BF00BF10BD00BF43
:100C0000FEE7704700BFFEE710B500203D49C87001
:100C10000120087100204871012088710020C871EE
:100C20004FF40060088000208870022008720120C4
:100C300088724872344800F0C5F800203149C87005
:100C40000120087100204871012088710020C871BE
:100C50004FF4805008800020887002200872012024
:100C6000887203204872294800F0ACF8002025491A
:100C7000C87001200871002048710120887100208F
:100C8000C8714FF40050088000208870022008725C
:100C900001208872032048721C4800F093F800205D
:100CA0001849C870087148718871C8710820088097
:100CB00001208870164800F085F83C201149088012
:100CC000002088708872134800F07CF800200D49DD
:100CD000C870087148718871C871022008720320B9
:100CE0004872012088724FF46040088001208870AB
:100CF000002008720120887203204872024800F028
:100D000061F810BDE245002000000B4000800B4060
:100D100000800C4000000C407047000000F01F02F3
:100D200001219140024A430942F823107047000014
:100D300080E100E000F01F02012191404209920091
:100D400002F1E022C2F800117047000010B58021C6
:100D5000164800F077FD012800D010BD1448006847
:100D60001449096888420ED21148006801780F487A
:100D700000F0D4FD0E480068401C0D4908600020BA
:100D80000D4908800FE00821084800F05BFD0128AC
:100D900009D08021094800F001F90948006820F4D1
:100DA00080500749086000BFD7E7000000000340FB
:100DB00014400020184000201C40002000000B4080
:100DC000004000202DE9FE4F4768D0F808C0D0F859
:100DD0000C80D0F81090D0F814A0CDF808A0D0F86E
:100DE00018A0CDF804A0D0F81CA0CDF800A00022D7
:100DF000012303254FF001160C885FE004F0010A7F
:100E0000BAF1000F55D027EA030A91F802B00BFAA5
:100E100002FB4AEA0B0791F808A04FEA420B0AFAD4
:100E20000BFA2CEA050B4AEA0B0C28EA030A91F8A4
:100E30000AB00BFA02FB4AEA0B0829EA060A91F803
:100E400003B002F1100E0BFA0EFB4AEA0B0A91F8FE
:100E500004B00BFA02FB4AEA0B09DDF808A02AEA03
:100E6000060A91F805B00BFA0EFB4AEA0B0A91F854
:100E700006B00BFA02FB4AEA0B0ACDF808A091F87B
:100E800009A04FEA420B0AFA0BFADDF804B02BEA8C
:100E9000050B4AEA0B0ACDF804A0DDF800A02AEA07
:100EA000030A91F807B00BFA02FB4AEA0B0ACDF8E5
:100EB00000A05B00AD007600521C6408002C9DD1A0
:100EC000DFF8C4A0504502D14FF01F0A01E04FF0F7
:100ED000000A27EA0A0AC0F804A0DFF8ACA05045CF
:100EE00002D14FF01F0A01E04FF0000A2CEA0A0A73
:100EF000C0F808A0DFF890A0504502D14FF01F0ABB
:100F000001E04FF0000A28EA0A0AC0F80CA0DFF856
:100F100078A0504502D14FF01F0A01E04FF0000ABF
:100F200029EA0A0AC0F810A0DFF85CA0504502D1F7
:100F30004FF01F0B01E04FF0000BDDF808A02AEA8C
:100F40000B0AC0F814A0DFF840A0504502D14FF0C2
:100F50001F0B01E04FF0000BDDF804A02AEA0B0A9A
:100F6000C0F818A0DFF820A0504502D14FF01F0BA9
:100F700001E04FF0000BDDF800A02AEA0B0AC0F8F0
:100F80001CA0BDE8FE8F000000000B400246136865
:100F90000B400BB1012000E0002070470268054BB8
:100FA000984201D11F2300E000230B439A430260C3
:100FB0007047000000000B400268054B984201D1C9
:100FC0001F2300E000239A430A4302607047000099
:100FD00000000B407047704710B50146184A126870
:100FE0001D2A06DD174A126842F48032154B1A603A
:100FF00010BD00200843144A1268B2B100046FF318
:101000000F00124A0E4B1B6852F8232002430F4B6D
:101010000B4C246843F82420094A1268521C084BE0
:101020001A600022084B1A6007E0084A044B1B684C
:1010300042F823000122044B1A6000BFD8E70000E9
:1010400028400020004000202C400020E0440020E8
:1010500010B502460E4B1B681D2B06DD0D4B1B68A1
:1010600043F480330B4C236010BD00200843000480
:101070006FF30F001043084B054C246843F824001D
:10108000034B1B685B1C024C236000BFECE70000B5
:101090002840002000400020E04400200149086072
:1010A000704700008800404210B502460C4BD868DB
:1010B00020F003001043D860586820F4706040EAC4
:1010C00001205860074B1B6843B10123054C241DC8
:1010D00023600023034C883CC4F88C3010BD000012
:1010E000000002408800404238B50020009000BF58
:1010F000212000F075F905460098401C00900098EA
:10110000B0F5C06F01D2002DF2D0212000F068F9B7
:1011100008B1012400E00024204638BD01490860E0
:1011200070470000880140420146034AD06820F41D
:1011300040700843D06070470000024000B500F0E6
:10114000E1F90121C80600F0C7F90648C06B40F478
:1011500081000449C8630846C06B00F48100C8637D
:1011600000BD000000800D402DE9FC4F0146DFF876
:1011700064B2DBF80CB00BF0020BBBF1000F01D036
:10118000954B00E0954BDFF84CB2DBF80CB00BF060
:10119000010BBBF1000F00D05B081C46DFF834B236
:1011A000DBF80CB00BF0040BBBF1000F0DD0DFF837
:1011B00024B2DBF804B0CBF3032B0BF1010BCDF819
:1011C00000B0DDF800B004FB0BF4DFF808B2DBF888
:1011D0000CB0CBF3012BBBF1000F06D0BBF1010F1C
:1011E00008D0BBF1020F28D122E0DFF8F0B1C1F83E
:1011F00000B027E0DFF8DCB1DBF80CB04FF0080EF0
:101200000EEA1B1BBBF1000F01D1A0460DE0DFF879
:10121000C4B1DBF80CB0CBF3021B0BF1010B4FF0A8
:10122000010E0EFA0BFEB4FBFEF8C1F8008009E0D7
:101230004FF4004BC1F800B004E049F6404BC1F850
:1012400000B000BF00BFDFF88CB1DBF810B00BF0CE
:10125000020BBBF1000F01D05F4D00E05F4DDFF8E6
:1012600074B1DBF810B00BF0010BBBF1000F00D034
:101270006D082F46DFF85CB1DBF810B00BF0040B03
:10128000BBF1000F0DD0DFF84CB1DBF804B0CBF3AD
:10129000031B0BF1010BCDF800B0DDF800B007FB2C
:1012A0000BF7B946DFF82CB1DBF810B00BF0100BE0
:1012B000BBF1000F01D04FEA5909C1F80490DFF8E3
:1012C00014B1DBF818B04FEA1B1000F0080BBBF1AB
:1012D000000F02D1DFF804C10BE000F0070B0BF1A7
:1012E000010B4FF0010E0EFA0BF0DFF8F0B0BBFB74
:1012F000F0FCC1F80CC0DFF8DCB0DBF8180000F03F
:10130000080BBBF1000F04D1DFF8CCB0CDF804B06E
:101310000DE000F0070B0BF1010B4FF0010E0EFA80
:101320000BF0DFF8B4B0BBFBF0FBCDF804B0DDF898
:1013300004B0C1F810B0DFF89CB0DBF814B00BF0CB
:10134000030BBBF1000F06D0BBF1010F05D0BBF1C1
:10135000020F06D103E01E4605E02E4603E02646B6
:1013600001E03E4600BF00BFDFF868B0DBF814B014
:10137000CBF3011BBBF1000F06D0BBF1010F06D070
:10138000BBF1020F08D105E04FF4004206E049F638
:10139000404203E0324601E0624600BF00BFDFF892
:1013A00034B0DBF814B04FEA1B2000F0080BBBF19F
:1013B000000F01D1924609E000F0070B0BF1010B81
:1013C0004FF0010E0EFA0BF0B2FBF0FAC1F808A0D4
:1013D000BDE8FC8F000002400024F40000127A00F7
:1013E00010B5014601F0E003202B02D1074B1A682B
:1013F00001E0074BDA6B01F01F040123A340134007
:101400000BB1012000E0002010BD000000000240F0
:1014100000800D400146034A906920F00F00084308
:1014200090617047000002400D49896821F0030176
:101430000B4A9160012802D002280ED106E008492B
:10144000896841F00101064A916007E00449896812
:1014500041F00301024A916000E000BF00BF704705
:101460000000024038B50020009000BF2220FFF7A6
:10147000B7FF05460098401C00900098B0F5C06F7B
:1014800001D2002DF2D02220FFF7AAFF08B10124DB
:1014900000E00024204638BD014908607047000084
:1014A000D807B04338B50020009000BF1720FFF7E1
:1014B00097FF05460098401C00900098B0F5C06F5B
:1014C00001D2002DF2D01720FFF78AFF08B10124C6
:1014D00000E00024204638BD29B1064AD269024303
:1014E000044BDA6104E0034AD2698243014BDA61BA
:1014F000704700000000024001490860704700008A
:101500002003404200B50120FFF7C6FFFFF7CAFFE6
:101510000020FFF709FE0E48C06800200C49C86093
:1015200008464068002048600846806800208860BF
:1015300008460069002008610846406900204861AB
:1015400008468069002088610248C86100BD00002B
:10155000000002401000000870477047704710B547
:10156000FFF7ECFD0120FFF75FFF00BFFFF77AFFF9
:101570000128FBD104210220FFF796FD0120FFF78F
:101580008DFDFFF7B1FD012801D000BFFEE701206E
:10159000FFF7C4FD4FF48070FFF7C6FD10BD0000DB
:1015A00010B501214807FFF797FF0121C806FFF793
:1015B00093FF0120FFF718F80020FFF715F801202E
:1015C000FFF732FF00BFFFF74DFF0128FBD1FFF708
:1015D00093FF0B20FFF71EFF0C20FFF725F80121DA
:1015E0003820FEF7F1FF1B20FFF7A4FBFFF714F8EC
:1015F0000020FFF705F8FFF70FF80748FFF706F898
:10160000FFF70AF83C20FEF7F5FFFFF705F8012089
:10161000FEF7C8FF10BD000040420F0070B5044641
:101620000D460E480460006828440D49086080217A
:101630000C48FFF7C1FC0C48006840F480500A4990
:101640000860064800680178084800F067F9034818
:101650000068401C0149086070BD00001440002073
:101660001840002000000B40004000200000034014
:101670007047000030B5204CE46804F00204022CEE
:1016800001D11E4800E01E481B4CE46804F0010430
:1016900004B140080146184CE46804F00404042C2A
:1016A00005D1154C6468C4F30324631C5943124CE0
:1016B000E468C4F3012424B1012C06D0022C13D118
:1016C0000DE00F4C0F4D2C6013E00B4CE468C4F39D
:1016D0000314641CB1FBF4F20A4C226009E04FF4DD
:1016E0000044084D2C6004E049F64044054D2C6050
:1016F00000BF00BF30BD0000000002400024F40025
:1017000000127A009040002000B50D480D49C861D4
:101710000846C0680020C86008464068002048604D
:10172000084680680020886008460069002008613B
:101730000846406900204861FFF79CFF00BD00009B
:10174000100000080000024010B50246936D546D71
:101750001C4004EA01030BB9002000E0012010BD89
:1017600010B502210548FFF7EFFF012805D1034816
:10177000406D20F002000149486510BD000007409F
:101780000548406D00F0800020B104480068401C0E
:101790000249086070470000008007405C4000205C
:1017A000704700000449486804490968884202D02B
:1017B0000021014A5160704700000340884000202A
:1017C00010B51021064800F045F8012806D1102177
:1017D000034800F027F801200249086010BD00000E
:1017E000008003404440002002460B4B986A0B4B9C
:1017F0009A4205D140F0807020F0FF00084308E0D5
:10180000074B9A4205D140F0007020F47F4040EA37
:101810000120014B98627047000002400000034025
:1018200000800340426C0A434264704721B1026B5E
:1018300042F00102026304E0026B4FF6FE731A40AD
:1018400002637047024693690B400BB1012000E030
:10185000002070470246136C0B400BB1012000E0E2
:10186000002070472DE9F04F87B004460D4601A8CF
:10187000FFF77AFC019F2448866A2448844206D1F7
:1018800006F0070101208840B7FBF0F708E0204888
:10189000844205D1C6F3022101208840B7FBF0F74E
:1018A00028688008B7FBF0F94FEA991809F03F0A59
:1018B000B8000AEB8811B0FBF1FB2868ABEB000025
:1018C000C0012968B0FBF1F006900698022803D900
:1018D000002007B0BDE8F08FC4F82480C4F828A029
:1018E000E66AA888E9880843298908436989084382
:1018F0000643E662266B4FF680708643A88906434E
:1019000026630120E5E700000000024000000340DC
:10191000008003400146086880B27047CAB2026086
:101920007047704710B500201C49C8700871487195
:101930008871C871022008720320487201208872E1
:1019400000208870402008801548FFF73BFA0120EE
:1019500012498870202008801148FFF733FA802050
:101960000E490880012088700020087201208872CA
:10197000022048720A48FFF725FA4FF40040074951
:1019800008800120887000200872012088720220DF
:1019900048720348FFF716FA10BD0000E245002028
:1019A00000000B4010B501214020FFF795FD0021FC
:1019B0000C48FFF719FF4FF4E1300B490860602035
:1019C00088800020C8800881102048814FF4407032
:1019D00088810448FFF746FF01210248FFF726FFF0
:1019E00010BD000000000340F045002010B5FFF7D7
:1019F00099FFFFF7D7FF80210248FFF7CFFA0020B9
:101A000010BD000000000B4000BFFEE7704710B59E
:101A10000346C3F30B0140F6FF70814201D11D2044
:101A200010BD40F6FA70814201DD1C20F8E705295F
:101A300001DA0020F4E70C461A2208E001F4006005
:101A400000B106E04FF6FF7000EA4101921E0B2A3A
:101A5000F4DC00BF0B2A01DA201FE1E701F480600B
:101A600000B1521C0846DBE79EB04FF4C870FEF789
:101A7000ABFEFFF774FD01214805FFF72DFD0121A5
:101A80008805FFF729FD0121C805FFF725FD012184
:101A90000806FFF721FD01214806FFF71DFD012182
:101AA0004807FFF719FD01218807FFF715FD012100
:101AB0004804FFF711FDFFF7A7F8FFF771FD4FF49A
:101AC0000030DD490860FEF7EDFC0220FEF70AFC5D
:101AD0000320FEF781FC0120FEF7F6FB0120FEF754
:101AE0006DFC1D20FFF726F91F20FFF723F9FEF7F5
:101AF00057FEFFF77BFFCC20D04908705520487077
:101B0000002088700120C870CD48096801607822E3
:101B100069460830FEF742FB8121C948FFF77EFD88
:101B2000C848C649096801600020C6498870C6488F
:101B30000068486078226946C2480830FEF72EFBEC
:101B4000C248BE49096801600520C0498870BE4886
:101B500000684860002005E00022BC49083141F8D7
:101B60002020401C1E28F7DB0020B9490860B94935
:101B7000086000BF1CE0B84901EBC011AF4A126811
:101B80000A60411CB44A02EBC01291700021B24AB3
:101B900002EBC012516000BF07E00023AE4A02EB27
:101BA000C012083242F82130491C1E29F5DB401CC6
:101BB0000328E0DB0020A94908804FF480704880AA
:101BC000400088804000C880400008810020A4496F
:101BD00008602FE10124E3E0A2480068844213D0AA
:101BE0009E4830F814009E490968084000280AD031
:101BF0009A4830F814109A48006888439849086059
:101C00002046FEF7DFFFCAE09548007800F00400A8
:101C1000A8B30420FEF75CFC88B3FEF791FBC0F389
:101C20000B059148008828438F4908808548806DBE
:101C30004119844881652846FFF7E9FE0646864833
:101C4000083050F82600401C8349083141F826002E
:101C50008548008800F4804050B17A48006E4119F0
:101C600078480166814850F82610491C40F8261033
:101C70007B48006820F004007949086000BF78487C
:101C8000007800F00800A8B34FF48020FEF720FC95
:101C900080B3FEF7CFFBC0F30B05754800882843DF
:101CA000734908806748C06D41196648C165284678
:101CB000FFF7ADFE06466D48803850F82610491CE7
:101CC00040F826106A48008800F4804058B15D480A
:101CD000406E41195B4841666448803050F82610D8
:101CE000491C40F826105E48006820F008005C4956
:101CF000086000BF5A48006800F48030F0B15848CE
:101D0000008800F48050C8B9812250494C48FEF741
:101D100045FA81214A48FFF781FC4C484749096848
:101D20000160494800684949486000204849086006
:101D30004B48006820F480304949086048480078E2
:101D400000F00C0058BB454830F8140044490968BD
:101D5000084020B3414830F81410414800688843D7
:101D60003F4908604048008800F4804030B1404856
:101D700001883D480088FFF76BF90DE03A4800887C
:101D800018B139480088FFF727F93948008818B199
:101D900037480088FFF720F92046FEF713FF641C40
:101DA000052CFFF619AF33480068274909688842B7
:101DB00020D0254800682F490860234800680A2180
:101DC000B0FBF1F201FB1200A0B980221D492A48A4
:101DD000FEF7E4F981211A48FFF720FC8021194819
:101DE000FEF70EFA174815490968016016480068A1
:101DF000144948602148806900F0100070B91F48FC
:101E0000FFF788FD1E49088001201E4908601C4913
:101E10000878FEF71BFC0020194908801748FFF7D7
:101E200079FD174908800E48008800F4805008B1F9
:101E3000FEF78CFFCEE6000000E100E0304000201D
:101E4000944000205841002020400020D844002029
:101E5000284000202C40002058420020D845002077
:101E60000040002034400020384000206043002023
:101E70003A40002024400020D841002000000340C8
:101E80007840002040400020A81E00200040002094
:101E900094000000FC0000203C1F00209440002023
:101EA000140C0000180100200000000000000000D9
:101EB0000000000000000000000000000000000022
:101EC00000000000640000000000000000000000AE
:101ED0000000000000000000000000000100000001
:101EE00000000000000000000000000000000000F2
:101EF00000000000000000000000000000000000E2
:101F000000000000000000000000000000000000D1
:101F100000000000000000000000000000000000C1
:101F200000000000000000000000000000000000B1
:0C1F3000000000000000000000127A0019
:04000005200000C116
:00000001FF
