:020000042000DA
:10000000085800207D010020E50C0020CB0B0020CB
:10001000D10B0020A1060020A51A0020000000003E
:100020000000000000000000000000002515002076
:10003000FB06002000000000970F0020391600206A
:10004000A5060020A7060020AF1900200000000030
:1000500000000000F90600206D170020391800206C
:100060002115002000000000CF0B0020950F00207C
:10007000A91A0020000000002917002049170020BD
:10008000691700200105002000000000A9060020DB
:100090002315002000000000000000000000000008
:1000A000000000000000000000000000D10500205A
:1000B0004107002055080020690900207D0A002022
:1000C00000F002F800F04AF80AA090E8000C824420
:1000D0008344AAF10107DA4501D100F03FF8AFF2FD
:1000E000090EBAE80F0013F0010F18BFFB1A43F016
:1000F000010318474C1F00006C1F00000A4410F851
:10010000014B14F00F0508BF10F8015B240908BF6C
:1001100010F8014B6D1E05D010F8013B6D1E01F863
:10012000013BF9D1641E03D0641E01F8015BFBD1D1
:100130009142E4D3704700000023002400250026EC
:10014000103A28BF78C1FBD8520728BF30C148BF3A
:100150000B6070471FB51FBD10B510BD00F063F8F0
:100160001146FFF7F7FF01F0CDFC00F081F803B472
:10017000FFF7F2FF03BC00F089F800000948804750
:1001800009480047FEE7FEE7FEE7FEE7FEE7FEE779
:10019000FEE7FEE7FEE7FEE704480549054A064B91
:1001A00070470000D1160020C10000200852002036
:1001B00008580020085400200854002010B5203AA8
:1001C000C0F00B80B1E81850203AA0E81850B1E810
:1001D0001850A0E81850BFF4F5AF5FEA027C24BFC6
:1001E000B1E81850A0E8185044BF18C918C0BDE8BD
:1001F00010405FEA827C24BF51F8043B40F8043B86
:1002000008BF7047D20728BF31F8023B48BF11F83A
:10021000012B28BF20F8023B48BF00F8012B704794
:10022000704770477047754600F02CF8AE460500E1
:100230006946534620F00700854618B020B5FFF701
:10024000ABFFBDE820404FF000064FF000074FF035
:1002500000084FF0000B21F00701AC46ACE8C009E4
:10026000ACE8C009ACE8C009ACE8C0098D467047ED
:1002700010B50446AFF300802046BDE81040FFF7FC
:1002800076BF000000487047A451002001491820A3
:10029000ABBEFEE726000200704700000146054A9B
:1002A000106811B140F0010001E020F00100014AA6
:1002B000106070470080084010B50446134800F0F5
:1002C0006FF9002011494860084600F049F91048CC
:1002D00000F06FF900200E49086048608860084609
:1002E000C4600020086148614FF4006008834FF447
:1002F000106048830020C86108624FF44050486293
:1003000000208862084600F017F810BD5C510020FC
:10031000785100200146044A126A0A400AB90020B6
:1003200000E001207047000000800840014880691B
:10033000704700000080084010B5144B1A68144B39
:100340001A40D0E90034234484682344C46803EB92
:10035000041344692344C4692344446A234490F841
:10036000284003EB44631A44084B596821F40031D8
:10037000038C01EB4341054B1A605960038B034C1E
:100380002361438BA3600369A36210BD0080084012
:100390000300FFF10348006840F0020001490860D3
:1003A00070470000008008400146054A506811B1BE
:1003B00040F0010001E020F00100014A5060704768
:1003C0000080084010B50446134800F0E9F800200A
:1003D00011494860084600F0C3F8104800F0E9F8F9
:1003E00000200E490860486088600846C46000200C
:1003F000086148614FF4006008834FF4106048833F
:100400000020C86108624FF44050486200208862B2
:10041000084600F017F810BD5C510020785100200C
:100420000146044A526A0A400AB9002000E001204D
:1004300070470000008008400148C0697047000014
:1004400000800840114A5168114A1140D0E9002348
:100450001A4483681A44C36802EB031243691A44BE
:10046000C3691A44038C02EB8342436A1A4490F82E
:10047000283002EB43621144044A5160028B034B63
:100480005A61428BDA600269DA6270470080084084
:100490000300FBF10348406840F002000149486056
:1004A000704700000080084000200949086048604B
:1004B0008860086108468069002008628862C86018
:1004C00048610846C06900204862C8627047000061
:1004D0000080084000B5034600F008F8184008B94D
:1004E000002200E00122104600BD00000348006A1F
:1004F0000249496A00EB0140704700000080084053
:1005000010B50420FFF706FF012809D10F488069C4
:10051000C0F30B000E490860084600680D490860EA
:100520000420FFF77DFF01280AD10848C069C0F305
:100530000B0009490860084600680649C1F8000137
:100540004FF48041054800F009FD10BD00800840CF
:1005500050400020404B00205440002000000B4041
:1005600010B50479836803EB0473C46823440469F9
:10057000234444691919048B036803EB4453194459
:10058000044A054B1A43054B1B6893430B44034C29
:10059000236010BD00001EF00000E1010080084053
:1005A0000021016041608160C16001614161816140
:1005B00070470021016041608160C160016141615B
:1005C00001834183C1610162416281627047000021
:1005D00010B5022000F01CF8012804D1074800687B
:1005E000401C06490860042000F012F80448006D21
:1005F00040F006000249086510BD000028400020B8
:1006000000800D4001490860704700009007B0432A
:100610000146044A126D0A400AB1012000E00020A0
:100620007047000000800D4029B1064A126D024358
:10063000044B1A6504E0034A126D8243014B1A65AC
:100640007047000000800D400149086070470000BD
:10065000FC07B0430149C8647047000000800D40AA
:10066000014908647047000000800D40014988641A
:100670007047000000800D4000BF0248006800285D
:10068000FBD17047180AB043044AD26B22F00C0128
:1006900000F00C021143014AD163704700800D4005
:1006A00000BFFEE7704770477047000010B5044672
:1006B000492C0BD06B2C0DD0742C02D07A2C13D17A
:1006C0000DE08121094800F08DFF0DE01F2000F0B2
:1006D00017FB09E04021064800F084FF04E01021E8
:1006E000044800F07FFF00BF00BF10BD984100200C
:1006F000304100201C4200207047704707480068C6
:1007000040F08070054908600548006840F001002D
:10071000034908600020486070470000FCED00E0DD
:10072000001000E001B54FF4FA51009848430090E2
:1007300002E00098401E009000980028F9D108BD02
:1007400070B5002400253C48D0F8E400401C3A492C
:10075000C1F8E4001C2000F0C7FA0121374800F07E
:10076000F5FB40B14FF480543348D0F88400401C6E
:100770003149C1F884000221304800F0E7FB40B164
:1007800044F400542C48D0F88800401C2A49C1F891
:1007900088000421294800F0D9FB40B14FF41045EE
:1007A0002548D0F88C00401C2349C1F88C00082152
:1007B000224800F0CBFB40B145F400551E48D0F86C
:1007C0009000401C1C49C1F890005CB155B144F444
:1007D000804445F480451848D0F89400401C1649E0
:1007E000C1F89400164840881649098808431549FD
:1007F000088015480068012800D070BD13480480A7
:10080000134805801148008848B1FFF7C3FD0D4823
:10081000008840F004000B4908800C4804800C4814
:10082000008838B1FFF736FE0648008840F008001F
:100830000449088000BFE0E75C42002000800B40D4
:10084000EC45002000400020384000203C400020C3
:100850003E40002070B5002400253C48D0F8E80058
:10086000401C3A49C1F8E8001D2000F03DFA012182
:10087000374800F06BFB40B14FF480543348D0F858
:100880009800401C3149C1F898000221304800F01E
:100890005DFB40B144F400542C48D0F89C00401C4F
:1008A0002A49C1F89C000421294800F04FFB40B1BF
:1008B0004FF410452548D0F8A000401C2349C1F84A
:1008C000A0000821224800F041FB40B145F400554A
:1008D0001E48D0F8A400401C1C49C1F8A4005CB11B
:1008E00055B144F4804445F480451848D0F8A80038
:1008F000401C1649C1F8A8001648408816490988C6
:1009000008431549088015480068022800D070BDCA
:1009100013480480134805801148008848B1FFF748
:1009200039FD0D48008840F004000B4908800C4850
:1009300004800C48008838B1FFF7ACFD06480088F9
:1009400040F008000449088000BFE0E75C42002056
:1009500000800B40EC450020004000203840002083
:100960003C4000203E40002070B5002400253C485B
:10097000D0F8EC00401C3A49C1F8EC001E2000F011
:10098000B3F90121374800F0E1FA40B14FF4805447
:100990003348D0F8AC00401C3149C1F8AC0002210A
:1009A000304800F0D3FA40B144F400542C48D0F859
:1009B000B000401C2A49C1F8B0000421294800F0C9
:1009C000C5FA40B14FF410452548D0F8B400401C9A
:1009D0002349C1F8B4000821224800F0B7FA40B119
:1009E00045F400551E48D0F8B800401C1C49C1F819
:1009F000B8005CB155B144F4804445F480451848D2
:100A0000D0F8BC00401C1649C1F8BC00164840880C
:100A100016490988084315490880154800680328C5
:100A200000D070BD13480480134805801148008829
:100A300048B1FFF7AFFC0D48008840F004000B49B7
:100A400008800C4804800C48008838B1FFF722FD6C
:100A50000648008840F008000449088000BFE0E72D
:100A60005C42002000800B40EC450020004000204C
:100A7000384000203C4000203E40002070B500245B
:100A800000253C48D0F8F000401C3A49C1F8F0007D
:100A90001F2000F029F90121374800F057FA40B132
:100AA0004FF480543348D0F8C000401C3149C1F89D
:100AB000C0000221304800F049FA40B144F400542B
:100AC0002C48D0F8C400401C2A49C1F8C4000421B5
:100AD000294800F03BFA40B14FF410452548D0F8C2
:100AE000C800401C2349C1F8C8000821224800F072
:100AF0002DFA40B145F400551E48D0F8CC00401CFA
:100B00001C49C1F8CC005CB155B144F4804445F4B3
:100B100080451848D0F8D000401C1649C1F8D000D4
:100B20001648408816490988084315490880154821
:100B30000068042800D070BD134804801348058065
:100B40001148008848B1FFF725FC0D48008840F0A7
:100B500004000B4908800C4804800C48008838B118
:100B6000FFF798FC0648008840F008000449088018
:100B700000BFE0E75C42002000800B40EC45002015
:100B800000400020384000203C4000203E40002033
:100B900010B50446012C06D0022C08D0032C0AD034
:100BA000042C10D10BE01C2000F0AAF80BE01D2053
:100BB00000F0A6F807E01E2000F0A2F803E01F20D6
:100BC00000F09EF800BF00BF10BD00BFFEE77047F9
:100BD00000BFFEE710B500203D49C8700120087134
:100BE00000204871012088710020C8714FF4006016
:100BF00008800020887002200872012088724872E4
:100C0000344800F0BFF800203149C8700120087155
:100C100000204871012088710020C8714FF4805075
:100C2000088000208870022008720120887203204A
:100C30004872294800F0A6F800202549C870012014
:100C4000087100204871012088710020C8714FF49C
:100C500000500880002088700220087201208872ED
:100C6000032048721C4800F08DF800201849C87015
:100C7000087148718871C871082008800120887047
:100C8000164800F07FF83C20114908800020887049
:100C90008872134800F076F800200D49C87008717A
:100CA00048718871C87102200872032048720120BF
:100CB00088724FF46040088001208870002008721C
:100CC0000120887203204872024800F05BF810BDD2
:100CD0004051002000000B4000800B4000800C4081
:100CE00000000C407047000000F01F0201219140FD
:100CF000024A430942F823107047000080E100E0F7
:100D000000F01F02012191404209920002F1E0220D
:100D1000C2F800117047000010B58021134800F0A0
:100D2000CDFD012800D010BD1148006811490968A7
:100D300088420ED20E48006801780C4800F034FE5C
:100D40000B480068401C0A49086000200A490880D6
:100D500009E08021094800F001F90948008820F4E1
:100D600080500749088000BFDDE700000000034015
:100D70001C400020204000202440002000000B40A8
:100D8000004000202DE9FE4F4768D0F808C0D0F899
:100D90000C80D0F81090D0F814A0CDF808A0D0F8AE
:100DA00018A0CDF804A0D0F81CA0CDF800A0002217
:100DB000012303254FF001160C885FE004F0010ABF
:100DC000BAF1000F55D027EA030A91F802B00BFAE6
:100DD00002FB4AEA0B0791F808A04FEA420B0AFA15
:100DE0000BFA2CEA050B4AEA0B0C28EA030A91F8E5
:100DF0000AB00BFA02FB4AEA0B0829EA060A91F844
:100E000003B002F1100E0BFA0EFB4AEA0B0A91F83E
:100E100004B00BFA02FB4AEA0B09DDF808A02AEA43
:100E2000060A91F805B00BFA0EFB4AEA0B0A91F894
:100E300006B00BFA02FB4AEA0B0ACDF808A091F8BB
:100E400009A04FEA420B0AFA0BFADDF804B02BEACC
:100E5000050B4AEA0B0ACDF804A0DDF800A02AEA47
:100E6000030A91F807B00BFA02FB4AEA0B0ACDF825
:100E700000A05B00AD007600521C6408002C9DD1E0
:100E8000DFF8C4A0504502D14FF01F0A01E04FF037
:100E9000000A27EA0A0AC0F804A0DFF8ACA050450F
:100EA00002D14FF01F0A01E04FF0000A2CEA0A0AB3
:100EB000C0F808A0DFF890A0504502D14FF01F0AFB
:100EC00001E04FF0000A28EA0A0AC0F80CA0DFF897
:100ED00078A0504502D14FF01F0A01E04FF0000A00
:100EE00029EA0A0AC0F810A0DFF85CA0504502D138
:100EF0004FF01F0B01E04FF0000BDDF808A02AEACD
:100F00000B0AC0F814A0DFF840A0504502D14FF002
:100F10001F0B01E04FF0000BDDF804A02AEA0B0ADA
:100F2000C0F818A0DFF820A0504502D14FF01F0BE9
:100F300001E04FF0000BDDF800A02AEA0B0AC0F830
:100F40001CA0BDE8FE8F000000000B4002461368A5
:100F50000B400BB1012000E0002070470268054BF8
:100F6000984201D11F2300E000230B439A43026003
:100F70007047000000000B400268054B984201D109
:100F80001F2300E000239A430A43026070470000D9
:100F900000000B407047704710B50146154A1268B3
:100FA0001D2A00DD10BD00200843134A1268B2B1AB
:100FB00000046FF30F00114A0E4B1B6852F82320F8
:100FC00002430E4B0B4C246843F82420094A126854
:100FD000521C084B1A600022074B1A6007E0074AB0
:100FE000044B1B6842F823000122034B1A6000BF28
:100FF000D8E70000184100201C4100207445002063
:1010000010B502460B4B1B681D2B00DD10BD0020E8
:10101000084300046FF30F001043074B054C24688E
:1010200043F82400034B1B685B1C024C236000BF89
:10103000ECE7000018410020744500200749084AE9
:10104000128841F8220006490988491C044A118087
:101050001146097801F00F011180704730410020DE
:101060001440002001490860704700008800404299
:1010700010B502460C4BD86820F003001043D8602E
:10108000586820F4706040EA01205860074B1B68E4
:1010900043B10123054C241D23600023034C883CED
:1010A000C4F88C3010BD00000000024088004042AF
:1010B00038B50020009000BF212000F075F90546EA
:1010C0000098401C00900098B0F5C06F01D2002D30
:1010D000F2D0212000F068F908B1012400E00024DA
:1010E000204638BD01490860704700008801404231
:1010F0000146034AD06820F440700843D06070472E
:101100000000024000B500F0E1F90121C80600F03E
:10111000C7F90648C06B40F481000449C86308461B
:10112000C06B00F48100C86300BD000000800D406A
:101130002DE9FC4F0146DFF864B2DBF80CB00BF090
:10114000020BBBF1000F01D0954B00E0954BDFF88F
:101150004CB2DBF80CB00BF0010BBBF1000F00D070
:101160005B081C46DFF834B2DBF80CB00BF0040B64
:10117000BBF1000F0DD0DFF824B2DBF804B0CBF3E5
:10118000032B0BF1010BCDF800B0DDF800B004FB30
:101190000BF4DFF808B2DBF80CB0CBF3012BBBF19A
:1011A000000F06D0BBF1010F08D0BBF1020F28D110
:1011B00022E0DFF8F0B1C1F800B027E0DFF8DCB1E1
:1011C000DBF80CB04FF0080E0EEA1B1BBBF1000F52
:1011D00001D1A0460DE0DFF8C4B1DBF80CB0CBF3D1
:1011E000021B0BF1010B4FF0010E0EFA0BFEB4FBCC
:1011F000FEF8C1F8008009E04FF4004BC1F800B0E0
:1012000004E049F6404BC1F800B000BF00BFDFF872
:101210008CB1DBF810B00BF0020BBBF1000F01D06A
:101220005F4D00E05F4DDFF874B1DBF810B00BF0FC
:10123000010BBBF1000F00D06D082F46DFF85CB149
:10124000DBF810B00BF0040BBBF1000F0DD0DFF892
:101250004CB1DBF804B0CBF3031B0BF1010BCDF861
:1012600000B0DDF800B007FB0BF7B946DFF82CB192
:10127000DBF810B00BF0100BBBF1000F01D04FEA00
:101280005909C1F80490DFF814B1DBF818B04FEA3F
:101290001B1000F0080BBBF1000F02D1DFF804C1F6
:1012A0000BE000F0070B0BF1010B4FF0010E0EFAF3
:1012B0000BF0DFF8F0B0BBFBF0FCC1F80CC0DFF8BE
:1012C000DCB0DBF8180000F0080BBBF1000F04D114
:1012D000DFF8CCB0CDF804B00DE000F0070B0BF157
:1012E000010B4FF0010E0EFA0BF0DFF8B4B0BBFBB0
:1012F000F0FBCDF804B0DDF804B0C1F810B0DFF8B1
:101300009CB0DBF814B00BF0030BBBF1000F06D060
:10131000BBF1010F05D0BBF1020F06D103E01E4661
:1013200005E02E4603E0264601E03E4600BF00BF32
:10133000DFF868B0DBF814B0CBF3011BBBF1000F92
:1013400006D0BBF1010F06D0BBF1020F08D105E0BA
:101350004FF4004206E049F6404203E0324601E025
:10136000624600BF00BFDFF834B0DBF814B04FEACC
:101370001B2000F0080BBBF1000F01D1924609E0E1
:1013800000F0070B0BF1010B4FF0010E0EFA0BF002
:10139000B2FBF0FAC1F808A0BDE8FC8F00000240E3
:1013A0000024F40000127A0010B5014601F0E003B9
:1013B000202B02D1074B1A6801E0074BDA6B01F0D2
:1013C0001F040123A34013400BB1012000E00020C3
:1013D00010BD00000000024000800D400146034A9D
:1013E000906920F00F0008439061704700000240B0
:1013F0000D49896821F003010B4A9160012802D050
:1014000002280ED106E00849896841F00101064A28
:10141000916007E00449896841F00301024A916044
:1014200000E000BF00BF70470000024038B5002058
:10143000009000BF2220FFF7B7FF05460098401C30
:1014400000900098B0F5C06F01D2002DF2D022209C
:10145000FFF7AAFF08B1012400E00024204638BDB0
:101460000149086070470000D807B04338B5002034
:10147000009000BF1720FFF797FF05460098401C1B
:1014800000900098B0F5C06F01D2002DF2D0172067
:10149000FFF78AFF08B1012400E00024204638BD90
:1014A00029B1064AD2690243044BDA6104E0034AD7
:1014B000D2698243014BDA617047000000000240AC
:1014C00001490860704700002003404200B5012038
:1014D000FFF7C6FFFFF7CAFF0020FFF709FE0E481F
:1014E000C06800200C49C860084640680020486079
:1014F000084680680020886008460069002008616E
:1015000008464069002048610846806900208861DB
:101510000248C86100BD0000000002401000000841
:1015200070477047704710B5FFF7ECFD0120FFF7DB
:101530005FFF00BFFFF77AFF0128FBD104210220E3
:10154000FFF796FD0120FFF78DFDFFF7B1FD0128A4
:1015500001D000BFFEE70120FFF7C4FD4FF480700B
:10156000FFF7C6FD10BD000010B501214807FFF7C9
:1015700097FF0121C806FFF793FF0120FFF764F8EA
:101580000020FFF761F80120FFF732FF00BFFFF7EF
:101590004DFF0128FBD1FFF793FF0B20FFF71EFF44
:1015A0000C20FFF771F801213820FFF73DF81B20D0
:1015B000FFF7A6FBFFF760F80020FFF751F8FFF7F1
:1015C0005BF80748FFF752F8FFF756F83C20FFF7A3
:1015D00041F8FFF751F80120FFF714F810BD0000A3
:1015E00040420F0070B504460D460E480460006886
:1015F00028440D49086080210C48FFF7BDFC0C48C9
:10160000008840F480500A49088006480068017844
:10161000084800F0C9F903480068401C0149086007
:1016200070BD00001C4000202040002000000B4046
:1016300000400020000003407047000030B5204CFF
:10164000E46804F00204022C01D11E4800E01E48A8
:101650001B4CE46804F0010404B140080146184C36
:10166000E46804F00404042C05D1154C6468C4F348
:101670000324631C5943124CE468C4F3012424B1CD
:10168000012C06D0022C13D10DE00F4C0F4D2C6015
:1016900013E00B4CE468C4F30314641CB1FBF4F2D4
:1016A0000A4C226009E04FF40044084D2C6004E02D
:1016B00049F64044054D2C6000BF00BF30BD00001E
:1016C000000002400024F40000127A002C410020A7
:1016D00000B50D480D49C8610846C0680020C860C3
:1016E00008464068002048600846806800208860FE
:1016F00008460069002008610846406900204861EA
:10170000FFF79CFF00BD0000100000080000024031
:1017100010B50246936D546D1C4004EA01030BB9E9
:10172000002000E0012010BD10B502210548FFF7A0
:10173000EFFF012805D10348406D20F00200014968
:10174000486510BD000007400548406D00F080006E
:1017500020B104480068401C02490860704700003E
:1017600000800740F04000207047000010B51021B5
:101770002D4800F0ABF801284CD110212A4800F088
:101780008DF8294800F00CF92849088001202849E3
:101790000860254800F004F924490880224800F038
:1017A000FFF822490880204800F0FAF81F49088015
:1017B0001D4800F0F5F81D4908801B4800F0F0F8BE
:1017C0001A490880184800F0EBF8184908801648B4
:1017D00000F0E6F815490880134800F0E1F81349D5
:1017E0000880114800F0DCF8104908800E4800F02D
:1017F000D7F80E4908800C4800F0D2F80B49088051
:10180000094800F0CDF809490880074800F0C8F8F9
:10181000064908800448446806480068844202D0AB
:1018200000200149486010BD000003400C41002029
:10183000D44000202441002010B51021064800F0BB
:1018400045F8012806D11021034800F027F80120AF
:101850000249086010BD000000800340D84000200D
:1018600002460B4B986A0B4B9A4205D140F08070B0
:1018700020F0FF00084308E0074B9A4205D140F0F2
:10188000007020F47F4040EA0120014B98627047CD
:10189000000002400000034000800340426C0A4305
:1018A0004264704721B1026B42F00102026304E01E
:1018B000026B4FF6FE731A4002637047024693694B
:1018C0000B400BB1012000E0002070470246136C72
:1018D0000B400BB1012000E0002070471AB1836B70
:1018E0000B43836302E0836B8B4383637047000089
:1018F0002DE9F04F87B004460D4601A8FFF718FC0C
:10190000019F2448866A2448844206D106F00701D4
:1019100001208840B7FBF0F708E02048844205D159
:10192000C6F3022101208840B7FBF0F72868800841
:10193000B7FBF0F94FEA991809F03F0AB8000AEB33
:101940008811B0FBF1FB2868ABEB0000C0012968EF
:10195000B0FBF1F006900698022803D9002007B0EA
:10196000BDE8F08FC4F82480C4F828A0E66AA888EF
:10197000E988084329890843698908430643E662E0
:10198000266B4FF680708643A889064326630120A4
:10199000E5E7000000000240000003400080034033
:1019A0000146086880B27047CAB20260704770474B
:1019B00010B500201C49C870087148718871C87141
:1019C000022008720320487201208872002088706B
:1019D000402008801548FFF7D5F90120124988708A
:1019E000202008801148FFF7CDF980200E4908809B
:1019F000012088700020087201208872022048723D
:101A00000A48FFF7BFF94FF400400749088001205A
:101A100088700020087201208872022048720348F2
:101A2000FFF7B0F910BD00004051002000000B404E
:101A300010B501214020FFF733FD00211048FFF7CA
:101A40000FFF4FF4E1300F490860602088800020CC
:101A5000C8800881102048814FF440708881084870
:101A6000FFF746FF0620FFF74BF90122102104483B
:101A7000FFF734FF01210248FFF714FF10BD0000FB
:101A8000000003404C51002010B5FFF791FFFFF715
:101A9000CFFF80210248FFF761FA002010BD00004F
:101AA00000000B4000BFFEE7704710B50346C3F3CC
:101AB0000B0140F6FF70814201D11D2010BD40F6A0
:101AC000FA70814201DD1C20F8E7052901DA0020C7
:101AD000F4E70C461A2208E001F4006000B106E0C9
:101AE0004FF6FF7000EA4101921E0B2AF4DC00BFA2
:101AF0000B2A01DA201FE1E701F4806000B1521CDB
:101B00000846DBE7BCB04FF4C870FEF70BFEFFF7EA
:101B10000AFD01214805FFF7C3FC01218805FFF7F5
:101B2000BFFC0121C805FFF7BBFC01210806FFF738
:101B3000B7FC01214806FFF7B3FC01214807FFF776
:101B4000AFFC01218807FFF7ABFC01214804FFF738
:101B5000A7FCFFF73FF8FFF707FD4FF40030FC4903
:101B60000860FEF7A1FC0220FEF7A6FB0320FEF7AB
:101B700029FC0120FEF792FB0120FEF715FC1D2039
:101B8000FFF7BEF81F20FFF7BBF8FEF7B7FDFFF722
:101B90007BFF0020EF490880EF49088000BF07E085
:101BA0000021EE4A42F82010ED4941F82000401C87
:101BB0001028F5DB684600F0FBF9CC20E9490870F5
:101BC00055204870002088700120C870E6480968D8
:101BD000016000BF1721096841607822694608301A
:101BE000FEF7ECFA8121E048FFF7FCFCDD48406895
:101BF000DE4948600020886000BF05E00022DB4924
:101C00000C3141F82020401C1E28F7DBD5484068E5
:101C1000D7494860052088700020886000BF05E033
:101C20000022D3490C3141F82020401C1E28F7DB4C
:101C300000BF002022E0CB49496800EB4012CD4BA9
:101C400003EB82025160411C00EB401203EB820265
:101C50009170002100EB401203EB8202916000BF03
:101C600009E0002300EB4012C24D05EB82020C326A
:101C700042F82130491C1E29F3DB401C0328DADB23
:101C80000020BD4908804FF4807048804000888063
:101C90004000C8804000088159E10125C6E0B748EE
:101CA0000068854213D0B44830F81500B44909885B
:101CB000084000280AD0B04830F81510B048008815
:101CC0008843AF4908802846FEF762FFADE0AC4884
:101CD000007800F00400C8B30420FEF7FBFBA8B3B3
:101CE000FEF724FBC0F30B04A64800882043A54957
:101CF00008809E48D0F8D40001199C48C0F8D41040
:101D00002046FFF7D2FE06469A480C3050F82600CF
:101D1000401C98490C3141F826009A48008800F48C
:101D2000804060B19148D0F8DC0001198F48C0F8BC
:101D3000DC10954850F82610491C40F826109048B1
:101D4000008820F004008E49088000BF8C4800788D
:101D500000F00800C0B34FF48020FEF7BBFB98B33F
:101D6000FEF76AFBC0F30B048848008820438749CC
:101D700008807E48D0F8D80001197C48C0F8D810F7
:101D80002046FFF792FE06467F48843850F826101A
:101D9000491C40F826107D48008800F4804060B15E
:101DA0007248D0F8E00001197048C0F8E010764899
:101DB00050F82610491C40F826107148008820F081
:101DC00008006F49088000BF6D48007800F00C00E3
:101DD00058BB694830F8150069490988084020B3A4
:101DE000654830F8151066480088884364490880C3
:101DF0006448008800F4804030B16448018861483C
:101E00000088FFF7FDF80DE05E48008818B15D48D6
:101E10000088FFF7C1F85D48008818B15B4800886A
:101E2000FFF7BAF82846FEF7B3FE6D1C052DFFF646
:101E300036AF5348007800F0040010B30420FEF7DA
:101E400049FB78B1FEF772FA0446C4F30B0050491F
:101E5000096808434E4908604948008820F004009A
:101E6000474908804648007800F00C0048B94848C7
:101E70000068FFF7E3F84248008820F0010040497D
:101E800008803F48007800F0080020B34FF480201D
:101E9000FEF720FB80B1FEF7CFFA04463D4800EA8A
:101EA00004403B49096808433949086034480088C0
:101EB00020F00800324908803148007800F00C001A
:101EC00048B933480068FFF7B9F82D48008820F07A
:101ED00001002B4908802A48008880F001002E4923
:101EE0000988012222EA1121084010B11F20FEF7C3
:101EF00007FF2A4800682A490968884207D028480D
:101F000000682649086081211748FFF76BFB2548C8
:101F1000806900F0100070B92248FFF741FD2249A6
:101F200008800120214908601F490878FEF7BEFBA0
:101F300000201D4908801B48FFF732FD1A49088020
:101F40000F48008800F4805008B1FEF7E5FEA4E6D3
:101F500000E100E014400020164000203041002045
:101F60001C42002030400020984100205C420020AC
:101F70006845002058430020EC45002038400020F0
:101F8000004000203C4000206C4400203E400020E7
:101F9000044000200000FF0F024000202C400020E1
:101FA00028400020000003400C410020D4400020C5
:101FB000012140F8781F0221416003218160042142
:101FC000C16005210161062141610721816105216F
:101FD000C1610621016203214162802181620221E7
:101FE000C16203210163042141630521816306214C
:101FF000C163072101640821416409218164002132
:10200000C1640821016500214165092181658021A4
:10201000C165092101660621416607218166082103
:10202000C1660521016704214167783870470000C7
:1020300048656C6C6F20737472696E6700000000F5
:10204000602000200040002030010000FC00002043
:102050008820002030410020D816000038010020E0
:10206000011995302000200214640210010515FDAD
:10207000FFFFFF820AA2200BB220406666663FCDBA
:08208000CCCC3D14127A0000E3
:04000005200000C116
:00000001FF
