:020000042000DA
:10000000B04C00205D010020ED0E0020130D0020FB
:10001000190D002041060020CD1B0020000000002B
:100020000000000000000000000000004117002058
:10003000A308002000000000B31100205518002084
:100040004506002047060020071B00200000000096
:1000500000000000A108002089190020A519002037
:100060003D17002000000000170D0020B1110020F6
:10007000D11B002000000000451900206519002058
:1000800085190020FD040020000000004906002022
:100090003F170020000000000000000000000000EA
:1000A00000000000000000000000000071050020BA
:1000B000E9080020E1090020E10A0020E10B00200E
:1000C00000F002F800F03AF80AA090E8000C824430
:1000D0008344AAF10107DA4501D100F02FF8AFF20D
:1000E000090EBAE80F0013F0010F18BFFB1A43F016
:1000F000010318476820000088200000103A24BF40
:1001000078C878C1FAD8520724BF30C830C144BF7C
:1001100004680C60704700000023002400250026BE
:10012000103A28BF78C1FBD8520728BF30C148BF5A
:100130000B6070471FB51FBD10B510BD00F08AF8E9
:100140001146FFF7F7FF01F071FD00F0A8F803B4C6
:10015000FFF7F2FF03BC00F0AFF80000094880474A
:1001600009480047FEE7FEE7FEE7FEE7FEE7FEE799
:10017000FEE7FEE7FEE7FEE704480549054A064BB1
:1001800070470000ED180020C1000020B04600209C
:10019000B04C0020B0480020B048002010B5203AF4
:1001A000C0F00B80B1E81850203AA0E81850B1E830
:1001B0001850A0E81850BFF4F5AF5FEA027C24BFE6
:1001C000B1E81850A0E8185044BF18C918C0BDE8DD
:1001D00010405FEA827C24BF51F8043B40F8043BA6
:1001E00008BF7047D20728BF31F8023B48BF11F85B
:1001F000012B28BF20F8023B48BF00F8012B7047B5
:100200004FF0000200B5134694469646203922BFAF
:10021000A0E80C50A0E80C50B1F12001BFF4F7AFFA
:10022000090728BFA0E80C5048BF0CC05DF804EBDC
:10023000890028BF40F8042B08BF704748BF20F84A
:10024000022B11F0804F18BF00F8012B7047704748
:1002500070477047754600F02BF8AE4605006946BA
:10026000534620F00700854618B020B5FFF784FFFD
:10027000BDE820404FF000064FF000074FF00008A7
:100280004FF0000B21F00701AC46ACE8C009ACE828
:10029000C009ACE8C009ACE8C0098D46704710B58C
:1002A0000446AFF300802046BDE81040FFF74FBF83
:1002B000004870474C46002001491820ABBEFEE7BD
:1002C00026000200704700000146054A106811B17F
:1002D00040F0010001E020F00100014A1060704789
:1002E0000080084010B50446134800F029F90020AA
:1002F00011494860084600F003F9104800F029F958
:1003000000200E490860486088600846C4600020EC
:10031000086148614FF4006008834FF4106048831F
:100320000020C86108624FF4405048620020886293
:10033000084600F00BF810BD0446002020460020BF
:1003400001488069704700000080084010B5144BD8
:100350001A68144B1A40D0E90034234484682344BB
:10036000C46803EB041344692344C4692344446A06
:10037000234490F8284003EB44631A44084B59681F
:1003800021F40031038C01EB4341054B1A605960A5
:10039000038B034C2361438BA3600369A36210BDED
:1003A000008008400300FFF10348006840F00200AD
:1003B0000149086070470000008008400146054A76
:1003C000506811B140F0010001E020F00100014A45
:1003D000506070470080084010B50446134800F094
:1003E000AFF8002011494860084600F089F810482D
:1003F00000F0AFF800200E490860486088600846A9
:10040000C4600020086148614FF4006008834FF425
:10041000106048830020C86108624FF44050486271
:1004200000208862084600F00BF810BD044600204A
:10043000204600200148C069704700000080084045
:10044000114A5168114A1140D0E900231A448368C7
:100450001A44C36802EB031243691A44C3691A447D
:10046000038C02EB8342436A1A4490F8283002EB73
:1004700043621144044A5160028B034B5A61428B20
:10048000DA600269DA627047008008400300FBF11D
:100490000348406840F0020001494860704700008E
:1004A00000800840002009490860486088600861B1
:1004B00008468069002008628862C8604861084672
:1004C000C06900204862C862704700000080084090
:1004D00000B5034600F008F8184008B9002200E013
:1004E0000122104600BD00000348006A0249496A23
:1004F00000EB01407047000000800840704700009A
:1005000010B50479836803EB0473C4682344046959
:10051000234444691919048B036803EB44531944B9
:10052000044A054B1A43054B1B6893430B44034C89
:10053000236010BD00001EF00000E10100800840B3
:100540000021016041608160C160016141618161A0
:1005500070470021016041608160C16001614161BB
:1005600001834183C1610162416281627047000081
:1005700010B5022000F01CF8012804D107480068DB
:10058000401C06490860042000F012F80448006D81
:1005900040F006000249086510BD00002040002020
:1005A00000800D4001490860704700009007B0438B
:1005B0000146044A126D0A400AB1012000E0002001
:1005C0007047000000800D4029B1064A126D0243B9
:1005D000044B1A6504E0034A126D8243014B1A650D
:1005E0007047000000800D4001490860704700001E
:1005F000FC07B0430149C8647047000000800D400B
:10060000014908647047000000800D40014988647A
:100610007047000000800D4000BF024800680028BD
:10062000FBD17047180AB043044AD26B22F00C0188
:1006300000F00C021143014AD163704700800D4065
:1006400000BFFEE7704770477047000010B50446D2
:100650002046622C32D014DC35287DD008DC3128CD
:100660007BD032287AD0332879D034281BD1B7E018
:10067000362875D0372874D0382873D06128F5D142
:1006800035E0663812280ED2DFE800F04CEFEFEFCD
:10069000EF2AEF201CEFEF7BEF6F09EF0E77802141
:1006A000734801F0ADF8E0E00120724908600B20CA
:1006B000FFF718FE0A20FFF78FFED6E002206D49F3
:1006C0000860D2E003206B490860CEE0042069494D
:1006D00008600D20FFF706FE0C20FFF77DFEC4E04A
:1006E0000720FFF7FFFD0820FFF776FEBDE0802220
:1006F00061496248FFF752FD8021604801F080F8AF
:1007000080215D48FFF77CFD5B485D490968016019
:1007100005205949887057480078C87059480068C2
:100720004860A2E0802258495848FFF737FD8021F1
:10073000564801F065F880215348FFF761FD5248A3
:100740004F490968016000204F4988704948007886
:10075000C8704C48006806E04FE016E024E032E044
:100760005AE068E074E048607FE041484449096825
:100770000160042101F044F877E00020444908605A
:1007800073E00120424908606FE04148006828B1E9
:100790004FF400413F4800F0FDFC04E04FF40041FD
:1007A0003C4800F0E9FC60E03948006828B14FF4AB
:1007B0008041384800F0EEFC04E04FF480413548B9
:1007C00000F0DAFC51E03248006820B104213148E1
:1007D00000F0E0FC03E004212E4800F0CDFC44E0F2
:1007E0002B48006820B102212A4800F0D3FC03E026
:1007F0000221284800F0C0FC37E02548006828B1F5
:100800004FF40071244800F0C5FC04E04FF400717F
:10081000214800F0B1FC28E01D48006828B14FF4E1
:1008200080611D4800F0B6FC04E04FF480611A4876
:1008300000F0A2FC19E01648006820B10821174812
:1008400000F0A8FC03E00821144800F095FC0CE03F
:100850000F48006820B12021104800F09BFC03E005
:1008600020210E4800F088FC00BF00BF10BD000032
:100870009440002034400020D444002054450020FF
:10088000304000202040002054410020D44100206E
:100890000040002000800B4000000B4000000C4096
:1008A000704770470748006840F08070054908604D
:1008B0000548006840F001000349086000204860D6
:1008C00070470000FCED00E0001000E001B54FF4BF
:1008D000FA5100984843009002E00098401E0090B2
:1008E00000980028F9D108BD70B5002500263548CC
:1008F00000F036FC044604F4006000B970BD3248D4
:10090000806E401C304988661C2000F0F1FA04F427
:10091000804030B14FF480552B488068401C2A49F4
:10092000886004F4004030B145F400552648C068A2
:10093000401C2549C86004F4005030B14FF4104603
:1009400021480069401C2049086104F4805030B1FE
:1009500046F420461C484069401C1B4948614DB183
:1009600046B145F4804546F4804617488069401CEE
:1009700015498861154840681549096808431449B4
:10098000086014480068012800D0B7E712480580C5
:10099000124806801048008838B1FFF705FD0C4862
:1009A000006840F004000A4908600C48008838B12B
:1009B000FFF76EFD0648006840F008000449086033
:1009C00000BF9BE700000B4054410020D4450020AD
:1009D0000440002034400020384000203A400020ED
:1009E00070B5002400253748C06E401C3549C866E4
:1009F0001D2000F07DFA4FF48061334800F0B3FB16
:100A000030B14FF480542F48C069401C2D49C86153
:100A10004FF480412C4800F0A6FB30B144F4005460
:100A20002848006A401C274908624FF400612648A4
:100A300000F099FB30B14FF410452248406A401C49
:100A4000204948624FF400411F4800F08CFB30B150
:100A500045F420451B48806A401C1A4988624CB105
:100A600045B144F4804445F480451648C06A401CB2
:100A70001449C86215488068154909680843144933
:100A8000086014480068022800D070BD1248048035
:100A9000124805801048008838B1FFF785FC0C48E3
:100AA000006840F004000A4908600C48008838B12A
:100AB000FFF7EEFC0648006840F0080004490860B3
:100AC00000BFE2E75441002000800B40D4450020E5
:100AD0000440002034400020384000203A400020EC
:100AE00070B5002400253748006F401C3549086761
:100AF0001E2000F0FDF94FF48061334800F033FB15
:100B000030B14FF480542F48006B401C2D490863CE
:100B10004FF480412C4800F026FB30B144F40054DF
:100B20002848406B401C274948634FF40061264821
:100B300000F019FB30B14FF410452248806B401C87
:100B4000204988634FF400411F4800F00CFB30B18E
:100B500045F420451B48C06B401C1A49C8634CB182
:100B600045B144F4804445F480451648006C401C6F
:100B7000144908641548C0681549096808431449B0
:100B8000086014480068032800D070BD1248048033
:100B9000124805801048008838B1FFF705FC0C4862
:100BA000006840F004000A4908600C48008838B129
:100BB000FFF76EFC0648006840F008000449086032
:100BC00000BFE2E75441002000800B40D4450020E4
:100BD0000440002034400020384000203A400020EB
:100BE00070B5364800F0BCFA044604F4005000B971
:100BF00070BD002500263248406F401C30494867D0
:100C00001F2000F075F904F0200030B14FF480553A
:100C10002B48406C401C2A49486404F0800030B1E5
:100C200045F400552648806C401C2549886404F032
:100C3000080030B14FF410462148C06C401C2049D8
:100C4000C86404F0100030B146F420461C48006D22
:100C5000401C1B4908654DB146B145F4804546F43A
:100C600080461748406D401C154948651548006985
:100C700015490968084314490860144800680428A5
:100C800000D0B5E712480580124806801048008859
:100C900038B1FFF789FB0C48006840F004000A49AE
:100CA00008600C48008838B1FFF7F2FB064800687E
:100CB00040F008000449086000BF99E700800B403D
:100CC00054410020D445002004400020344000203E
:100CD000384000203A40002010B50446012C06D0D0
:100CE000022C08D0032C0AD0042C10D10BE01C20BD
:100CF00000F00AF90BE01D2000F006F907E01E20C5
:100D000000F002F903E01F2000F0FEF800BF00BF72
:100D100010BD00BFFEE7704700BFFEE710B5002022
:100D20006D49C87001200871002048710120887148
:100D30000020C8714FF400600880002088700220F5
:100D400008720120887203204872644800F024F978
:100D500000206149C8700871487101208871002025
:100D6000C8714FF47040088000208870087201201C
:100D7000887203204872594800F00EF90020564945
:100D8000C870087148718871C8714FF4C0600880DC
:100D900001208870002008720120887203204872A8
:100DA0004E4800F0F9F800204B49C8700120087146
:100DB00000204871012088710020C8714FF48050D4
:100DC00008800020887002200872012088720320A9
:100DD0004872434800F0E0F800203F49C870012005
:100DE000087100204871012088710020C8714FF4FB
:100DF000005008800020887002200872012088724C
:100E000003204872364800F0C7F800203249C87005
:100E10000120087100204871012088710020C871EC
:100E20004CF6B84008800020887008720120887253
:100E3000032048722A4800F0AFF800202649C87005
:100E4000087148718871C8714CF206000880012051
:100E500088700020087201208872032048722048A0
:100E600000F09AF800201C49C87008714871887118
:100E7000C871282008800120887000200872012095
:100E8000887203204872174800F086F84FF47650B5
:100E900011490880002088708872124800F07CF8A0
:100EA00001200D4908714FF44050088000208870DF
:100EB00088720C4800F070F800200749C87008716B
:100EC00048718871C8710820088001208870064820
:100ED00000F062F810BD0000E845002000000B4063
:100EE00000800B4000000C4000800C407047000068
:100EF00000F01F0201219140024A430942F82310E9
:100F00007047000080E100E000F01F0201219140E5
:100F10004209920002F1E022C2F80011704700007D
:100F200010B58021164800F07FFD012800D010BDCB
:100F3000144800681449096888420ED211480068B4
:100F400001780F4800F0DCFD0E480068401C0D4998
:100F5000086000200D4908800FE00821084800F0D3
:100F600063FD012809D08021094800F005F90948EE
:100F7000006820F480500749086000BFD7E70000F0
:100F80000000034014400020184000201C400020B6
:100F900000000B40044000202DE9FE4F4768D0F8C8
:100FA00008C0D0F80C80D0F81090D0F814A0CDF87C
:100FB00008A0D0F818A0CDF804A0D0F81CA0CDF857
:100FC00000A00022012303254FF001160C885FE0EA
:100FD00004F0010ABAF1000F55D027EA030A91F88C
:100FE00002B00BFA02FB4AEA0B0791F808A04FEA9D
:100FF000420B0AFA0BFA2CEA050B4AEA0B0C28EA18
:10100000030A91F80AB00BFA02FB4AEA0B0829EA34
:10101000060A91F803B002F1100E0BFA0EFB4AEA31
:101020000B0A91F804B00BFA02FB4AEA0B09DDF84F
:1010300008A02AEA060A91F805B00BFA0EFB4AEA64
:101040000B0A91F806B00BFA02FB4AEA0B0ACDF83C
:1010500008A091F809A04FEA420B0AFA0BFADDF852
:1010600004B02BEA050B4AEA0B0ACDF804A0DDF820
:1010700000A02AEA030A91F807B00BFA02FB4AEA39
:101080000B0ACDF800A05B00AD007600521C64088E
:10109000002C9DD1DFF8C4A0504502D14FF01F0AAB
:1010A00001E04FF0000A27EA0A0AC0F804A0DFF8BE
:1010B000ACA0504502D14FF01F0A01E04FF0000AEA
:1010C0002CEA0A0AC0F808A0DFF890A0504502D127
:1010D0004FF01F0A01E04FF0000A28EA0A0AC0F8A0
:1010E0000CA0DFF878A0504502D14FF01F0A01E0B4
:1010F0004FF0000A29EA0A0AC0F810A0DFF85CA045
:10110000504502D14FF01F0B01E04FF0000BDDF80E
:1011100008A02AEA0B0AC0F814A0DFF840A0504546
:1011200002D14FF01F0B01E04FF0000BDDF804A0DF
:101130002AEA0B0AC0F818A0DFF820A0504502D117
:101140004FF01F0B01E04FF0000BDDF800A02AEA82
:101150000B0AC0F81CA0BDE8FE8F000000000B4089
:10116000014608687047024613680B400BB1012026
:1011700000E00020704700000268054B984201D152
:101180001F2300E000230B439A43026070470000D6
:1011900000000B400268054B984201D11F2300E07C
:1011A00000239A430A4302607047000000000B408E
:1011B0007047704710B50146184A12681D2A06DDAF
:1011C000174A126842F48032154B1A6010BD002095
:1011D0000843144A1268B2B100046FF30F00124AB8
:1011E0000E4B1B6852F8232002430F4B0B4C246814
:1011F00043F82420094A1268521C084B1A60002246
:10120000084B1A6007E0084A044B1B6842F82300A9
:101210000122044B1A6000BFD8E7000028400020DC
:10122000044000202C400020DC44002010B5024681
:101230000F4B1B681D2B06DD0E4B1B6843F48033E0
:101240000C4C236010BD0020084300046FF30F0016
:101250001043094B064C246843F82400044B1B68D8
:101260005B1C034C23600023044C236000BFE9E7B0
:101270002840002004400020DC4400202C400020B6
:1012800001490860704700008800404210B50246DE
:101290000C4BD86820F003001043D860586820F445
:1012A000706040EA01205860074B1B6843B101237E
:1012B000054C241D23600023034C883CC4F88C306B
:1012C00010BD0000000002408800404238B50020F8
:1012D000009000BF212000F075F905460098401CE1
:1012E00000900098B0F5C06F01D2002DF2D02120FF
:1012F00000F068F908B1012400E00024204638BD60
:101300000149086070470000880140420146034AD5
:10131000D06820F440700843D0607047000002405D
:1013200000B500F0E1F90121C80600F0C7F9064850
:10133000C06B40F481000449C8630846C06B00F4E8
:101340008100C86300BD000000800D402DE9FC4F06
:101350000146DFF864B2DBF80CB00BF0020BBBF116
:10136000000F01D0954B00E0954BDFF84CB2DBF855
:101370000CB00BF0010BBBF1000F00D05B081C465A
:10138000DFF834B2DBF80CB00BF0040BBBF1000F4C
:101390000DD0DFF824B2DBF804B0CBF3032B0BF154
:1013A000010BCDF800B0DDF800B004FB0BF4DFF862
:1013B00008B2DBF80CB0CBF3012BBBF1000F06D069
:1013C000BBF1010F08D0BBF1020F28D122E0DFF8FA
:1013D000F0B1C1F800B027E0DFF8DCB1DBF80CB009
:1013E0004FF0080E0EEA1B1BBBF1000F01D1A04607
:1013F0000DE0DFF8C4B1DBF80CB0CBF3021B0BF14E
:10140000010B4FF0010E0EFA0BFEB4FBFEF8C1F813
:10141000008009E04FF4004BC1F800B004E049F649
:10142000404BC1F800B000BF00BFDFF88CB1DBF863
:1014300010B00BF0020BBBF1000F01D05F4D00E0CC
:101440005F4DDFF874B1DBF810B00BF0010BBBF1AE
:10145000000F00D06D082F46DFF85CB1DBF810B04C
:101460000BF0040BBBF1000F0DD0DFF84CB1DBF833
:1014700004B0CBF3031B0BF1010BCDF800B0DDF88A
:1014800000B007FB0BF7B946DFF82CB1DBF810B062
:101490000BF0100BBBF1000F01D04FEA5909C1F856
:1014A0000490DFF814B1DBF818B04FEA1B1000F01D
:1014B000080BBBF1000F02D1DFF804C10BE000F014
:1014C000070B0BF1010B4FF0010E0EFA0BF0DFF8DA
:1014D000F0B0BBFBF0FCC1F80CC0DFF8DCB0DBF80F
:1014E000180000F0080BBBF1000F04D1DFF8CCB0FE
:1014F000CDF804B00DE000F0070B0BF1010B4FF03D
:10150000010E0EFA0BF0DFF8B4B0BBFBF0FBCDF828
:1015100004B0DDF804B0C1F810B0DFF89CB0DBF81F
:1015200014B00BF0030BBBF1000F06D0BBF1010FA1
:1015300005D0BBF1020F06D103E01E4605E02E46A2
:1015400003E0264601E03E4600BF00BFDFF868B07A
:10155000DBF814B0CBF3011BBBF1000F06D0BBF1DD
:10156000010F06D0BBF1020F08D105E04FF4004295
:1015700006E049F6404203E0324601E0624600BF21
:1015800000BFDFF834B0DBF814B04FEA1B2000F0E6
:10159000080BBBF1000F01D1924609E000F0070BE8
:1015A0000BF1010B4FF0010E0EFA0BF0B2FBF0FA4B
:1015B000C1F808A0BDE8FC8F000002400024F40040
:1015C00000127A0010B5014601F0E003202B02D191
:1015D000074B1A6801E0074BDA6B01F01F04012387
:1015E000A34013400BB1012000E0002010BD00001B
:1015F0000000024000800D400146034A906920F03F
:101600000F00084390617047000002400D4989684F
:1016100021F003010B4A9160012802D002280ED16B
:1016200006E00849896841F00101064A916007E037
:101630000449896841F00301024A916000E000BF5B
:1016400000BF70470000024038B50020009000BF86
:101650002220FFF7B7FF05460098401C0090009835
:10166000B0F5C06F01D2002DF2D02220FFF7AAFF03
:1016700008B1012400E00024204638BD014908607B
:1016800070470000D807B04338B50020009000BF75
:101690001720FFF797FF05460098401C0090009820
:1016A000B0F5C06F01D2002DF2D01720FFF78AFFEE
:1016B00008B1012400E00024204638BD29B1064AC3
:1016C000D2690243044BDA6104E0034AD2698243DF
:1016D000014BDA61704700000000024001490860D8
:1016E000704700002003404200B50120FFF7C6FF0D
:1016F000FFF7CAFF0020FFF709FE0E48C068002070
:101700000C49C86008464068002048600846806868
:10171000002088600846006900200861084640698A
:101720000020486108468069002088610248C8613D
:1017300000BD000000000240100000087047704724
:10174000704710B5FFF7ECFD0120FFF75FFF00BF0A
:10175000FFF77AFF0128FBD104210220FFF796FD55
:101760000120FFF78DFDFFF7B1FD012801D000BF7B
:10177000FEE70120FFF7C4FD4FF48070FFF7C6FDC0
:1017800010BD000010B501214807FFF797FF0121A8
:10179000C806FFF793FF0120FEF726FF0020FEF7A3
:1017A00023FF0120FFF732FF00BFFFF74DFF0128A5
:1017B000FBD1FFF793FF0B20FFF71EFF0C20FEF776
:1017C00033FF01213820FEF7FFFE1B20FFF79CFBB3
:1017D000FEF722FF0020FEF713FFFEF71DFF07486C
:1017E000FEF714FFFEF718FF3C20FEF703FFFEF79D
:1017F00013FF0120FEF7D6FE10BD000040420F008F
:1018000070B504460D460E480460006828440D4932
:10181000086080210C48FFF7BDFC0C48006840F4CC
:1018200080500A490860064800680178084800F0BE
:1018300067F903480068401C0149086070BD00005A
:10184000144000201840002000000B4004400020FD
:10185000000003407047000030B5204CE46804F0FD
:101860000204022C01D11E4800E01E481B4CE46813
:1018700004F0010404B140080146184CE46804F087
:101880000404042C05D1154C6468C4F30324631CC0
:101890005943124CE468C4F3012424B1012C06D04E
:1018A000022C13D10DE00F4C0F4D2C6013E00B4CAC
:1018B000E468C4F30314641CB1FBF4F20A4C226024
:1018C00009E04FF40044084D2C6004E049F6404420
:1018D000054D2C6000BF00BF30BD0000000002407D
:1018E0000024F40000127A009040002000B50D485A
:1018F0000D49C8610846C0680020C86008464068B5
:10190000002048600846806800208860084600691A
:10191000002008610846406900204861FFF79CFFED
:1019200000BD0000100000080000024010B5024693
:10193000936D546D1C4004EA01030BB9002000E0D4
:10194000012010BD10B502210548FFF7EFFF012867
:1019500005D10348406D20F002000149486510BDE3
:10196000000007400548406D00F0800020B10448A9
:101970000068401C02490860704700000080074072
:101980005C40002070470000044948680449096829
:10199000884202D00021014A516070470000034094
:1019A0008840002010B51021064800F045F80128B5
:1019B00006D11021034800F027F8012002490860F1
:1019C00010BD0000008003404440002002460B4B45
:1019D000986A0B4B9A4205D140F0807020F0FF00CE
:1019E000084308E0074B9A4205D140F0007020F40C
:1019F0007F4040EA0120014B98627047000002409E
:101A00000000034000800340426C0A434264704778
:101A100021B1026B42F00102026304E0026B4FF657
:101A2000FE731A4002637047024693690B400BB184
:101A3000012000E0002070470246136C0B400BB100
:101A4000012000E0002070472DE9F04F87B00446E8
:101A50000D4601A8FFF77AFC019F2448866A2448B6
:101A6000844206D106F0070101208840B7FBF0F759
:101A700008E02048844205D1C6F3022101208840B5
:101A8000B7FBF0F728688008B7FBF0F94FEA991820
:101A900009F03F0AB8000AEB8811B0FBF1FB286897
:101AA000ABEB0000C0012968B0FBF1F0069006988E
:101AB000022803D9002007B0BDE8F08FC4F82480C5
:101AC000C4F828A0E66AA888E98808432989084359
:101AD000698908430643E662266B4FF680708643A9
:101AE000A889064326630120E5E7000000000240C4
:101AF00000000340008003400146086880B2704740
:101B0000CAB202607047704710B500201449C8700F
:101B1000087148718871C8710220087203204872E8
:101B20000120887200208870402008800D48FFF74F
:101B300033FA01200A498870202008800948FFF7FD
:101B40002BFA802006490880012088700020087246
:101B500001208872022048720248FFF71DFA10BD6A
:101B6000E845002000000B4010B501214020FFF7A0
:101B7000A5FD00210C48FFF729FF4FF4E1300B4988
:101B80000860602088800020C8800881102048817B
:101B90004FF4407088810448FFF756FF0121024846
:101BA000FFF736FF10BD000000000340F4450020A1
:101BB00010B5FFF7A9FFFFF7D7FF80210248FFF715
:101BC000DBFA002010BD000000000B4000BFFEE764
:101BD000704710B50346C3F30B0140F6FF70814216
:101BE00001D11D2010BD40F6FA70814201DD1C209C
:101BF000F8E7052901DA0020F4E70C461A2208E08C
:101C000001F4006000B106E04FF6FF7000EA410108
:101C1000921E0B2AF4DC00BF0B2A01DA201FE1E739
:101C200001F4806000B1521C1046DBE74FF4C8702D
:101C3000FEF74CFEFFF785FD01214805FFF73EFD4D
:101C400001218805FFF73AFD0121C805FFF736FDA0
:101C500001210806FFF732FD01214806FFF72EFD9E
:101C600001214807FFF72AFD01218807FFF726FD1C
:101C700001214804FFF722FDFFF750F84FF40071EF
:101C8000FE48FFF779FA4FF48061FC48FFF774FAD9
:101C90000221FB48FFF770FA0421F948FFF76CFABC
:101CA0004FF48041F648FFF767FA4FF40041F448DB
:101CB000FFF762FA0821F348FFF75EFA2021F148A6
:101CC000FFF75AFAFFF75EFD4FF40030EE49086067
:101CD000FEF7E8FB0B20FEF705FB0A20FEF77CFB76
:101CE0000120FEF7F1FA0120FEF768FBFEF7DAFDAE
:101CF000FFF75EFFCC20E5490870552048701020A2
:101D000088700120C870E248096801607822E149C2
:101D10000830FEF743FACC20DC49087055204870A3
:101D2000002088700120C870DB480968016000202D
:101D3000D9498870D9480078C870D9480068486087
:101D4000002023E0D74901EBC011D04A12680A6095
:101D5000411CD44A02EBC0129170D0490978D14A93
:101D600002EBC012D170CE490968CE4A02EBC01214
:101D70005160002107E00023CA4A02EBC01208327A
:101D800042F82130491C1E29F5DB401C0328D9DD0F
:101D90000020C54908604FF48070486040008860AA
:101DA0004000C86040000861C048B8490968016047
:101DB0000520BE498870B9480078C870B8480068E6
:101DC0004860002005E00022B849083141F8202091
:101DD000401C1E28F7DB0020B5490860B5490860A3
:101DE000B54908601C20FFF78FF81D20FFF78CF81D
:101DF0001F20FFF789F88021A548FFF701FD6DE15D
:101E0000012403E1A5480068844228D0A64850F880
:101E10002400A9490968084000280CD0042C0BD0E4
:101E2000A14850F82410A44800688843A2490860DB
:101E30002046FEF751FFE8E09148FFF791F906468A
:101E400006F4005050B9984850F824109A48006899
:101E50008843994908602046FEF73EFFD5E0964842
:101E6000007800F00400A8B30420FEF731FB88B32B
:101E7000FEF766FAC0F30B059048008828438F49A7
:101E800008808548806D4119834881652846FFF7A1
:101E9000A0FE06468348083050F82600401C8149C1
:101EA000083141F826008548008800F4804050B190
:101EB0007948006E411978480166814850F826102B
:101EC000491C40F826107C48006820F004007A493C
:101ED000086000BF7848007800F00800A8B34FF40D
:101EE0008020FEF7F5FA80B3FEF7A4FAC0F30B05E5
:101EF000744800882843734908806748C06D4119B9
:101F00006548C1652846FFF764FE06466C48803880
:101F100050F82610491C40F826106A48008800F442
:101F2000804058B15C48406E41195B484166644846
:101F3000803050F82610491C40F826105E48006892
:101F400020F008005C49086000BF5B48006800F4AE
:101F5000803048B35548406851490968884223D0C9
:101F60005548008800F48050F0B980224F49484815
:101F7000FEF714F980214648FFF742FC4B484349DD
:101F80000968016005204949887044480078C87094
:101F9000434800684860002045490860464800689A
:101FA00020F48030444908604348007800F00C0079
:101FB00058BB3D4850F824003F490968084020B309
:101FC000394850F824103C48006888433A49086072
:101FD0003A48008800F4804030B13A4801883748D8
:101FE0000088FFF723F90DE03448008818B1334822
:101FF0000088FFF7DFF83348008818B131480088BF
:10200000FFF7D8F82046FEF767FE641C052CFFF6A4
:10201000F9AE2D4800682249096888420ED0204850
:102020000068294908601E4800680A21B0FBF1F2E7
:1020300001FB120010B96620FEF708FB23488069F7
:1020400000F0100070B92148FFF756FD20490880C4
:102050000120204908601E490878FEF7F7FA0020A1
:102060001B4908801948FFF747FD194908801248A5
:10207000008800F4805000B12EE02FE000000B40FB
:1020800000800B4000000C4000E100E030400020E8
:1020900094400020E02000205441002034400020E3
:1020A0002040002054420020D4450020D444002089
:1020B000284000202C400020044000203840002010
:1020C0005C4300203A4000202440002000000340F0
:1020D0007840002040400020FEF722FF90E60000FC
:1020E0002020204B4F44495A50524F4752414D20D7
:1020F000562E302E362020204156414C5541424C20
:102100004520434D44733A202874296573743B205D
:10211000287A293B202861292866296C75783B207C
:102120002873297065637472494E54455252555054
:1021300054204D4F4445533A204E31202876293BB8
:10214000204E322028622920204E3320286E293B41
:10215000204E3420286D2920000000007C21002022
:102160000040002094000000FC000020102200200D
:10217000944000201C0C0000180100200100000009
:10218000000000000000000000000000000000004F
:1021900000000000000000006400000000000000DB
:1021A000000000000000000000000000000000002F
:1021B000010000000000000000000000000000001E
:1021C000000000000000000000000000000000000F
:1021D00000000000000000000000000000000000FF
:1021E00000000000000000000000000000000000EF
:1021F00000000000000000000000000000000000DF
:1022000000000000000000000000000000127A0042
:04000005200000C116
:00000001FF
