:020000042000DA
:10000000A84C00205D0100203D0D0020F30B0020D6
:10001000F90B002041060020891A00200000000092
:100020000000000000000000000000008915002012
:10003000830700200000000003100020F1160020BC
:100040004506002047060020A319002000000000FC
:100050000000000081070020251800204118002022
:100060008515002000000000F70B00200110002083
:100070008D1A002000000000E11700200118002068
:1000800021180020FD040020000000004906002087
:1000900087150020000000000000000000000000A4
:1000A00000000000000000000000000071050020BA
:1000B000C9070020C9080020C9090020C90A00207A
:1000C00000F002F800F03AF80AA090E8000C824430
:1000D0008344AAF10107DA4501D100F02FF8AFF20D
:1000E000090EBAE80F0013F0010F18BFFB1A43F016
:1000F00001031847B41E0000D41E0000103A24BFAC
:1001000078C878C1FAD8520724BF30C830C144BF7C
:1001100004680C60704700000023002400250026BE
:10012000103A28BF78C1FBD8520728BF30C148BF5A
:100130000B6070471FB51FBD10B510BD00F08AF8E9
:100140001146FFF7F7FF01F0CFFC00F0A8F803B469
:10015000FFF7F2FF03BC00F0AFF80000094880474A
:1001600009480047FEE7FEE7FEE7FEE7FEE7FEE799
:10017000FEE7FEE7FEE7FEE704480549054A064BB1
:100180007047000089170020C1000020A846002009
:10019000A84C0020A8480020A848002010B5203A0C
:1001A000C0F00B80B1E81850203AA0E81850B1E830
:1001B0001850A0E81850BFF4F5AF5FEA027C24BFE6
:1001C000B1E81850A0E8185044BF18C918C0BDE8DD
:1001D00010405FEA827C24BF51F8043B40F8043BA6
:1001E00008BF7047D20728BF31F8023B48BF11F85B
:1001F000012B28BF20F8023B48BF00F8012B7047B5
:100200004FF0000200B5134694469646203922BFAF
:10021000A0E80C50A0E80C50B1F12001BFF4F7AFFA
:10022000090728BFA0E80C5048BF0CC05DF804EBDC
:10023000890028BF40F8042B08BF704748BF20F84A
:10024000022B11F0804F18BF00F8012B7047704748
:1002500070477047754600F02BF8AE4605006946BA
:10026000534620F00700854618B020B5FFF784FFFD
:10027000BDE820404FF000064FF000074FF00008A7
:100280004FF0000B21F00701AC46ACE8C009ACE828
:10029000C009ACE8C009ACE8C0098D46704710B58C
:1002A0000446AFF300802046BDE81040FFF74FBF83
:1002B000004870474846002001491820ABBEFEE7C1
:1002C00026000200704700000146054A106811B17F
:1002D00040F0010001E020F00100014A1060704789
:1002E0000080084010B50446134800F029F90020AA
:1002F00011494860084600F003F9104800F029F958
:1003000000200E490860486088600846C4600020EC
:10031000086148614FF4006008834FF4106048831F
:100320000020C86108624FF4405048620020886293
:10033000084600F00BF810BD004600201C460020C7
:1003400001488069704700000080084010B5144BD8
:100350001A68144B1A40D0E90034234484682344BB
:10036000C46803EB041344692344C4692344446A06
:10037000234490F8284003EB44631A44084B59681F
:1003800021F40031038C01EB4341054B1A605960A5
:10039000038B034C2361438BA3600369A36210BDED
:1003A000008008400300FFF10348006840F00200AD
:1003B0000149086070470000008008400146054A76
:1003C000506811B140F0010001E020F00100014A45
:1003D000506070470080084010B50446134800F094
:1003E000AFF8002011494860084600F089F810482D
:1003F00000F0AFF800200E490860486088600846A9
:10040000C4600020086148614FF4006008834FF425
:10041000106048830020C86108624FF44050486271
:1004200000208862084600F00BF810BD004600204E
:100430001C4600200148C069704700000080084049
:10044000114A5168114A1140D0E900231A448368C7
:100450001A44C36802EB031243691A44C3691A447D
:10046000038C02EB8342436A1A4490F8283002EB73
:1004700043621144044A5160028B034B5A61428B20
:10048000DA600269DA627047008008400300FBF11D
:100490000348406840F0020001494860704700008E
:1004A00000800840002009490860486088600861B1
:1004B00008468069002008628862C8604861084672
:1004C000C06900204862C862704700000080084090
:1004D00000B5034600F008F8184008B9002200E013
:1004E0000122104600BD00000348006A0249496A23
:1004F00000EB01407047000000800840704700009A
:1005000010B50479836803EB0473C4682344046959
:10051000234444691919048B036803EB44531944B9
:10052000044A054B1A43054B1B6893430B44034C89
:10053000236010BD00001EF00000E10100800840B3
:100540000021016041608160C160016141618161A0
:1005500070470021016041608160C16001614161BB
:1005600001834183C1610162416281627047000081
:1005700010B5022000F01CF8012804D107480068DB
:10058000401C06490860042000F012F80448006D81
:1005900040F006000249086510BD00001C40002024
:1005A00000800D4001490860704700009007B0438B
:1005B0000146044A126D0A400AB1012000E0002001
:1005C0007047000000800D4029B1064A126D0243B9
:1005D000044B1A6504E0034A126D8243014B1A650D
:1005E0007047000000800D4001490860704700001E
:1005F000FC07B0430149C8647047000000800D400B
:10060000014908647047000000800D40014988647A
:100610007047000000800D4000BF024800680028BD
:10062000FBD17047180AB043044AD26B22F00C0188
:1006300000F00C021143014AD163704700800D4065
:1006400000BFFEE7704770477047000010B50446D2
:100650002046662C4DD00EDC34287BD006DC3128B9
:100660006AD032286ED0332878D16FE0612825D047
:10067000622873D112E06D380A286FD2DFE800F0EB
:1006800016126E1A6E6E54056E0A8021344801F0FF
:1006900005F863E00120334908605FE0022031493A
:1006A00008605BE003202F49086057E004202D49D3
:1006B000086053E01F2000F04FFB4FE080222A49E2
:1006C0002A48FFF76BFD8021284800F0E7FF8021D2
:1006D0002548FFF795FD2448254909680160052054
:1006E000214988701F480078C87022480068486017
:1006F00034E0802220492148FFF750FD80211F4827
:1007000000F0CCFF80211C48FFF77AFD1A481849F9
:100710000968016000201849887012480078C87084
:1007200014480068486019E00D48114909680160E3
:10073000042100F0B3FF11E0012000F085FF0DE07F
:1007400008E0FFE7022000F07FFF07E0032000F051
:100750007BFF03E0042000F077FF00BF00BF10BD67
:100760009040002030400020D04400205045002020
:100770002C4000201C40002050410020D04100208F
:10078000704770470748006840F08070054908606E
:100790000548006840F001000349086000204860F7
:1007A00070470000FCED00E0001000E001B54FF4E0
:1007B000FA5100984843009002E00098401E0090D3
:1007C00000980028F9D108BD70B5002400253748ED
:1007D000806E401C354988661C2000F0B1FA4FF449
:1007E0008061334800F0E7FB30B14FF480542F486C
:1007F0008068401C2D4988604FF480412C4800F0EF
:10080000DAFB30B144F400542848C068401C274942
:10081000C8604FF40061264800F0CDFB30B14FF4C2
:10082000104522480069401C204908614FF40041EE
:100830001F4800F0C0FB30B145F400551B4840692B
:10084000401C1A4948614CB145B144F4804445F418
:10085000804516488069401C1449886115484068E5
:1008600015490968084314490860144800680128BC
:1008700000D070BD124804801248058010480088DE
:1008800038B1FFF791FD0C48006840F004000A49B8
:1008900008600C48008838B1FFF7FAFD0648006888
:1008A00040F008000449086000BFE2E75041002022
:1008B00000800B40D0450020004000203040002048
:1008C000344000203640002070B500240025374811
:1008D000C06E401C3549C8661D2000F031FA4FF447
:1008E0008061334800F067FB30B14FF480542F48EB
:1008F000C069401C2D49C8614FF480412C4800F06C
:100900005AFB30B144F400542848006A401C27497F
:1009100008624FF40061264800F04DFB30B14FF4FF
:1009200010452248406A401C204948624FF400416B
:100930001F4800F040FB30B145F400551B48806A69
:10094000401C1A4988624CB145B144F4804445F4D6
:1009500080451648C06A401C1449C8621548806822
:1009600015490968084314490860144800680228BA
:1009700000D070BD124804801248058010480088DD
:1009800038B1FFF711FD0C48006840F004000A4937
:1009900008600C48008838B1FFF77AFD0648006807
:1009A00040F008000449086000BFE2E75041002021
:1009B00000800B40D0450020004000203040002047
:1009C000344000203640002070B500240025374810
:1009D000006F401C354908671E2000F0B1F94FF444
:1009E0008061334800F0E7FA30B14FF480542F486B
:1009F000006B401C2D4908634FF480412C4800F0E7
:100A0000DAFA30B144F400542848406B401C2749BE
:100A100048634FF40061264800F0CDFA30B14FF43E
:100A200010452248806B401C204988634FF40041E8
:100A30001F4800F0C0FA30B145F400551B48C06BA8
:100A4000401C1A49C8634CB145B144F4804445F494
:100A500080451648006C401C144908641548C0685D
:100A600015490968084314490860144800680328B8
:100A700000D070BD124804801248058010480088DC
:100A800038B1FFF791FC0C48006840F004000A49B7
:100A900008600C48008838B1FFF7FAFC0648006887
:100AA00040F008000449086000BFE2E75041002020
:100AB00000800B40D0450020004000203040002046
:100AC000344000203640002070B5344800F070FA01
:100AD0000446002500263248406F401C30494867D4
:100AE0001F2000F02DF904F0800030B14FF4805544
:100AF0002B48406C401C2A49486404F0200030B167
:100B000045F400552648806C401C2549886404F053
:100B1000080030B14FF410462148C06C401C2049F9
:100B2000C86404F0100030B146F400561C48006D53
:100B3000401C1B4908654DB146B145F4804546F45B
:100B400080461748406D401C1549486515480069A6
:100B500015490968084314490860144800680428C6
:100B600000D070BD124805801248068010480088E9
:100B700038B1FFF719FC0C48006840F004000A493E
:100B800008600C48008838B1FFF782FC064800680E
:100B900040F008000449086000BFE2E700800B4015
:100BA00050410020D045002000400020304000206F
:100BB000344000203640002010B50446012C06D0F9
:100BC000022C08D0032C0AD0042C10D10BE01C20DE
:100BD00000F0C2F80BE01D2000F0BEF807E01E2078
:100BE00000F0BAF803E01F2000F0B6F800BF00BF25
:100BF00010BD00BFFEE7704700BFFEE710B5002044
:100C00004949C8700120087100204871012088718D
:100C10000020C8714FF40060088000208870022016
:100C20000872012088724872404800F0DDF8002008
:100C30003D49C87001200871002048710120887169
:100C40000020C8714FF48050088000208870022076
:100C500008720120887203204872354800F0C4F8F9
:100C600000203149C870012008710020487101201E
:100C700088710020C8714FF40050088000208870EF
:100C8000022008720120887203204872284800F070
:100C9000ABF800202449C870012008710020487179
:100CA000012088710020C8714CF6B84008800020EF
:100CB0008870087201208872032048721C4800F076
:100CC00093F800201849C870087148718871C8717C
:100CD0000820088001208870164800F085F83C2024
:100CE00011490880002088708872134800F07CF851
:100CF00000200D49C870087148718871C8710220C0
:100D0000087203204872012088724FF46040088006
:100D10000120887000200872012088720320487228
:100D2000024800F061F810BDE445002000000B40CF
:100D300000800B4000800C4000000C407047000019
:100D400000F01F0201219140024A430942F823109A
:100D50007047000080E100E000F01F020121914097
:100D60004209920002F1E022C2F80011704700002F
:100D700010B58021164800F0A5FD012800D010BD57
:100D8000144800681449096888420ED21148006866
:100D900001780F4800F002FE0E480068401C0D4923
:100DA000086000200D4908800FE00821084800F085
:100DB00089FD012809D08021094800F005F909487A
:100DC000006820F480500749086000BFD7E70000A2
:100DD0000000034010400020144000201840002074
:100DE00000000B40004000202DE9FE4F4768D0F87E
:100DF00008C0D0F80C80D0F81090D0F814A0CDF82E
:100E000008A0D0F818A0CDF804A0D0F81CA0CDF808
:100E100000A00022012303254FF001160C885FE09B
:100E200004F0010ABAF1000F55D027EA030A91F83D
:100E300002B00BFA02FB4AEA0B0791F808A04FEA4E
:100E4000420B0AFA0BFA2CEA050B4AEA0B0C28EAC9
:100E5000030A91F80AB00BFA02FB4AEA0B0829EAE6
:100E6000060A91F803B002F1100E0BFA0EFB4AEAE3
:100E70000B0A91F804B00BFA02FB4AEA0B09DDF801
:100E800008A02AEA060A91F805B00BFA0EFB4AEA16
:100E90000B0A91F806B00BFA02FB4AEA0B0ACDF8EE
:100EA00008A091F809A04FEA420B0AFA0BFADDF804
:100EB00004B02BEA050B4AEA0B0ACDF804A0DDF8D2
:100EC00000A02AEA030A91F807B00BFA02FB4AEAEB
:100ED0000B0ACDF800A05B00AD007600521C640840
:100EE000002C9DD1DFF8C4A0504502D14FF01F0A5D
:100EF00001E04FF0000A27EA0A0AC0F804A0DFF870
:100F0000ACA0504502D14FF01F0A01E04FF0000A9B
:100F10002CEA0A0AC0F808A0DFF890A0504502D1D8
:100F20004FF01F0A01E04FF0000A28EA0A0AC0F851
:100F30000CA0DFF878A0504502D14FF01F0A01E065
:100F40004FF0000A29EA0A0AC0F810A0DFF85CA0F6
:100F5000504502D14FF01F0B01E04FF0000BDDF8C0
:100F600008A02AEA0B0AC0F814A0DFF840A05045F8
:100F700002D14FF01F0B01E04FF0000BDDF804A091
:100F80002AEA0B0AC0F818A0DFF820A0504502D1C9
:100F90004FF01F0B01E04FF0000BDDF800A02AEA34
:100FA0000B0AC0F81CA0BDE8FE8F000000000B403B
:100FB000014608687047024613680B400BB10120D8
:100FC00000E00020704700000268054B984201D104
:100FD0001F2300E000230B439A4302607047000088
:100FE00000000B400268054B984201D11F2300E02E
:100FF00000239A430A4302607047000000000B4040
:101000007047704710B50146184A12681D2A06DD60
:10101000174A126842F48032154B1A6010BD002046
:101020000843144A1268B2B100046FF30F00124A69
:101030000E4B1B6852F8232002430F4B0B4C2468C5
:1010400043F82420094A1268521C084B1A600022F7
:10105000084B1A6007E0084A044B1B6842F823005B
:101060000122044B1A6000BFD8E700002440002092
:101070000040002028400020D844002010B502463F
:101080000E4B1B681D2B06DD0D4B1B6843F4803394
:101090000B4C236010BD0020084300046FF30F00C9
:1010A0001043084B054C246843F82400034B1B688D
:1010B0005B1C024C236000BFECE7000024400020D2
:1010C00000400020D844002001490860704700001B
:1010D0008800404210B502460C4BD86820F003004F
:1010E0001043D860586820F4706040EA01205860CE
:1010F000074B1B6843B10123054C241D23600023CB
:10110000034C883CC4F88C3010BD00000000024045
:101110008800404238B50020009000BF212000F038
:1011200075F905460098401C00900098B0F5C06F16
:1011300001D2002DF2D0212000F068F908B101247D
:1011400000E00024204638BD0149086070470000D7
:10115000880140420146034AD06820F440700843A9
:10116000D06070470000024000B500F0E1F90121B5
:10117000C80600F0C7F90648C06B40F48100044976
:10118000C8630846C06B00F48100C86300BD00005E
:1011900000800D402DE9FC4F0146DFF864B2DBF81A
:1011A0000CB00BF0020BBBF1000F01D0954B00E02F
:1011B000954BDFF84CB2DBF80CB00BF0010BBBF138
:1011C000000F00D05B081C46DFF834B2DBF80CB02F
:1011D0000BF0040BBBF1000F0DD0DFF824B2DBF8ED
:1011E00004B0CBF3032B0BF1010BCDF800B0DDF80D
:1011F00000B004FB0BF4DFF808B2DBF80CB0CBF363
:10120000012BBBF1000F06D0BBF1010F08D0BBF1E1
:10121000020F28D122E0DFF8F0B1C1F800B027E0DA
:10122000DFF8DCB1DBF80CB04FF0080E0EEA1B1B48
:10123000BBF1000F01D1A0460DE0DFF8C4B1DBF82F
:101240000CB0CBF3021B0BF1010B4FF0010E0EFAA9
:101250000BFEB4FBFEF8C1F8008009E04FF4004B30
:10126000C1F800B004E049F6404BC1F800B000BF3F
:1012700000BFDFF88CB1DBF810B00BF0020BBBF154
:10128000000F01D05F4D00E05F4DDFF874B1DBF877
:1012900010B00BF0010BBBF1000F00D06D082F4612
:1012A000DFF85CB1DBF810B00BF0040BBBF1000F02
:1012B0000DD0DFF84CB1DBF804B0CBF3031B0BF11E
:1012C000010BCDF800B0DDF800B007FB0BF7B94615
:1012D000DFF82CB1DBF810B00BF0100BBBF1000FF6
:1012E00001D04FEA5909C1F80490DFF814B1DBF8D6
:1012F00018B04FEA1B1000F0080BBBF1000F02D131
:10130000DFF804C10BE000F0070B0BF1010B4FF00D
:10131000010E0EFA0BF0DFF8F0B0BBFBF0FCC1F8E9
:101320000CC0DFF8DCB0DBF8180000F0080BBBF1F4
:10133000000F04D1DFF8CCB0CDF804B00DE000F020
:10134000070B0BF1010B4FF0010E0EFA0BF0DFF85B
:10135000B4B0BBFBF0FBCDF804B0DDF804B0C1F8CD
:1013600010B0DFF89CB0DBF814B00BF0030BBBF14E
:10137000000F06D0BBF1010F05D0BBF1020F06D163
:1013800003E01E4605E02E4603E0264601E03E4609
:1013900000BF00BFDFF868B0DBF814B0CBF3011B6F
:1013A000BBF1000F06D0BBF1010F06D0BBF1020F5D
:1013B00008D105E04FF4004206E049F6404203E060
:1013C000324601E0624600BF00BFDFF834B0DBF810
:1013D00014B04FEA1B2000F0080BBBF1000F01D145
:1013E000924609E000F0070B0BF1010B4FF0010EE4
:1013F0000EFA0BF0B2FBF0FAC1F808A0BDE8FC8FC2
:10140000000002400024F40000127A0010B50146EA
:1014100001F0E003202B02D1074B1A6801E0074BD3
:10142000DA6B01F01F040123A34013400BB101202C
:1014300000E0002010BD00000000024000800D40D0
:101440000146034A906920F00F00084390617047FD
:10145000000002400D49896821F003010B4A9160A8
:10146000012802D002280ED106E00849896841F01F
:101470000101064A916007E00449896841F00301CF
:10148000024A916000E000BF00BF704700000240C8
:1014900038B50020009000BF2220FFF7B7FF0546B7
:1014A0000098401C00900098B0F5C06F01D2002D4C
:1014B000F2D02220FFF7AAFF08B1012400E00024A7
:1014C000204638BD0149086070470000D807B04386
:1014D00038B50020009000BF1720FFF797FF0546A2
:1014E0000098401C00900098B0F5C06F01D2002D0C
:1014F000F2D01720FFF78AFF08B1012400E0002492
:10150000204638BD29B1064AD2690243044BDA614C
:1015100004E0034AD2698243014BDA61704700005C
:10152000000002400149086070470000200340426B
:1015300000B50120FFF7C6FFFFF7CAFF0020FFF745
:1015400009FE0E48C06800200C49C8600846406883
:1015500000204860084680680020886008460069CE
:1015600000200861084640690020486108468069FB
:10157000002088610248C86100BD000000000240F0
:101580001000000870477047704710B5FFF7ECFD7A
:101590000120FFF75FFF00BFFFF77AFF0128FBD1B3
:1015A00004210220FFF796FD0120FFF78DFDFFF7D4
:1015B000B1FD012801D000BFFEE70120FFF7C4FD07
:1015C0004FF48070FFF7C6FD10BD000010B501217B
:1015D0004807FFF797FF0121C806FFF793FF012097
:1015E000FFF702F80020FEF7FFFF0120FFF732FFB0
:1015F00000BFFFF74DFF0128FBD1FFF793FF0B2042
:10160000FFF71EFF0C20FFF70FF801213820FEF72F
:10161000DBFF1B20FFF7A0FBFEF7FEFF0020FEF71D
:10162000EFFFFEF7F9FF0748FEF7F0FFFEF7F4FFC4
:101630003C20FEF7DFFFFEF7EFFF0120FEF7B2FFD1
:1016400010BD000040420F0010B50446012C01DA25
:10165000012000E00020042C01DD012100E0002138
:10166000084300B10124601E094A02EBC011802228
:101670000848FEF793FD8021064800F00FF8064861
:101680000168601E024A02EBC010416010BD0000FC
:1016900050420020504400201C40002070B50446F9
:1016A0000D460E480460006828440D4908608021FA
:1016B0000C48FFF797FC0C48006840F480500A493A
:1016C0000860064800680178084800F067F9034898
:1016D0000068401C0149086070BD000010400020F7
:1016E0001440002000000B40004000200000034098
:1016F0007047000030B5204CE46804F00204022C6E
:1017000001D11E4800E01E481B4CE46804F00104AF
:1017100004B140080146184CE46804F00404042CA9
:1017200005D1154C6468C4F30324631C5943124C5F
:10173000E468C4F3012424B1012C06D0022C13D197
:101740000DE00F4C0F4D2C6013E00B4CE468C4F31C
:101750000314641CB1FBF4F20A4C226009E04FF45C
:101760000044084D2C6004E049F64044054D2C60CF
:1017700000BF00BF30BD0000000002400024F400A4
:1017800000127A008C40002000B50D480D49C86158
:101790000846C0680020C8600846406800204860CD
:1017A00008468068002088600846006900200861BB
:1017B0000846406900204861FFF79CFF00BD00001B
:1017C000100000080000024010B50246936D546DF1
:1017D0001C4004EA01030BB9002000E0012010BD09
:1017E00010B502210548FFF7EFFF012805D1034896
:1017F000406D20F002000149486510BD000007401F
:101800000548406D00F0800020B104480068401C8D
:1018100002490860704700000080074058400020DF
:10182000704700000449486804490968884202D0AA
:101830000021014A516070470000034084400020AD
:1018400010B51021064800F045F8012806D11021F6
:10185000034800F027F801200249086010BD00008D
:10186000008003404040002002460B4B986A0B4B1F
:101870009A4205D140F0807020F0FF00084308E054
:10188000074B9A4205D140F0007020F47F4040EAB7
:101890000120014B986270470000024000000340A5
:1018A00000800340426C0A434264704721B1026BDE
:1018B00042F00102026304E0026B4FF6FE731A402D
:1018C00002637047024693690B400BB1012000E0B0
:1018D000002070470246136C0B400BB1012000E062
:1018E000002070472DE9F04F87B004460D4601A84F
:1018F000FFF750FC019F2448866A2448844206D1A1
:1019000006F0070101208840B7FBF0F708E0204807
:10191000844205D1C6F3022101208840B7FBF0F7CD
:1019200028688008B7FBF0F94FEA991809F03F0AD8
:10193000B8000AEB8811B0FBF1FB2868ABEB0000A4
:10194000C0012968B0FBF1F006900698022803D97F
:10195000002007B0BDE8F08FC4F82480C4F828A0A8
:10196000E66AA888E9880843298908436989084301
:101970000643E662266B4FF680708643A8890643CD
:1019800026630120E5E7000000000240000003405C
:10199000008003400146086880B27047CAB2026006
:1019A0007047704710B500201C49C8700871487115
:1019B0008871C87102200872032048720120887261
:1019C00000208870402008801548FFF70DFA01209C
:1019D00012498870202008801148FFF705FA8020FE
:1019E0000E4908800120887000200872012088724A
:1019F000022048720A48FFF7F7F94FF40040074900
:101A0000088001208870002008720120887202205E
:101A100048720348FFF7E8F910BD0000E4450020D4
:101A200000000B4010B501214020FFF76BFD0021A5
:101A30000C48FFF719FF4FF4E1300B4908606020B4
:101A400088800020C8800881102048814FF44070B1
:101A500088810448FFF746FF01210248FFF726FF6F
:101A600010BD000000000340F045002010B5FFF756
:101A700099FFFFF7D7FF80210248FFF7A5FA002062
:101A800010BD000000000B4000BFFEE7704710B51E
:101A90000346C3F30B0140F6FF70814201D11D20C4
:101AA00010BD40F6FA70814201DD1C20F8E70529DF
:101AB00001DA0020F4E70C461A2208E001F4006085
:101AC00000B106E04FF6FF7000EA4101921E0B2ABA
:101AD000F4DC00BF0B2A01DA201FE1E701F480608B
:101AE00000B1521C1046DBE74FF4C870FEF75EFEF3
:101AF000FFF74BFD01214805FFF704FD0121880593
:101B0000FFF700FD0121C805FFF7FCFC01210806D5
:101B1000FFF7F8FC01214806FFF7F4FC0121480714
:101B2000FFF7F0FC01218807FFF7ECFC01214804D6
:101B3000FFF7E8FCFFF762F8FFF748FD4FF40030CD
:101B4000E5490860FEF7AEFC0220FEF7CBFB032060
:101B5000FEF742FC0120FEF7B7FB0120FEF72EFC4A
:101B6000FEF710FEFFF782FFCC20DC4908705520FD
:101B70004870102088700120C870D9480968016039
:101B80007822D8490830FEF709FBCC20D3490870E9
:101B900055204870002088700120C870D24809681C
:101BA00001600020D0498870D0480078C870D048C3
:101BB00000684860002023E0CE4901EBC011C74A0D
:101BC00012680A60411CCB4A02EBC0129170C749EF
:101BD0000978C84A02EBC012D170C5490968C54AE4
:101BE00002EBC0125160002107E00023C14A02EB62
:101BF000C012083242F82130491C1E29F5DB401C76
:101C00000328D9DD0020BC4908604FF4807048608B
:101C1000400088604000C86040000861B748AF4994
:101C2000096801600520B5498870B0480078C8701F
:101C3000AF4800684860002005E00022AF49083145
:101C400041F82020401C1E28F7DB0020AC4908602A
:101C5000AC490860AC4908601D20FFF77DF81F20E3
:101C6000FFF77AF880219E48FFF718FD32E1012442
:101C7000F8E09E480068844228D09F4850F824002D
:101C8000A1490968084000280CD0042C0BD09A48C0
:101C900050F824109C48006888439B4908602046FF
:101CA000FEF78AFFDDE09948FFF782F9064606F461
:101CB000005050B9904850F8241093480068884369
:101CC000914908602046FEF777FFCAE08E48007809
:101CD00000F00400A8B30420FEF7FAFB88B3FEF777
:101CE0002FFBC0F30B058A480088284388490880E9
:101CF0007D48806D41197C4881652846FFF7C7FE05
:101D000006467C48083050F82600401C79490831C6
:101D100041F826007E48008800F4804050B17248A7
:101D2000006E4119704801667A4850F82610491C27
:101D300040F826107448006820F0040072490860DA
:101D400000BF7148007800F00800A8B34FF480206D
:101D5000FEF7BEFB80B3FEF76DFBC0F30B056E48CC
:101D6000008828436C4908805F48C06D41195E486F
:101D7000C1652846FFF78BFE06466648803850F856
:101D80002610491C40F826106348008800F4804063
:101D900058B15548406E4119534841665D488030FE
:101DA00050F82610491C40F826105748006820F0CB
:101DB00008005549086000BF5348006800F48030AF
:101DC000F0B15148008800F48050C8B980224B49D6
:101DD0004348FEF7E3F980214148FFF75FFC47489D
:101DE0003E49096801604248006844494860002053
:101DF000434908604448006820F480304249086044
:101E00004148007800F00C0058BB3B4850F82400D3
:101E10003D490968084020B3374850F824103A4833
:101E200000688843384908603948008800F48040D9
:101E300030B13948018836480088FFF71FF90DE0B6
:101E40003348008818B132480088FFF7DBF8324881
:101E5000008818B130480088FFF7D4F82046FEF714
:101E6000ABFE641C052CFFF604AF2C48006820492B
:101E7000096888420ED01E480068284908601C483E
:101E800000680A21B0FBF1F201FB120010B96620D4
:101E9000FEF7DCFB2248806900F0100070B9204892
:101EA000FFF778FD1F49088001201F4908601D4980
:101EB0000878FEF7CBFB00201A4908801848FFF786
:101EC00069FD184908801048008800F4805008B166
:101ED000FEF74EFFCBE6000000E100E02C400020C2
:101EE000904000202C1F0020504100203040002056
:101EF0001C40002050420020D0450020D04400204B
:101F000024400020284000200040002000800B409A
:101F1000344000205843002036400020204000205C
:101F200000000340744000203C4000202020204B53
:101F30004F44495A50524F4752414D20562E302E51
:101F4000362020204156414C5541424C4520434DBE
:101F500044733A202874296573743B20287A293BFE
:101F6000202861292866296C75783B202873297000
:101F700065637472494E54455252555054204D4F2A
:101F80004445533A204E31202876293B204E3220BA
:101F900028622920204E3320286E293B204E3420F1
:101FA000286D292000000000C81F002000400020EC
:101FB00090000000FC0000205820002090400020ED
:101FC000180C0000180100200000000000000000B4
:101FD0000000000000000000000000000000000001
:101FE000640000000000000000000000000000008D
:101FF00000000000000000000100000000000000E0
:1020000000000000000000000000000000000000D0
:1020100000000000000000000000000000000000C0
:1020200000000000000000000000000000000000B0
:1020300000000000000000000000000000000000A0
:102040000000000000000000000000000000000090
:082050000000000000127A00FC
:04000005200000C116
:00000001FF
