:020000042000DA
:10000000805A00205D010020350C00201B0B0020D1
:10001000210B0020F90500205919002000000000E4
:100020000000000000000000000000005514002047
:10003000A906002000000000E70E0020ED140020BB
:10004000FD050020FF0500206318002000000000CF
:10005000000000005106002021160020ED160020AF
:1000600051140020000000001F0B0020E50E0020AE
:100070005D19002000000000DD150020FD150020A6
:100080001D160020290500200000000001060020A8
:1000900053140020000000000000000000000000D9
:1000A000000000000000000000000000F705002034
:1000B000F1060020ED070020E9080020E5090020F6
:1000C00000F002F800F03AF80AA090E8000C824430
:1000D0008344AAF10107DA4501D100F02FF8AFF20D
:1000E000090EBAE80F0013F0010F18BFFB1A43F016
:1000F00001031847081E0000281E0000103A24BF04
:1001000078C878C1FAD8520724BF30C830C144BF7C
:1001100004680C60704700000023002400250026BE
:10012000103A28BF78C1FBD8520728BF30C148BF5A
:100130000B6070471FB51FBD10B510BD00F087F8EC
:100140001146FFF7F7FF01F037FC00F0A5F803B404
:10015000FFF7F2FF03BC00F0ADF80000094880474C
:1001600009480047FEE7FEE7FEE7FEE7FEE7FEE799
:10017000FEE7FEE7FEE7FEE704480549054A064BB1
:100180007047000085150020C10000208054002029
:10019000805A0020805600208056002040EA01034B
:1001A000024630B59B0710D14FF0013400E008C281
:1001B00008C91D1B9D4315EAC41FF8D013F0FF01A9
:1001C00002F8011B0DD01B0AF8E711F8013B002BC8
:1001D00002F8013B05D011F8013B002B02F8013B6E
:1001E000F3D130BD10B5203AC0F00B80B1E8185003
:1001F000203AA0E81850B1E81850A0E81850BFF411
:10020000F5AF5FEA027C24BFB1E81850A0E81850AF
:1002100044BF18C918C0BDE810405FEA827C24BF03
:1002200051F8043B40F8043B08BF7047D20728BF91
:1002300031F8023B48BF11F8012B28BF20F8023BE0
:1002400048BF00F8012B70477047704770477546EC
:1002500000F02CF8AE4605006946534620F0070032
:10026000854618B020B5FFF787FFBDE820404FF066
:1002700000064FF000074FF000084FF0000B21F090
:100280000701AC46ACE8C009ACE8C009ACE8C0095D
:10029000ACE8C0098D46704710B50446AFF3008046
:1002A0002046BDE81040FFF752BF000000487047ED
:1002B0002054002001491820ABBEFEE726000200B2
:1002C000704700000146054A106811B140F0010076
:1002D00001E020F00100014A1060704700800840F2
:1002E00010B50446134800F06FF90020114948602A
:1002F000084600F049F9104800F06FF900200E4957
:100300000860486088600846C46000200861486151
:100310004FF4006008834FF4106048830020C861E8
:1003200008624FF44050486200208862084600F09E
:1003300017F810BDD8530020F45300200146044A9A
:10034000126A0A400AB9002000E00120704700004C
:100350000080084001488069704700000080084024
:1003600010B5144B1A68144B1A40D0E900342344DA
:1003700084682344C46803EB041344692344C469B8
:100380002344446A234490F8284003EB44631A440E
:10039000084B596821F40031038C01EB4341054BB4
:1003A0001A605960038B034C2361438BA36003697C
:1003B000A36210BD008008400300FFF103480068FD
:1003C00040F00200014908607047000000800840CA
:1003D0000146054A506811B140F0010001E020F0EB
:1003E0000100014A506070470080084010B5044683
:1003F000134800F0E9F8002011494860084600F071
:10040000C3F8104800F0E9F800200E490860486081
:1004100088600846C4600020086148614FF40060AD
:1004200008834FF4106048830020C86108624FF4CD
:100430004050486200208862084600F017F810BD5E
:10044000D8530020F45300200146044A526A0A405F
:100450000AB9002000E00120704700000080084039
:100460000148C0697047000000800840114A516887
:10047000114A1140D0E900231A4483681A44C36822
:1004800002EB031243691A44C3691A44038C02EB5A
:100490008342436A1A4490F8283002EB43621144C5
:1004A000044A5160028B034B5A61428BDA60026945
:1004B000DA627047008008400300FBF1034840689F
:1004C00040F0020001494860704700000080084089
:1004D0000020094908604860886008610846806912
:1004E000002008628862C86048610846C069002030
:1004F0004862C862704700000080084000B50346AB
:1005000000F008F8184008B9002200E00122104667
:1005100000BD00000348006A0249496A00EB01403F
:10052000704700000080084010B50420FFF706FF68
:10053000012809D10F488069C0F30B000E490860FB
:10054000084600680D4908600420FFF77DFF012878
:100550000AD10848C069C0F30B0009490860084681
:1005600000680649C1F800014FF48041054800F0D9
:100570009DFC10BD0080084048400020BC4D00207C
:100580004C40002000000B4010B50479836803EB59
:100590000473C46823440469234444691919048B0F
:1005A000036803EB44531944044A054B1A43054BB3
:1005B0001B6893430B44034C236010BD00001EF0E6
:1005C0000000E1010080084000210160416081607D
:1005D000C16001614161816170470021016041603A
:1005E0008160C1600161416101834183C161016238
:1005F000416281627047704700BFFEE770477047F5
:100600007047000010B50446492C0BD06B2C0DD060
:10061000742C02D07A2C13D10DE08121094800F00E
:100620003BFF0DE01F2000F013FB09E040210648CE
:1006300000F032FF04E01021044800F02DFF00BF5D
:1006400000BF10BD90410020284100201042002032
:100650007047000010B500220F4B1A600F4B1A6054
:10066000D21E0F4B1A60002012E0002107E0372352
:1006700000EB40220B4C2244521C5354491CB1F550
:10068000007FF4DB002200EB4023064CE254401CC8
:100690000228EADB10BD00003C400020384000206A
:1006A0004040002072450020704700000748006865
:1006B00040F08070054908600548006840F001007E
:1006C000034908600020486070470000FCED00E02E
:1006D000001000E001B54FF4FA5100984843009033
:1006E00002E00098401E009000980028F9D108BD53
:1006F00070B5002400253648C06E401C3449C866D9
:100700001C2000F099FA0121324800F0C7FB30B1FB
:100710004FF480542E48C068401C2D49C860022107
:100720002C4800F0BBFB30B144F400542848006969
:10073000401C274908610421264800F0AFFB30B176
:100740004FF4104522484069401C21494861082166
:10075000204800F0A3FB30B145F400551C488069E7
:10076000401C1B4988614CB145B144F4804445F4B8
:1007700080451748C069401C1549C8611648408823
:10078000164909880843154908801548006801285A
:1007900000D070BD134804801348058011480088BC
:1007A00048B1FFF70BFE0D48008840F004000B49EC
:1007B00008800C4804800C48008838B1FFF77EFEA2
:1007C0000648008840F008000449088000BFE0E7C0
:1007D0005042002000800B4068450020004000206F
:1007E00030400020344000203640002070B5002406
:1007F00000253648006F401C344908671D2000F072
:100800001BFA0121324800F049FB30B14FF480540B
:100810002E48006A401C2D49086202212C4800F035
:100820003DFB30B144F400542848406A401C27493D
:1008300048620421264800F031FB30B14FF41045E6
:100840002248806A401C214988620821204800F023
:1008500025FB30B145F400551C48C06A401C1B49BB
:10086000C8624CB145B144F4804445F48045174812
:10087000006B401C154908631648408816490988D2
:1008800008431549088015480068022800D070BD4B
:1008900013480480134805801148008848B1FFF7C9
:1008A0008DFD0D48008840F004000B4908800C487D
:1008B00004800C48008838B1FFF700FE0648008825
:1008C00040F008000449088000BFE0E750420020E3
:1008D00000800B4068450020004000203040002090
:1008E000344000203640002070B5002400253648F2
:1008F000406F401C344948671E2000F09DF90121DB
:10090000324800F0CBFA30B14FF480542E48406B9F
:10091000401C2D49486302212C4800F0BFFA30B139
:1009200044F400542848806B401C27498863042104
:10093000264800F0B3FA30B14FF410452248C06B9E
:10094000401C2149C8630821204800F0A7FA30B1B3
:1009500045F400551C48006C401C1B4908644CB110
:1009600045B144F4804445F480451748406C401C30
:1009700015494864164840881649098808431549AE
:10098000088015480068032800D070BD1348048013
:10099000134805801148008848B1FFF70FFD0D4846
:1009A000008840F004000B4908800C4804800C4883
:1009B000008838B1FFF782FD0648008840F0080043
:1009C0000449088000BFE0E75042002000800B404F
:1009D00068450020004000203040002034400020C6
:1009E0003640002070B5002400253648806F401C3A
:1009F000344988671F2000F01FF90121324800F0B8
:100A00004DFA30B14FF480542E48806C401C2D4973
:100A1000886402212C4800F041FA30B144F40054BB
:100A20002848C06C401C2749C8640421264800F0AF
:100A300035FA30B14FF410452248006D401C214971
:100A400008650821204800F029FA30B145F4005526
:100A50001C48406D401C1B4948654CB145B144F4ED
:100A6000804445F480451748806D401C15498865D1
:100A700016484088164909880843154908801548D2
:100A80000068042800D070BD134804801348058016
:100A90001148008848B1FFF791FC0D48008840F0EC
:100AA00004000B4908800C4804800C48008838B1C9
:100AB000FFF704FD0648008840F00800044908805C
:100AC00000BFE0E75042002000800B406845002056
:100AD00000400020304000203440002036400020FC
:100AE00010B50446012C06D0022C08D0032C0AD0E5
:100AF000042C10D10BE01C2000F0AAF80BE01D2004
:100B000000F0A6F807E01E2000F0A2F803E01F2086
:100B100000F09EF800BF00BF10BD00BFFEE77047A9
:100B200000BFFEE710B500203D49C87001200871E4
:100B300000204871012088710020C8714FF40060C6
:100B40000880002088700220087201208872487294
:100B5000344800F0BFF800203149C8700120087106
:100B600000204871012088710020C8714FF4805026
:100B700008800020887002200872012088720320FB
:100B80004872294800F0A6F800202549C8700120C5
:100B9000087100204871012088710020C8714FF44D
:100BA000005008800020887002200872012088729E
:100BB000032048721C4800F08DF800201849C870C6
:100BC000087148718871C8710820088001208870F8
:100BD000164800F07FF83C201149088000208870FA
:100BE0008872134800F076F800200D49C87008712B
:100BF00048718871C8710220087203204872012070
:100C000088724FF4604008800120887000200872CC
:100C10000120887203204872024800F05BF810BD82
:100C2000BC53002000000B4000800B4000800C40B3
:100C300000000C407047000000F01F0201219140AD
:100C4000024A430942F823107047000080E100E0A7
:100C500000F01F02012191404209920002F1E022BE
:100C6000C2F800117047000010B58021134800F051
:100C70007FFD012800D010BD1148006811490968A6
:100C800088420ED20E48006801780C4800F0E6FD5C
:100C90000B480068401C0A49086000200A49088087
:100CA00009E08021094800F001F90948008820F492
:100CB00080500749088000BFDDE7000000000340C6
:100CC0001C400020204000202440002000000B4059
:100CD000004000202DE9FE4F4768D0F808C0D0F84A
:100CE0000C80D0F81090D0F814A0CDF808A0D0F85F
:100CF00018A0CDF804A0D0F81CA0CDF800A00022C8
:100D0000012303254FF001160C885FE004F0010A6F
:100D1000BAF1000F55D027EA030A91F802B00BFA96
:100D200002FB4AEA0B0791F808A04FEA420B0AFAC5
:100D30000BFA2CEA050B4AEA0B0C28EA030A91F895
:100D40000AB00BFA02FB4AEA0B0829EA060A91F8F4
:100D500003B002F1100E0BFA0EFB4AEA0B0A91F8EF
:100D600004B00BFA02FB4AEA0B09DDF808A02AEAF4
:100D7000060A91F805B00BFA0EFB4AEA0B0A91F845
:100D800006B00BFA02FB4AEA0B0ACDF808A091F86C
:100D900009A04FEA420B0AFA0BFADDF804B02BEA7D
:100DA000050B4AEA0B0ACDF804A0DDF800A02AEAF8
:100DB000030A91F807B00BFA02FB4AEA0B0ACDF8D6
:100DC00000A05B00AD007600521C6408002C9DD191
:100DD000DFF8C4A0504502D14FF01F0A01E04FF0E8
:100DE000000A27EA0A0AC0F804A0DFF8ACA05045C0
:100DF00002D14FF01F0A01E04FF0000A2CEA0A0A64
:100E0000C0F808A0DFF890A0504502D14FF01F0AAB
:100E100001E04FF0000A28EA0A0AC0F80CA0DFF847
:100E200078A0504502D14FF01F0A01E04FF0000AB0
:100E300029EA0A0AC0F810A0DFF85CA0504502D1E8
:100E40004FF01F0B01E04FF0000BDDF808A02AEA7D
:100E50000B0AC0F814A0DFF840A0504502D14FF0B3
:100E60001F0B01E04FF0000BDDF804A02AEA0B0A8B
:100E7000C0F818A0DFF820A0504502D14FF01F0B9A
:100E800001E04FF0000BDDF800A02AEA0B0AC0F8E1
:100E90001CA0BDE8FE8F000000000B400246136856
:100EA0000B400BB1012000E0002070470268054BA9
:100EB000984201D11F2300E000230B439A430260B4
:100EC0007047000000000B400268054B984201D1BA
:100ED0001F2300E000239A430A430260704700008A
:100EE00000000B407047704710B50146154A126864
:100EF0001D2A00DD10BD00200843134A1268B2B15C
:100F000000046FF30F00114A0E4B1B6852F82320A8
:100F100002430E4B0B4C246843F82420094A126804
:100F2000521C084B1A600022074B1A6007E0074A60
:100F3000044B1B6842F823000122034B1A6000BFD8
:100F4000D8E700001041002014410020F0440020A8
:100F500010B502460B4B1B681D2B00DD10BD002099
:100F6000084300046FF30F001043074B054C24683F
:100F700043F82400034B1B685B1C024C236000BF3A
:100F8000ECE7000010410020F04400200749084A27
:100F9000128841F8220006490988491C044A118038
:100FA0001146097801F00F01118070472841002097
:100FB000144000200149086070470000880040424A
:100FC00010B502460C4BD86820F003001043D860DF
:100FD000586820F4706040EA01205860074B1B6895
:100FE00043B10123054C241D23600023034C883C9E
:100FF000C4F88C3010BD0000000002408800404260
:1010000038B50020009000BF212000F075F905469A
:101010000098401C00900098B0F5C06F01D2002DE0
:10102000F2D0212000F068F908B1012400E000248A
:10103000204638BD014908607047000088014042E1
:101040000146034AD06820F440700843D0607047DE
:101050000000024000B500F0D1F90121C80600F0FF
:10106000BDF90648C06B40F481000449C8630846D6
:10107000C06B00F48100C86300BD000000800D401B
:101080002DE9FC4F0146DFF864B2DBF80CB00BF041
:10109000020BBBF1000F01D0954B00E0954BDFF840
:1010A0004CB2DBF80CB00BF0010BBBF1000F00D021
:1010B0005B081C46DFF834B2DBF80CB00BF0040B15
:1010C000BBF1000F0DD0DFF824B2DBF804B0CBF396
:1010D000032B0BF1010BCDF800B0DDF800B004FBE1
:1010E0000BF4DFF808B2DBF80CB0CBF3012BBBF14B
:1010F000000F06D0BBF1010F08D0BBF1020F28D1C1
:1011000022E0DFF8F0B1C1F800B027E0DFF8DCB191
:10111000DBF80CB04FF0080E0EEA1B1BBBF1000F02
:1011200001D1A0460DE0DFF8C4B1DBF80CB0CBF381
:10113000021B0BF1010B4FF0010E0EFA0BFEB4FB7C
:10114000FEF8C1F8008009E04FF4004BC1F800B090
:1011500004E049F6404BC1F800B000BF00BFDFF823
:101160008CB1DBF810B00BF0020BBBF1000F01D01B
:101170005F4D00E05F4DDFF874B1DBF810B00BF0AD
:10118000010BBBF1000F00D06D082F46DFF85CB1FA
:10119000DBF810B00BF0040BBBF1000F0DD0DFF843
:1011A0004CB1DBF804B0CBF3031B0BF1010BCDF812
:1011B00000B0DDF800B007FB0BF7B946DFF82CB143
:1011C000DBF810B00BF0100BBBF1000F01D04FEAB1
:1011D0005909C1F80490DFF814B1DBF818B04FEAF0
:1011E0001B1000F0080BBBF1000F02D1DFF804C1A7
:1011F0000BE000F0070B0BF1010B4FF0010E0EFAA4
:101200000BF0DFF8F0B0BBFBF0FCC1F80CC0DFF86E
:10121000DCB0DBF8180000F0080BBBF1000F04D1C4
:10122000DFF8CCB0CDF804B00DE000F0070B0BF107
:10123000010B4FF0010E0EFA0BF0DFF8B4B0BBFB60
:10124000F0FBCDF804B0DDF804B0C1F810B0DFF861
:101250009CB0DBF814B00BF0030BBBF1000F06D011
:10126000BBF1010F05D0BBF1020F06D103E01E4612
:1012700005E02E4603E0264601E03E4600BF00BFE3
:10128000DFF868B0DBF814B0CBF3011BBBF1000F43
:1012900006D0BBF1010F06D0BBF1020F08D105E06B
:1012A0004FF4004206E049F6404203E0324601E0D6
:1012B000624600BF00BFDFF834B0DBF814B04FEA7D
:1012C0001B2000F0080BBBF1000F01D1924609E092
:1012D00000F0070B0BF1010B4FF0010E0EFA0BF0B3
:1012E000B2FBF0FAC1F808A0BDE8FC8F0000024094
:1012F0000024F40000127A0010B5014601F0E0036A
:10130000202B02D1074B1A6801E0074BDA6B01F082
:101310001F040123A34013400BB1012000E0002073
:1013200010BD00000000024000800D400D4989689A
:1013300021F003010B4A9160012802D002280ED14E
:1013400006E00849896841F00101064A916007E01A
:101350000449896841F00301024A916000E000BF3E
:1013600000BF70470000024038B50020009000BF69
:101370002220FFF7C1FF05460098401C009000980E
:10138000B0F5C06F01D2002DF2D02220FFF7B4FFDC
:1013900008B1012400E00024204638BD014908605E
:1013A00070470000D807B04338B50020009000BF58
:1013B0001720FFF7A1FF05460098401C00900098F9
:1013C000B0F5C06F01D2002DF2D01720FFF794FFC7
:1013D00008B1012400E00024204638BD29B1064AA6
:1013E000D2690243044BDA6104E0034AD2698243C2
:1013F000014BDA61704700000000024000B5012097
:10140000FFF7CCFFFFF7D0FF0020FFF719FE0E48D3
:10141000C06800200C49C860084640680020486049
:10142000084680680020886008460069002008613E
:1014300008464069002048610846806900208861AC
:101440000248C86100BD0000000002401000000812
:1014500070477047704710B5FFF7FCFD0120FFF79C
:1014600065FF00BFFFF780FF0128FBD104210220A8
:10147000FFF7A6FD0120FFF79DFDFFF7C1FD012845
:1014800001D000BFFEE70120FFF7D4FD4FF48070CC
:10149000FFF7D6FD10BD000070B504460D460E489E
:1014A0000460006828440D49086080210C48FFF75B
:1014B0000BFD0C48008840F480500A49088006481B
:1014C00000680178084800F0C9F903480068401C2A
:1014D0000149086070BD00001C4000202040002031
:1014E00000000B4000400020000003407047000057
:1014F00030B5204CE46804F00204022C01D11E48EF
:1015000000E01E481B4CE46804F0010404B14008EC
:101510000146184CE46804F00404042C05D1154C71
:101520006468C4F30324631C5943124CE468C4F395
:10153000012424B1012C06D0022C13D10DE00F4C54
:101540000F4D2C6013E00B4CE468C4F30314641CCF
:10155000B1FBF4F20A4C226009E04FF40044084D5C
:101560002C6004E049F64044054D2C6000BF00BFEC
:1015700030BD0000000002400024F40000127A0098
:101580002441002000B50D480D49C8610846C068D7
:101590000020C8600846406800204860084680680F
:1015A00000208860084600690020086108464069FC
:1015B00000204861FFF79CFF00BD000010000008FC
:1015C0000000024010B50246936D546D1C4004EAC1
:1015D00001030BB9002000E0012010BD10B502216D
:1015E0000548FFF7EFFF012805D10348406D20F0C3
:1015F00002000149486510BD000007400548406DE4
:1016000000F0800020B104480068401C02490860D6
:101610007047000000800740E8400020704700004D
:1016200010B510212D4800F0ABF801284CD1102145
:101630002A4800F08DF8294800F00CF92849088064
:10164000012028490860254800F004F92449088051
:10165000224800F0FFF822490880204800F0FAF8FC
:101660001F4908801D4800F0F5F81D4908801B48F7
:1016700000F0F0F81A490880184800F0EBF8184913
:101680000880164800F0E6F815490880134800F075
:10169000E1F813490880114800F0DCF8104908808F
:1016A0000E4800F0D7F80E4908800C4800F0D2F838
:1016B0000B490880094800F0CDF80949088007481F
:1016C00000F0C8F8064908800448446806480068E5
:1016D000844202D000200149486010BD0000034050
:1016E00004410020CC4000201C41002010B51021F6
:1016F000064800F045F8012806D11021034800F003
:1017000027F801200249086010BD00000080034056
:10171000D040002002460B4B986A0B4B9A4205D1F1
:1017200040F0807020F0FF00084308E0074B9A4229
:1017300005D140F0007020F47F4040EA0120014BC9
:1017400098627047000002400000034000800340A0
:10175000426C0A434264704721B1026B42F00102BD
:10176000026304E0026B4FF6FE731A400263704797
:10177000024693690B400BB1012000E00020704746
:101780000246136C0B400BB1012000E000207047B3
:101790001AB1836B0B43836302E0836B8B438363D8
:1017A000704700002DE9F04F87B004460D4601A8B0
:1017B000FFF766FC019F2448866A2448844206D1CC
:1017C00006F0070101208840B7FBF0F708E0204849
:1017D000844205D1C6F3022101208840B7FBF0F70F
:1017E00028688008B7FBF0F94FEA991809F03F0A1A
:1017F000B8000AEB8811B0FBF1FB2868ABEB0000E6
:10180000C0012968B0FBF1F006900698022803D9C0
:10181000002007B0BDE8F08FC4F82480C4F828A0E9
:10182000E66AA888E9880843298908436989084342
:101830000643E662266B4FF680708643A88906430E
:1018400026630120E5E7000000000240000003409D
:10185000008003400146086880B27047CAB2026047
:101860007047704710B500201C49C8700871487156
:101870008871C871022008720320487201208872A2
:1018800000208870402008801548FFF723FA0120C7
:1018900012498870202008801148FFF71BFA802029
:1018A0000E4908800120887000200872012088728B
:1018B000022048720A48FFF70DFA4FF4004007492A
:1018C00008800120887000200872012088720220A0
:1018D00048720348FFF7FEF910BD0000BC5300201A
:1018E00000000B4010B501214020FFF777FD0021DB
:1018F0001048FFF70FFF4FF4E1300F4908606020F8
:1019000088800020C8800881102048814FF44070F2
:1019100088810848FFF746FF0620FFF799F9012262
:1019200010210448FFF734FF01210248FFF714FF9C
:1019300010BD000000000340C853002010B5FFF7A1
:1019400091FFFFF7CFFF80210248FFF7AFFA002099
:1019500010BD000000000B4000BFFEE7704710B54F
:101960000346C3F30B0140F6FF70814201D11D20F5
:1019700010BD40F6FA70814201DD1C20F8E7052910
:1019800001DA0020F4E70C461A2208E001F40060B6
:1019900000B106E04FF6FF7000EA4101921E0B2AEB
:1019A000F4DC00BF0B2A01DA201FE1E701F48060BC
:1019B00000B1521C0846DBE79EB04FF4C870FEF73A
:1019C00089FEFFF748FD01214805FFF707FD0121CA
:1019D0008805FFF703FD0121C805FFF7FFFC012182
:1019E0000806FFF7FBFC01214806FFF7F7FC012181
:1019F0004807FFF7F3FC01218807FFF7EFFC0121FF
:101A00004804FFF7EBFCFFF78DF84FF40030FE4978
:101A10000860FEF75DFD0220FEF762FC0320FEF782
:101A2000E5FC0120FEF74EFC0120FEF7D1FC1D2055
:101A3000FFF70EF91F20FFF70BF9FEF737FEFEF751
:101A400009FEFFF77BFF0020F0490880F04908807D
:101A500000BF07E00021EF4A42F82010EE4941F8AC
:101A60002000401C1028F5DB2020EC49087048209D
:101A70004870652088706C20C87008716F204871AC
:101A8000202088714920C871742008722020487273
:101A9000692088727320C8722020087374204873EC
:101AA000652088737320C8737420087400204874FC
:101AB000DBA1DF48FEF772FB4FF4FA700090C820FC
:101AC00001900320029004200390072004908020BE
:101AD000059002200690052007900620089003201C
:101AE000099080200A9002200B9003200C90042083
:101AF0000D9005200E9006200F90072010900820D2
:101B000011900920129000201390082014900020BA
:101B10001590092016908020179009201890062013
:101B2000199007201A9008201B9005201C90042073
:101B30001D9080226946BF48FEF754FBCC20BE4969
:101B4000087055204870002088700120C870084631
:101B50004068BA49486000208860B7484068B84982
:101B60004860052088700020886000BF05E00022E2
:101B7000B3490C3141F82020401C1E28F7DB00BF80
:101B8000002022E0AC49496800EB4012AD4B03EB6A
:101B900082025160411C00EB401203EB8202917003
:101BA000002100EB401203EB8202916000BF09E0CC
:101BB000002300EB4012A34D05EB82020C3242F8E9
:101BC0002130491C1E29F3DB401C0328DADB0020EE
:101BD0009D4908804FF48070488040008880400014
:101BE000C880400008810125BEE098480068854211
:101BF00013D0954830F81500954909880840002809
:101C00000AD0914830F815109148008888439049CF
:101C100008802846FEF764FFA5E08D48007800F0B4
:101C20000400A8B30420FEF769FC88B3FEF792FB1A
:101C3000C0F30B04874800882043864908807F480A
:101C4000C06D01197D48C1652046FFF788FE064634
:101C50007C480C3050F82600401C7A490C3141F881
:101C600026007C48008800F4804050B17348406EE4
:101C7000011972484166784850F82610491C40F80E
:101C800026107348008820F004007149088000BFC6
:101C90006F48007800F00800A0B34FF48020FEF7F2
:101CA0002DFC78B3FEF7DCFBC0F30B046B48008817
:101CB00020436A4908806148006E01195F48016647
:101CC0002046FFF74CFE06466348843850F826103D
:101CD000491C40F826106148008800F4804050B14B
:101CE0005648806E0119554881665B4850F82610A9
:101CF000491C40F826105648008820F00800544936
:101D0000088000BF5248007800F00C0058BB4E48D5
:101D100030F815004E490988084020B34A4830F889
:101D200015104B4800888843494908804948008875
:101D300000F4804030B14948018846480088FFF7E8
:101D400007F90DE04348008818B142480088FFF7C2
:101D5000CBF84248008818B140480088FFF7C4F823
:101D60002846FEF7BDFE6D1C052DFFF63EAFB2E026
:101D70003748007800F0040010B30420FEF7BEFBE3
:101D800078B1FEF7E7FA0446C4F30B00344909685A
:101D90000843334908602E48008820F004002C498D
:101DA00008802B48007800F00C0048B92C480068E7
:101DB000FFF7ECF82648008820F00100244908804D
:101DC0002348007800F00800E0B14FF48020FEF7CF
:101DD00095FB80B1FEF744FB0446224800EA04402C
:101DE0001F49096808431E4908601948008820F007
:101DF0000800174908801648007800F00C0008B960
:101E0000174831E039E0000000E100E01440002014
:101E10001640002028410020104200206841002088
:101E200048656C6C6F207372742074657374000065
:101E30007C4100209041002028400020504200209A
:101E4000E4440020D44200206845002030400020B7
:101E50000040002034400020E843002036400020AD
:101E6000044000200000FF0F0068FFF78FF81A48B9
:101E7000008820F00100184908801748008880F089
:101E8000010016490988012222EA1121084010B1F7
:101E90001F20FEF7DDFE1248806900F0100070B9C7
:101EA0000F48FFF7D7FC0F49088001200E49086052
:101EB0000C490878FEF7A6FB00200A49088008486C
:101EC000FFF7C8FC074908800348008800F48050E9
:101ED00008B1FEF7C9FE4BE7004000200240002099
:101EE0000000034004410020CC40002048656C6C99
:101EF0006F20737472696E67000000001C1F002061
:101F00000040002028010000FC00002044200020A8
:101F1000284100205819000018010020000000008E
:101F200000000000000000000000000000000000B1
:101F300000000000EC1E0020000000000000000077
:101F4000640000000000000000000000010000002C
:101F5000000000000000000000000000FDFFFFFF87
:101F60000000000000000000000000000000000071
:101F7000000000000A000000000000002000000037
:101F800000000000000020406666663FCDCCCC3DDE
:101F90000000000000000000000000000000000041
:101FA0000000000000000000000000000000000031
:101FB0000000000000000000000000000000000021
:101FC0000000000000000000000000000000000011
:101FD0000000000000000000000000000000000001
:101FE00000000000000000000000000000000000F1
:101FF00000000000000000000000000000000000E1
:1020000000000000000000000000000000000000D0
:1020100000000000000000000000000000000000C0
:1020200000000000000000000000000000000000B0
:1020300000000000000000000000000000000000A0
:0420400000127A0010
:04000005200000C116
:00000001FF
