:020000042000DA
:10000000385100205D010020B10C0020970B00202A
:100010009D0B0020CD060020451A002000000000A6
:10002000000000000000000000000000C5140020D7
:100030002707002000000000630F0020D9150020D2
:10004000D1060020D30600204F1900200000000038
:1000500000000000250700200D170020D917002000
:10006000C1140020000000009B0B0020610F002045
:10007000491A002000000000C9160020E9160020DF
:10008000091700202D05002000000000D5060020E3
:10009000C314002000000000000000000000000069
:1000A000000000000000000000000000FD0500202E
:1000B0006D0700206908002065090020610A002002
:1000C00000F002F800F03AF80AA090E8000C824430
:1000D0008344AAF10107DA4501D100F02FF8AFF20D
:1000E000090EBAE80F0013F0010F18BFFB1A43F016
:1000F00001031847E41E0000041F0000103A24BF4B
:1001000078C878C1FAD8520724BF30C830C144BF7C
:1001100004680C60704700000023002400250026BE
:10012000103A28BF78C1FBD8520728BF30C148BF5A
:100130000B6070471FB51FBD10B510BD00F08AF8E9
:100140001146FFF7F7FF01F0ADFC00F0A8F803B48B
:10015000FFF7F2FF03BC00F0AFF80000094880474A
:1001600009480047FEE7FEE7FEE7FEE7FEE7FEE799
:10017000FEE7FEE7FEE7FEE704480549054A064BB1
:100180007047000071160020C1000020384B00208D
:1001900038510020384D0020384D002010B5203A4D
:1001A000C0F00B80B1E81850203AA0E81850B1E830
:1001B0001850A0E81850BFF4F5AF5FEA027C24BFE6
:1001C000B1E81850A0E8185044BF18C918C0BDE8DD
:1001D00010405FEA827C24BF51F8043B40F8043BA6
:1001E00008BF7047D20728BF31F8023B48BF11F85B
:1001F000012B28BF20F8023B48BF00F8012B7047B5
:100200004FF0000200B5134694469646203922BFAF
:10021000A0E80C50A0E80C50B1F12001BFF4F7AFFA
:10022000090728BFA0E80C5048BF0CC05DF804EBDC
:10023000890028BF40F8042B08BF704748BF20F84A
:10024000022B11F0804F18BF00F8012B7047704748
:1002500070477047754600F02BF8AE4605006946BA
:10026000534620F00700854618B020B5FFF784FFFD
:10027000BDE820404FF000064FF000074FF00008A7
:100280004FF0000B21F00701AC46ACE8C009ACE828
:10029000C009ACE8C009ACE8C0098D46704710B58C
:1002A0000446AFF300802046BDE81040FFF74FBF83
:1002B00000487047D44A002001491820ABBEFEE731
:1002C00026000200704700000146054A106811B17F
:1002D00040F0010001E020F00100014A1060704789
:1002E0000080084010B50446134800F06FF9002064
:1002F00011494860084600F049F9104800F06FF9CC
:1003000000200E490860486088600846C4600020EC
:10031000086148614FF4006008834FF4106048831F
:100320000020C86108624FF4405048620020886293
:10033000084600F017F810BD8C4A0020A84A00209B
:100340000146044A126A0A400AB9002000E001206E
:100350007047000000800840014880697047000035
:100360000080084010B5144B1A68144B1A40D0E9AD
:100370000034234484682344C46803EB04134469B1
:100380002344C4692344446A234490F8284003EB7F
:1003900044631A44084B596821F40031038C01EB83
:1003A0004341054B1A605960038B034C2361438B17
:1003B000A3600369A36210BD008008400300FFF141
:1003C0000348006840F002000149086070470000DF
:1003D000008008400146054A506811B140F0010014
:1003E00001E020F00100014A5060704700800840A1
:1003F00010B50446134800F0E9F8002011494860A0
:10040000084600F0C3F8104800F0E9F800200E4953
:100410000860486088600846C46000200861486140
:100420004FF4006008834FF4106048830020C861D7
:1004300008624FF44050486200208862084600F08D
:1004400017F810BD8C4A0020A84A00200146044A33
:10045000526A0A400AB9002000E0012070470000FB
:10046000008008400148C0697047000000800840D3
:10047000114A5168114A1140D0E900231A44836897
:100480001A44C36802EB031243691A44C3691A444D
:10049000038C02EB8342436A1A4490F8283002EB43
:1004A00043621144044A5160028B034B5A61428BF0
:1004B000DA600269DA627047008008400300FBF1ED
:1004C0000348406840F0020001494860704700005E
:1004D0000080084000200949086048608860086181
:1004E00008468069002008628862C8604861084642
:1004F000C06900204862C862704700000080084060
:1005000000B5034600F008F8184008B9002200E0E2
:100510000122104600BD00000348006A0249496AF2
:1005200000EB0140704700000080084010B5042037
:10053000FFF706FF012809D10F488069C0F30B00BF
:100540000E490860084600680D4908600420FFF75E
:100550007DFF01280AD10848C069C0F30B00094992
:100560000860084600680649C1F800014FF4804160
:10057000054800F0D9FC10BD00800840584000201C
:10058000704600205C40002000000B4010B504794C
:10059000836803EB0473C4682344046923444469F7
:1005A0001919048B036803EB44531944044A054B9F
:1005B0001A43054B1B6893430B44034C236010BD47
:1005C00000001EF00000E1010080084000210160F1
:1005D00041608160C16001614161816170470021BA
:1005E000016041608160C1600161416101834183BB
:1005F000C1610162416281627047000010B5022052
:1006000000F01CF8012804D107480068401C064986
:100610000860042000F012F80448006D40F0060065
:100620000249086510BD00002C40002000800D40EC
:1006300001490860704700009007B0430146044A32
:10064000126D0A400AB1012000E00020704700004E
:1006500000800D4029B1064A126D0243044B1A6511
:1006600004E0034A126D8243014B1A657047000093
:1006700000800D400149086070470000FC07B0434E
:100680000149C8647047000000800D4001490864BA
:100690007047000000800D400149886470470000E9
:1006A00000800D4000BF024800680028FBD1704761
:1006B000180AB043044AD26B22F00C0100F00C027D
:1006C0001143014AD163704700800D4000BFFEE72F
:1006D000704770477047000010B50446492C0BD096
:1006E0006B2C0DD0742C02D07A2C13D10DE081210B
:1006F000094800F047FF0DE01F2000F0E7FA09E08D
:100700004021064800F03EFF04E01021044800F0BC
:1007100039FF00BF00BF10BD20410020B8400020BD
:10072000A4410020704770470748006840F080707F
:10073000054908600548006840F001000349086069
:100740000020486070470000FCED00E0001000E071
:1007500001B54FF4FA5100984843009002E0009828
:10076000401E009000980028F9D108BD70B5002403
:1007700000253648806E401C344988661C2000F0F5
:1007800099FA0121324800F0C7FB30B14FF4805490
:100790002E488068401C2D49886002212C4800F0BA
:1007A000BBFB30B144F400542848C068401C2749C2
:1007B000C8600421264800F0AFFB30B14FF410456B
:1007C00022480069401C214908610821204800F0A6
:1007D000A3FB30B145F400551C484069401C1B493F
:1007E00048614CB145B144F4804445F48045174814
:1007F0008069401C15498861164840881649096877
:1008000008431549086015480068012800D070BDEC
:1008100013480480134805801148008848B1FFF749
:10082000CFFD0D48006840F004000B4908600C48FB
:1008300004800C48008838B1FFF742FE0648006883
:1008400040F008000449086000BFE0E7E4410020F0
:1008500000800B4064450020004000204040002004
:10086000444000204640002070B500240025364852
:10087000C06E401C3449C8661D2000F01BFA0121DF
:10088000324800F049FB30B14FF480542E48C06923
:10089000401C2D49C86102212C4800F03DFB30B1BD
:1008A00044F400542848006A401C27490862042187
:1008B000264800F031FB30B14FF410452248406A21
:1008C000401C214948620821204800F025FB30B136
:1008D00045F400551C48806A401C1B4988624CB195
:1008E00045B144F4804445F480451748C06A401C33
:1008F0001549C862164840881649096808431549D1
:10090000086015480068022800D070BD13480480B4
:10091000134805801148008848B1FFF751FD0D4884
:10092000006840F004000B4908600C4804800C4843
:10093000008838B1FFF7C4FD0648006840F00800A1
:100940000449086000BFE0E7E441002000800B405C
:10095000644500200040002040400020444000202A
:100960004640002070B5002400253648006F401C2A
:10097000344908671E2000F09DF90121324800F03B
:10098000CBFA30B14FF480542E48006B401C2D49F7
:10099000086302212C4800F0BFFA30B144F400543F
:1009A0002848406B401C274948630421264800F032
:1009B000B3FA30B14FF410452248806B401C2149F6
:1009C00088630821204800F0A7FA30B145F40055AB
:1009D0001C48C06B401C1B49C8634CB145B144F472
:1009E000804445F480451748006C401C1549086454
:1009F0001648408816490968084315490860154893
:100A00000068032800D070BD134804801348058097
:100A10001148008848B1FFF7D3FC0D48006840F04A
:100A200004000B4908600C4804800C48008838B169
:100A3000FFF746FD0648006840F0080004490860DA
:100A400000BFE0E7E441002000800B406445002047
:100A5000004000204040002044400020464000204C
:100A600070B5002400253648406F401C3449486763
:100A70001F2000F01FF90121324800F04DFA30B17B
:100A80004FF480542E48406C401C2D49486402218C
:100A90002C4800F041FA30B144F400542848806CEE
:100AA000401C274988640421264800F035FA30B1FB
:100AB0004FF410452248C06C401C2149C8640821ED
:100AC000204800F029FA30B145F400551C48006D6B
:100AD000401C1B4908654CB145B144F4804445F4C1
:100AE00080451748406D401C1549486516484088A8
:100AF0001649096808431549086015480068042824
:100B000000D070BD13480480134805801148008848
:100B100048B1FFF755FC0D48006840F004000B4950
:100B200008600C4804800C48008838B1FFF7C8FC06
:100B30000648006840F008000449086000BFE0E78C
:100B4000E441002000800B4064450020004000206C
:100B500040400020444000204640002010B504469C
:100B6000012C06D0022C08D0032C0AD0042C10D162
:100B70000BE01C2000F0AAF80BE01D2000F0A6F806
:100B800007E01E2000F0A2F803E01F2000F09EF80E
:100B900000BF00BF10BD00BFFEE7704700BFFEE70B
:100BA00010B500203D49C87001200871002048712F
:100BB000012088710020C8714FF400600880002077
:100BC000887002200872012088724872344800F050
:100BD000BFF800203149C870012008710020487119
:100BE000012088710020C8714FF4805008800020D7
:100BF00088700220087201208872032048722948F8
:100C000000F0A6F800202549C870012008710020D6
:100C10004871012088710020C8714FF4005008808D
:100C20000020887002200872012088720320487218
:100C30001C4800F08DF800201849C87008714871F0
:100C40008871C8710820088001208870164800F05B
:100C50007FF83C2011490880002088708872134872
:100C600000F076F800200D49C8700871487188714D
:100C7000C8710220087203204872012088724FF464
:100C8000604008800120887000200872012088726E
:100C900003204872024800F05BF810BD704A002043
:100CA00000000B4000800B4000800C4000000C4016
:100CB0007047000000F01F0201219140024A4309E1
:100CC00042F823107047000080E100E000F01F02AE
:100CD000012191404209920002F1E022C2F8001184
:100CE0007047000010B58021134800F0B7FD0128BF
:100CF00000D010BD114800681149096888420ED221
:100D00000E48006801780C4800F01EFE0B48006891
:100D1000401C0A49086000200A49088009E0802137
:100D2000094800F001F90948006820F4805007499B
:100D3000086000BFDDE70000000003402040002005
:100D4000244000202840002000000B4000400020EC
:100D50002DE9FE4F4768D0F808C0D0F80C80D0F8D5
:100D60001090D0F814A0CDF808A0D0F818A0CDF8B5
:100D700004A0D0F81CA0CDF800A000220123032578
:100D80004FF001160C885FE004F0010ABAF1000F81
:100D900055D027EA030A91F802B00BFA02FB4AEA9F
:100DA0000B0791F808A04FEA420B0AFA0BFA2CEA5B
:100DB000050B4AEA0B0C28EA030A91F80AB00BFA71
:100DC00002FB4AEA0B0829EA060A91F803B002F18D
:100DD000100E0BFA0EFB4AEA0B0A91F804B00BFA5C
:100DE00002FB4AEA0B09DDF808A02AEA060A91F894
:100DF00005B00BFA0EFB4AEA0B0A91F806B00BFAA3
:100E000002FB4AEA0B0ACDF808A091F809A04FEAC4
:100E1000420B0AFA0BFADDF804B02BEA050B4AEA9A
:100E20000B0ACDF804A0DDF800A02AEA030A91F825
:100E300007B00BFA02FB4AEA0B0ACDF800A05B00F0
:100E4000AD007600521C6408002C9DD1DFF8C4A0D0
:100E5000504502D14FF01F0A01E04FF0000A27EA87
:100E60000A0AC0F804A0DFF8ACA0504502D14FF048
:100E70001F0A01E04FF0000A2CEA0A0AC0F808A095
:100E8000DFF890A0504502D14FF01F0A01E04FF06B
:100E9000000A28EA0A0AC0F80CA0DFF878A050453A
:100EA00002D14FF01F0A01E04FF0000A29EA0A0AB6
:100EB000C0F810A0DFF85CA0504502D14FF01F0B26
:100EC00001E04FF0000BDDF808A02AEA0B0AC0F899
:100ED00014A0DFF840A0504502D14FF01F0B01E0F5
:100EE0004FF0000BDDF804A02AEA0B0AC0F818A0A6
:100EF000DFF820A0504502D14FF01F0B01E04FF06A
:100F0000000BDDF800A02AEA0B0AC0F81CA0BDE81F
:100F1000FE8F000000000B40024613680B400BB12F
:100F2000012000E0002070470268054B984201D183
:100F30001F2300E000230B439A4302607047000028
:100F400000000B400268054B984201D11F2300E0CE
:100F500000239A430A4302607047000000000B40E0
:100F60007047704710B50146184A12681D2A06DD01
:100F7000174A126842F48032154B1A6010BD0020E7
:100F80000843144A1268B2B100046FF30F00124A0A
:100F90000E4B1B6852F8232002430F4B0B4C246866
:100FA00043F82420094A1268521C084B1A60002298
:100FB000084B1A6007E0084A044B1B6842F82300FC
:100FC0000122044B1A6000BFD8E700003440002023
:100FD0000040002038400020EC4400200749084A27
:100FE000128841F8220006490988491C044A1180E8
:100FF0001146097801F00F0111807047B8400020B8
:1010000018400020014908607047000088004042F5
:1010100010B502460C4BD86820F003001043D8608E
:10102000586820F4706040EA01205860074B1B6844
:1010300043B10123054C241D23600023034C883C4D
:10104000C4F88C3010BD000000000240880040420F
:1010500038B50020009000BF212000F075F905464A
:101060000098401C00900098B0F5C06F01D2002D90
:10107000F2D0212000F068F908B1012400E000243A
:10108000204638BD01490860704700008801404291
:101090000146034AD06820F440700843D06070478E
:1010A0000000024000B500F0E1F90121C80600F09F
:1010B000C7F90648C06B40F481000449C86308467C
:1010C000C06B00F48100C86300BD000000800D40CB
:1010D0002DE9FC4F0146DFF864B2DBF80CB00BF0F1
:1010E000020BBBF1000F01D0954B00E0954BDFF8F0
:1010F0004CB2DBF80CB00BF0010BBBF1000F00D0D1
:101100005B081C46DFF834B2DBF80CB00BF0040BC4
:10111000BBF1000F0DD0DFF824B2DBF804B0CBF345
:10112000032B0BF1010BCDF800B0DDF800B004FB90
:101130000BF4DFF808B2DBF80CB0CBF3012BBBF1FA
:10114000000F06D0BBF1010F08D0BBF1020F28D170
:1011500022E0DFF8F0B1C1F800B027E0DFF8DCB141
:10116000DBF80CB04FF0080E0EEA1B1BBBF1000FB2
:1011700001D1A0460DE0DFF8C4B1DBF80CB0CBF331
:10118000021B0BF1010B4FF0010E0EFA0BFEB4FB2C
:10119000FEF8C1F8008009E04FF4004BC1F800B040
:1011A00004E049F6404BC1F800B000BF00BFDFF8D3
:1011B0008CB1DBF810B00BF0020BBBF1000F01D0CB
:1011C0005F4D00E05F4DDFF874B1DBF810B00BF05D
:1011D000010BBBF1000F00D06D082F46DFF85CB1AA
:1011E000DBF810B00BF0040BBBF1000F0DD0DFF8F3
:1011F0004CB1DBF804B0CBF3031B0BF1010BCDF8C2
:1012000000B0DDF800B007FB0BF7B946DFF82CB1F2
:10121000DBF810B00BF0100BBBF1000F01D04FEA60
:101220005909C1F80490DFF814B1DBF818B04FEA9F
:101230001B1000F0080BBBF1000F02D1DFF804C156
:101240000BE000F0070B0BF1010B4FF0010E0EFA53
:101250000BF0DFF8F0B0BBFBF0FCC1F80CC0DFF81E
:10126000DCB0DBF8180000F0080BBBF1000F04D174
:10127000DFF8CCB0CDF804B00DE000F0070B0BF1B7
:10128000010B4FF0010E0EFA0BF0DFF8B4B0BBFB10
:10129000F0FBCDF804B0DDF804B0C1F810B0DFF811
:1012A0009CB0DBF814B00BF0030BBBF1000F06D0C1
:1012B000BBF1010F05D0BBF1020F06D103E01E46C2
:1012C00005E02E4603E0264601E03E4600BF00BF93
:1012D000DFF868B0DBF814B0CBF3011BBBF1000FF3
:1012E00006D0BBF1010F06D0BBF1020F08D105E01B
:1012F0004FF4004206E049F6404203E0324601E086
:10130000624600BF00BFDFF834B0DBF814B04FEA2C
:101310001B2000F0080BBBF1000F01D1924609E041
:1013200000F0070B0BF1010B4FF0010E0EFA0BF062
:10133000B2FBF0FAC1F808A0BDE8FC8F0000024043
:101340000024F40000127A0010B5014601F0E00319
:10135000202B02D1074B1A6801E0074BDA6B01F032
:101360001F040123A34013400BB1012000E0002023
:1013700010BD00000000024000800D400146034AFD
:10138000906920F00F000843906170470000024010
:101390000D49896821F003010B4A9160012802D0B0
:1013A00002280ED106E00849896841F00101064A89
:1013B000916007E00449896841F00301024A9160A5
:1013C00000E000BF00BF70470000024038B50020B9
:1013D000009000BF2220FFF7B7FF05460098401C91
:1013E00000900098B0F5C06F01D2002DF2D02220FD
:1013F000FFF7AAFF08B1012400E00024204638BD11
:101400000149086070470000D807B04338B5002094
:10141000009000BF1720FFF797FF05460098401C7B
:1014200000900098B0F5C06F01D2002DF2D01720C7
:10143000FFF78AFF08B1012400E00024204638BDF0
:1014400029B1064AD2690243044BDA6104E0034A37
:10145000D2698243014BDA6170470000000002400C
:1014600001490860704700002003404200B5012098
:10147000FFF7C6FFFFF7CAFF0020FFF709FE0E487F
:10148000C06800200C49C8600846406800204860D9
:1014900008468068002088600846006900200861CE
:1014A000084640690020486108468069002088613C
:1014B0000248C86100BD00000000024010000008A2
:1014C00070477047704710B5FFF7ECFD0120FFF73C
:1014D0005FFF00BFFFF77AFF0128FBD10421022044
:1014E000FFF796FD0120FFF78DFDFFF7B1FD012805
:1014F00001D000BFFEE70120FFF7C4FD4FF480706C
:10150000FFF7C6FD10BD000010B501214807FFF729
:1015100097FF0121C806FFF793FF0120FFF7AAF804
:101520000020FFF7A7F80120FFF732FF00BFFFF709
:101530004DFF0128FBD1FFF793FF0B20FFF71EFFA4
:101540000C20FFF7B7F801213820FFF783F81B20A4
:10155000FFF7BCFBFFF7A6F80020FFF797F8FFF7AF
:10156000A1F80748FFF798F8FFF79CF83C20FFF731
:1015700087F8FFF797F80120FFF75AF810BD000031
:1015800040420F0070B504460D460E4804600068E6
:1015900028440D49086080210C48FFF7D3FC0C4813
:1015A000006840F480500A490860064800680178E5
:1015B000084800F0C9F903480068401C0149086068
:1015C00070BD0000204000202440002000000B409F
:1015D00000400020000003407047000030B5204C60
:1015E000E46804F00204022C01D11E4800E01E4809
:1015F0001B4CE46804F0010404B140080146184C97
:10160000E46804F00404042C05D1154C6468C4F3A8
:101610000324631C5943124CE468C4F3012424B12D
:10162000012C06D0022C13D10DE00F4C0F4D2C6075
:1016300013E00B4CE468C4F30314641CB1FBF4F234
:101640000A4C226009E04FF40044084D2C6004E08D
:1016500049F64044054D2C6000BF00BF30BD00007E
:10166000000002400024F40000127A00B440002080
:1016700000B50D480D49C8610846C0680020C86023
:10168000084640680020486008468068002088605E
:10169000084600690020086108464069002048614A
:1016A000FFF79CFF00BD0000100000080000024092
:1016B00010B50246936D546D1C4004EA01030BB94A
:1016C000002000E0012010BD10B502210548FFF701
:1016D000EFFF012805D10348406D20F002000149C9
:1016E000486510BD000007400548406D00F08000CF
:1016F00020B104480068401C02490860704700009F
:1017000000800740804000207047000010B5102185
:101710002D4800F0ABF801284CD110212A4800F0E8
:101720008DF8294800F00CF9284908800120284943
:101730000860254800F004F924490880224800F098
:10174000FFF822490880204800F0FAF81F49088075
:101750001D4800F0F5F81D4908801B4800F0F0F81E
:101760001A490880184800F0EBF818490880164814
:1017700000F0E6F815490880134800F0E1F8134935
:101780000880114800F0DCF8104908800E4800F08D
:10179000D7F80E4908800C4800F0D2F80B490880B1
:1017A000094800F0CDF809490880074800F0C8F85A
:1017B000064908800448446806480068844202D00C
:1017C00000200149486010BD000003409C400020FB
:1017D00064400020AC40002010B51021064800F005
:1017E00045F8012806D11021034800F027F8012010
:1017F0000249086010BD00000080034068400020DE
:1018000002460B4B986A0B4B9A4205D140F0807010
:1018100020F0FF00084308E0074B9A4205D140F052
:10182000007020F47F4040EA0120014B986270472D
:10183000000002400000034000800340426C0A4365
:101840004264704721B1026B42F00102026304E07E
:10185000026B4FF6FE731A400263704702469369AB
:101860000B400BB1012000E0002070470246136CD2
:101870000B400BB1012000E0002070471AB1836BD0
:101880000B43836302E0836B8B43836370470000E9
:101890002DE9F04F87B004460D4601A8FFF718FC6C
:1018A000019F2448866A2448844206D106F0070135
:1018B00001208840B7FBF0F708E02048844205D1BA
:1018C000C6F3022101208840B7FBF0F728688008A2
:1018D000B7FBF0F94FEA991809F03F0AB8000AEB94
:1018E0008811B0FBF1FB2868ABEB0000C001296850
:1018F000B0FBF1F006900698022803D9002007B04B
:10190000BDE8F08FC4F82480C4F828A0E66AA8884F
:10191000E988084329890843698908430643E66240
:10192000266B4FF680708643A88906432663012004
:10193000E5E7000000000240000003400080034093
:101940000146086880B27047CAB2026070477047AB
:1019500010B500201C49C870087148718871C871A1
:1019600002200872032048720120887200208870CB
:10197000402008801548FFF7EBF9012012498870D4
:10198000202008801148FFF7E3F980200E490880E5
:10199000012088700020087201208872022048729D
:1019A0000A48FFF7D5F94FF40040074908800120A5
:1019B0008870002008720120887202204872034853
:1019C000FFF7C6F910BD0000704A002000000B4070
:1019D00010B501214020FFF733FD00211048FFF72B
:1019E0000FFF4FF4E1300F4908606020888000202D
:1019F000C8800881102048814FF4407088810848D1
:101A0000FFF746FF0620FFF761F901221021044885
:101A1000FFF734FF01210248FFF714FF10BD00005B
:101A2000000003407C4A002010B5FFF791FFFFF74C
:101A3000CFFF80210248FFF777FA002010BD000099
:101A400000000B4000BFFEE7704710B50346C3F32C
:101A50000B0140F6FF70814201D11D2010BD40F600
:101A6000FA70814201DD1C20F8E7052901DA002027
:101A7000F4E70C461A2208E001F4006000B106E029
:101A80004FF6FF7000EA4101921E0B2AF4DC00BF02
:101A90000B2A01DA201FE1E701F4806000B1521C3B
:101AA0000846DBE79EB04FF4C870FEF751FEFFF723
:101AB0000AFD01214805FFF7C3FC01218805FFF756
:101AC000BFFC0121C805FFF7BBFC01210806FFF799
:101AD000B7FC01214806FFF7B3FC01214807FFF7D7
:101AE000AFFC01218807FFF7ABFC01214804FFF799
:101AF000A7FCFFF755F8FFF707FD4FF40030FE494C
:101B00000860FEF7E7FC0220FEF7ECFB0320FEF77F
:101B10006FFC0120FEF7D8FB0120FEF75BFC1D20C7
:101B2000FFF7D4F81F20FFF7D1F8FEF7FDFDFFF710
:101B30007BFF0020F1490880F149088000BF07E0E1
:101B40000021F04A42F82010EF4941F82000401CE3
:101B50001028F5DBCC20ED49087055204870002096
:101B600088700120C870EA480968016078226946D7
:101B70000830FEF713FB8121E548FFF703FDE54838
:101B8000E24909680160E4480068E2494860782257
:101B90006946E0480830FEF701FBE048DB49096888
:101BA00001600520DD498870DB4800684860002737
:101BB000002005E00022D949083141F82020401CCE
:101BC0001E28F7DB0020D6490860D649086000BF10
:101BD0001CE0D54901EBC011CC4A12680A60411CD7
:101BE000D14A02EBC01291700021CF4A02EBC01221
:101BF000516000BF07E00023CB4A02EBC01208325D
:101C000042F82130491C1E29F5DB401C0328E0DB8B
:101C10000020C64908804FF48070488040008880CA
:101C20004000C880400008810020C1490860BBE135
:101C30000125E1E0BF480068854213D0BB4830F879
:101C40001500BB490968084000280AD0B74830F899
:101C50001510B74800688843B54908602846FEF764
:101C60007DFFC8E0B248007800F00400A8B304206B
:101C7000FEF746FC88B3FEF76FFBC0F30B04AE48DB
:101C800000882043AC490880A248806D0119A14812
:101C900081652046FFF7D9FE0646A348083050F874
:101CA0002600401CA049083141F82600A2480088BF
:101CB00000F4804050B19748006E011995480166C4
:101CC0009E4850F82610491C40F826109848006895
:101CD00020F004009649086000BF9548007800F0A5
:101CE0000800A0B34FF48020FEF70AFC78B3FEF79B
:101CF000B9FBC0F30B049248008820439049088048
:101D00008448C06D01198348C1652046FFF79DFED8
:101D100006468A48803850F82610491C40F826109C
:101D20008748008800F4804050B17A48406E01191D
:101D300078484166814850F82610491C40F8261022
:101D40007B48006820F008007949086000BF7848A7
:101D5000006800F48030F0B17548008800F48050CD
:101D6000C8B980226D496A48FEF718FA8021684890
:101D7000FFF708FC69486549096801606648006822
:101D8000664948600020664908606948006820F498
:101D90008030674908606648007800F00C0050BB4E
:101DA000624830F8150062490968084018B35F4876
:101DB00030F815105E48006888435D4908605E4849
:101DC000008800F4804028B1781C87B23846FFF7BD
:101DD000C9F80DE05848008818B157480088FFF747
:101DE000C1F85748008818B155480088FFF7BAF87D
:101DF0002846FEF7B3FE6D1C052DFFF61BAF4C48C1
:101E0000007800F0040010B30420FEF779FB78B1ED
:101E1000FEF7A2FA0446C4F30B004A4909680843D6
:101E2000484908604248006820F0040040490860C2
:101E30003F48007800F00C0048B942480068FFF7BE
:101E4000CDF83B48006820F0010039490860384867
:101E5000007800F0080020B34FF48020FEF750FB1C
:101E600080B1FEF7FFFA0446374800EA04403549DE
:101E700009680843334908602D48006820F00800CD
:101E80002B4908602A48007800F00C0048B92D481A
:101E90000068FFF7A3F82648006820F001002449F5
:101EA00008602348006880F0010028490988012261
:101EB00022EA1121084010B11F20FEF707FF244835
:101EC00000681549096888424ED0134800682049C7
:101ED0000860114800680A21B0FBF1F201FB120012
:101EE000D0BB80220B491B48FEF758F980210948D6
:101EF000FEF786F9074830E000E100E018400020D6
:101F00001A400020B8400020A44100203C4000209E
:101F100020410020E44100202C400020E444002027
:101F20003440002038400020E44200206445002076
:101F3000004000204040002044400020EC430020AE
:101F400046400020084000200000FF0F0440002011
:101F5000304000206442002006E014490968016016
:101F600013480068134948601348806900F0100066
:101F700070B91148FFF7E4FC1049088001201049AE
:101F800008600E490878FEF7A7FB00200B4908807F
:101F90000948FFF7D5FC094908800A48008800F481
:101FA000805008B1FEF79EFE42E600003C40002053
:101FB0002C400020E4410020000003409C40002011
:101FC000644000200040002048656C6C6F207374F2
:101FD00072696E6700000000F81F002000400020BA
:101FE000B8000000FC000020B0200020B840002015
:101FF0008010000018010020000000000000000018
:1020000000000000000000000000000000000000D0
:1020100000000000C81F00200000000000000000B9
:10202000640000000000000000000000000000004C
:10203000000000000000000001000000000000009F
:102040000000000000000000FDFFFFFF0000000096
:102050000000000000000000000000000000000080
:102060000000000000000000000000000000000070
:102070000000000000000000000000000000000060
:102080000000000000000000000000000000000050
:102090000000000000000000000000000000000040
:1020A00000000000000000000000000000127A00A4
:04000005200000C116
:00000001FF
